:1000000000000320D10100002D4A0000E549000056
:10001000E5490000E5490000E5490000E549000028
:10002000E5490000E5490000E54900002D4A0000CF
:100030002D4A0000E54900002D4A0000D549000086
:100040002D4A00002D4A00002D4A00002D4A0000D4
:100050002D4A00002D4A00002D4A00002D4A0000C4
:100060002D4A00002D4A00002D4A00002D4A0000B4
:100070002D4A00002D4A00002D4A00002D4A0000A4
:100080002D4A00002D4A00002D4A00002D4A000094
:100090002D4A00002D4A00002D4A00002D4A000084
:1000A00095110000C91200002D4A00002D4A0000E1
:1000B0002D4A00002D4A00002D4A0000317000003A
:1000C0002D4A0000897700002D4A0000A57D000020
:1000D0002D4A0000558400002D4A00002D4A0000E2
:1000E0002D4A00002D4A00002D4A00002D4A000034
:1000F0002D4A00002D4A00002D4A00002D4A000024
:100100002D4A00002D4A00002D4A00002D4A000013
:100110002D4A0000295100002D4A00002D4A000000
:100120002D4A00002D4A00002D4A00002D4A0000F3
:100130002D4A00002D4A00002D4A00002D4A0000E3
:10014000294100002D4A00003D8A00002D4A000090
:100150002D4A00002D4A00002D4A00002D4A0000C3
:100160002D4A00002D4A0000FD1300002D4A00001A
:100170002D4A00002D4A00002D4A00002D4A0000A3
:100180002D4A00002D4A00002D4A00002D4A000093
:100190002D4A00002D4A00001D9100002D4A00004C
:1001A0002D4A00002D4A00002D4A00002D4A000073
:1001B0002D4A00002D4A00002D4A00002D4A000063
:1001C0002D4A00002D4A00002D4A00002D4A000053
:1001D0005C4B4CF2205210B51A804DF628121A8052
:1001E00000BF00BF04F026FC574B4FF030621A608E
:1001F000564A9A60564ADA60564B4FF470021A60BB
:10020000554B564A1A60564A136813F4807304D14A
:1002100054490B604FF4A8531360534B1A781107DD
:1002200003D51A7842F008021A70504B5049AA229E
:100230001A70504A504B8B4204D252F8040F43F8C4
:10024000040BF8E74D4B4E4900228B4202D243F893
:10025000042BFAE74B494C4A002352F8230041F89B
:1002600023000133742BF8D1484B494A802103F80D
:10027000011B9342FBD1474B424A1A60464B8A22EC
:100280001A70A3F5805324225A70A0221A709A790A
:100290009207FCD59A79D406FCD4404A937903F0AE
:1002A0000C03082BFAD13E4B60221A7002331A78E5
:1002B000802AFCD1394B01221A715D225A719A7938
:1002C0009006FCD59979354A4906FBD5354B364918
:1002D00019600021596020231370937903F00C03F7
:1002E0000C2BFAD1314B324A1A60324B324A1A6027
:1002F00000225A60072243F8042C304AC3F80C2D20
:1003000062B604F043FC174B1B68DA0705D52C488E
:1003100004F02AFC2B4B2C4A1A602C4B1B785B06F2
:1003200009D5284C284B22689A4204D1244804F06D
:100330001BFC002323600AF08BF904F081FB04F01E
:10034000A7FAFEE70E20054030800440823F0400FB
:100350000100002B88ED00E0002008E0030000858C
:1003600010D0034014D0034002D0074000E0074003
:100370009CE0FF1F20BA000030D7FF1F9CE0FF1F4A
:100380000800002000D2FF1F0000000000E400E091
:1003900064E400E008ED00E0005006400040064044
:1003A00001E007404480044000000602048004404D
:1003B000C010070014E000E01FBF02000000202072
:1003C0001A08F75A1CE00340A5C3945A00F00740EE
:1003D000FFFFFFFFFFFFFFFFFFFFFFFFFFFFFFFF2D
:1003E000FFFFFFFFFFFFFFFFFFFFFFFFFFFFFFFF1D
:1003F000FFFFFFFFFFFFFFFFFFFFFFFFFFFFFFFF0D
:10040000FFFFFFFFFFFFFFFFFFFFFFFFDEF9FFFF23
:1004100010B5054C237833B9044B13B10448AFF33E
:1004200000800123237010BD9CE0FF1F000000002E
:1004300024BA0000084B10B51BB108490848AFF3B7
:1004400000800848036803B910BD074B002BFBD0A0
:10045000BDE81040184700BF00000000A0E0FF1FEB
:1004600024BA00009CE0FF1F0000000010B5044605
:100470000AF046FC01462046BDE8104005F0FABCF3
:1004800038B5044608460D460AF03AFC2368024691
:1004900029465B68204698470546204603F0CEFF74
:1004A000284438BD002310B4104C4172026104602E
:1004B0000372C36041B1194600E0026942F823109B
:1004C000427A01339A42F8DC094B1A680AB90BE008
:1004D0001A465369002BFBD150610023436183808E
:1004E000C3805DF8044B70471860F6E73CB100002C
:1004F00018FBFF1F70B53C4A3C4910683C4C3D4E10
:1005000082B00B783BB123789B0704D01368356821
:100510005B1B182B04D813681B1AB3F57A7FF0D92C
:10052000354C3648C82103F0A1FC204602F02EFBD2
:100530005A21204602F0C0FD20465522202102F01B
:10054000C9FA38B1E28842F0040292B2204624216E
:1005500002F0C0FA0F2211462748294C02F0E6FAB1
:10056000284B294A2949D961012A41F69911196272
:10057000E2612BD8264A274C012AE26118D8264A84
:10058000264B274801218A424262D96109D980233A
:1005900000939FED240A00F140033821283009F030
:1005A000DFF8214B4FF480329A61DA6102B070BDFE
:1005B00080230093382104F12C0304F1200009F07A
:1005C000EDF80028DBD00023E361D8E78023009317
:1005D000382104F12C0304F1200009F0DFF8002891
:1005E000C8D00023E361C5E748FBFF1F2CFCFF1FB9
:1005F00054FCFF1F0000002028F0FF1F0002FF1F17
:10060000D4F3FF1F70F1FF1F34D7FF1F6C3152026C
:1006100040B1000000E9FF1FA8E2FF1F74ECFF1FBC
:1006200088E3FF1F6F12033B9CF3FF1F70B58E49D9
:100630008E488F4E8F4DADF5276DFFF721FF42F2AB
:10064000107004F045FC34688B4B2B60002C00F0DC
:10065000FC80206880221CA908F04CFF6068802282
:100660009CA908F047FFA06880220DF58E6108F074
:1006700041FFE06880220DF5CE6108F03BFF206964
:1006800080220DF5076108F035FF7C48FFF7EEFE8C
:100690007B497648FFF7F4FE0DF16E040DF5B77651
:1006A00034F9021F714803F04FFE0221754805F02E
:1006B000E1FBB442F4D174496C48FFF7E1FE7348A2
:1006C000FFF7D4FE6E496948FFF7DAFE0DF26E249B
:1006D0000DF26E3634F9021F644803F035FE022134
:1006E000684805F0C7FBA642F4D167495F48FFF7A9
:1006F000C7FE6748FFF7BAFE61495C48FFF7C0FED6
:100700000DF26E440DF26E5634F9021F574803F095
:100710001BFE02215B4805F0ADFBA642F4D15A490D
:100720005248FFF7ADFE5B48FFF7A0FE54494F4823
:10073000FFF7A6FE0DF26E640DF26E7634F9021F1D
:100740004A4803F001FE02214E4805F093FBA64201
:10075000F4D14D494548FFF793FE4F48FFF786FE19
:1007600047494248FFF78CFE0DF66E040DF66E16F3
:1007700034F9021F3D4803F0E7FD0221414805F02E
:1007800079FBB442F4D140493848FFF779FE2B6831
:1007900038229868694608F0ADFE4048FFF766FECB
:1007A00037493248FFF76CFE2B681A880024A2B143
:1007B0009B6803EB84030134186809F0C3FB41EC28
:1007C000100B0821294803F05BFE02212D4805F09B
:1007D00051FB2B681A88A242EADC2B492348FFF719
:1007E0004FFE2E48FFF742FE25492048FFF748FEFE
:1007F0002B681B8883B1ADF10206002436F9021F75
:100800001A4803F0A1FD02211E4805F033FB2B68B6
:100810001B880134A342F1DC1B491448FFF730FE6A
:100820001F4B186800F07EFB1E4B186800F07AFB27
:100830001D4B186800F076FB1C4B186800F072FB2B
:100840001B4B186800F06EFBFEE7182004F064F9FB
:100850000346046044608460C460046144613060A5
:100860001C460020F6E600BFB0B1000034FCFF1FBC
:1008700034F0FF1FFCE8FF1FB0E3FF1FB8B100001A
:10088000BCB10000C4B10000C8B10000CCB1000090
:10089000D0B10000D4B10000D8B10000DCB100003C
:1008A00094F3FF1F6CECFF1F98F3FF1F70ECFF1F0A
:1008B000E8E8FF1F2DE9F04F002283B011466B4896
:1008C0006A4CDFF8ECB16A4F6A4DFFF7EBFD674AFF
:1008D000694B1360694A18324FF48043A2F1180043
:1008E00001212362FFF7DEFD644B00240BF11802A7
:1008F000012158461F60DC61FFF7D4FD604B614A5F
:100900001968614B8BF8F440CBF8F0408BF8F54058
:10091000CBF800208BF8F6406C722C612C72EC60E6
:100920002B6009B9A7E111464A69002AFBD14D6144
:100930000024DFF88091DFF880A1544A4D486C61B3
:10094000AC80EC8001932A6002F006FE09F11802E7
:1009500001214846FFF7A6FD4A4B89F8F4400AF109
:10096000180203215046C9F8003089F8F540C9F84B
:10097000F04089F8F640FFF795FD454B4549CAF828
:10098000001003F1180218460121CAF82440FFF7AD
:1009900089FD414B414DDFF82481414E03F118029E
:1009A00018463B4B01211F60DC61FFF77BFD3A4B92
:1009B00005F11802284601211F60DC61FFF772FD76
:1009C000304B384F85F8F44008F1180201214046B9
:1009D00085F8F5402B60C5F8F04085F8F640FFF744
:1009E00061FD284B88F8F44006F1280204213046C6
:1009F000C8F8003088F8F540C8F8F04088F8F640AC
:100A0000FFF750FD4FF48031274A3260B16107F1A2
:100A10001802F1613162716238460121FFF742FD2F
:100A2000224D184B3B60019B2B60022005F11803FF
:100A300087F8F440687287F8F5402246C7F8F0401E
:100A400087F8F64021462C72EC602B61284600E0C6
:100A5000036943F822106C7A144B01329442F7DC9C
:100A6000074A0749126862BB08E100BF70F1FF1F27
:100A7000A4B4000090F6FF1FE0B4000074ECFF1F68
:100A800018FBFF1FD4B400003CB10000B0B400005C
:100A9000D4F3FF1F78B2000000E9FF1FB0E1FF1F91
:100AA0009CF3FF1F30EFFF1FBCB400002CECFF1FB6
:100AB000B8E0FF1F68F0FF1F88E3FF1F9CF2FF1FD5
:100AC0001A465369002BFBD1556100246C4B6D4ACB
:100AD0006D486C61AC80EC8001932A6002F0B0FF3D
:100AE000019B012103F118021846FFF7DBFC019B73
:100AF0006649674A196083F8F440C3F8F04083F808
:100B0000F54083F8F640634B1472104682E80808FB
:100B10005472D46003F0D8FA5F4A5E4B13601046FB
:100B20005E4B147253605472D46003F0CDFA5C4A89
:100B3000584B136010465B4B147253605472D46070
:100B400003F0C2FA584A534B14724FF0010B10468F
:100B500082E82800D46082F809B003F0B5FA534A5D
:100B60004C4B1472104682E808045472D46003F0AF
:100B7000ABFA4F4A4B4B1472104682E8080254728B
:100B8000D46003F0A1FA4B4A464B1472104682E837
:100B9000080482F809B0D46003F096FA464A474B3D
:100BA00014721046C2F800A053605472D46003F06F
:100BB0008BFA434A394B1472104682E8480054724B
:100BC000D46003F081FA3F4A344B1472104682E835
:100BD00008015472D46003F077FA3B4A374B82F82D
:100BE00009B0104682E848001472D46003F06CFA31
:100BF000364A324B1472104682E888005472D46030
:100C000003F062FA324A104614721660556054724C
:100C1000D46003F059FA2F4A019B536010461660C6
:100C200014725472D46003F04FFA2B4B0222184610
:100C30001C7283E84004DC605A7203F045FA274BCB
:100C4000274A1A600A221A7200F05CF9254B1860D4
:100C500000F058F9244B186000F054F9234B186049
:100C600000F050F9224B186000F04CF9214B18604D
:100C700003B0BDE8F08F204A156059E60B6024E709
:100C800094F1FF1FC8B400002CECFF1FD4B4000087
:100C9000BCEBFF1F70F1FF1FCCEBFF1FD4F3FF1F56
:100CA000DCEBFF1F74ECFF1FECEBFF1FFCEBFF1FE7
:100CB0000CECFF1F1CECFF1F58F0FF1F00E9FF1F8B
:100CC0004CECFF1F5CECFF1F38F0FF1F48F0FF1FCC
:100CD00060F1FF1F8CF2FF1FECE8FF1F28F0FF1FE1
:100CE00084B2000094F3FF1F6CECFF1F98F3FF1F0A
:100CF00070ECFF1FE8E8FF1F18FBFF1F2DE9F04F06
:100D0000028885B01646029202460390D2F8088007
:100D10004068D2ED032AD2ED043AD2ED057A019073
:100D200006F18042013A00EB820C109ADDF83C900B
:100D3000002A00F0DF80B4089646220187189FED54
:100D40006F3A4244009206F0030600F11005824615
:100D50000A684CF8042BE7EEE73AF1EC017AE7EE8B
:100D6000A73ADFED677A002C00F0C18008F110008F
:100D70002A46A34612ED042A10ED044A52ED034A16
:100D800010ED035A52ED025A10ED026A52ED016A5B
:100D900010ED017AE2EE047ABBF1010B02F11002D0
:100DA00000F11000E4EE857AE5EE867AE6EE877AC9
:100DB000E0D1DDF800B0384646B13246F0EC016AC9
:100DC000BBEC017A013AE6EE877AF7D10E9AE2ECB3
:100DD000017AF3EC017A0E9233EE837A62EEA76A1F
:100DE000E9EC017AC6EE877A002C7DD008F110027A
:100DF0002846A346BBF1010B00F1100002F11002DE
:100E000010ED085A52ED085A12ED076A52ED066AC3
:100E100012ED057AE7EE855A42ED085A50ED075A71
:100E2000A7EEA56A02ED076A10ED066AE7EE866A8C
:100E300042ED066A50ED056AA7EEA67A02ED057A44
:100E4000D8D1009ABB4630464EB1FBEC016A92ED18
:100E5000007AA7EEA67A0138A2EC017AF5D1BEF1AC
:100E6000010E07F1040705F10405FAEC017A7FF49D
:100E70006FAF019B109A03EB8204029B039A591EE9
:100E80008E08C2ED043AC2ED057A20D0019B3046AF
:100E900003F1100204F1100353F8105C42F8105CE7
:100EA00053F80C5C42F80C5C53F8085C42F8085CA0
:100EB00053F8045C42F8045C013803F1100302F1BA
:100EC0001002E9D1019A33011A4401921C4411F035
:100ED000030306D0019A54F8041B42F8041B013B9B
:100EE000F9D105B0BDE8F08F4246D346ABE7C34623
:100EF000504661E704463346C0E700BF00000034B7
:100F00000000000038B544F20C0009F0C9FB44F2BF
:100F1000040500F5804444F2080100224251226099
:100F2000425038BD09F0C4BB90F8392090F8380021
:100F3000101A704790F8383090F839209A4205D945
:100F40005A1C034480F83820187E70474FF0FF3059
:100F5000704700BF90F8383090F839209A4286BF29
:100F60001B18187E4FF0FF30704700BF704700BF5E
:100F7000B0F85E306BB190F85D30202B07D8C21806
:100F8000013380F85D30012082F83B107047012367
:100F900003710020704700BF38B50546B0F85E0009
:100FA00090B195F85D301446C3F1210294420CD8FB
:100FB00005F13B001844224603F072FC95F85D30C1
:100FC000234485F85D30204638BD01201446287141
:100FD000EEE700BF0023426980F8383080F83930EE
:100FE00080F85C3080F85D3080F85E3080F85F30EB
:100FF00006CA30B40D68046943662A4383660A60F2
:10100000A370426990F861301649146813441D7A40
:101010005B7B01EBC5051B026D6803F4E06343F0E5
:1010200064032B6090F8623013449D7CDB7D01EB00
:10103000C5011B02496803F4E06343F064030B60DD
:1010400021685368194205D003692C225A7003693C
:1010500004229A71036920225A71036980229A70CE
:1010600030BC7047F4B40000F0B503691222DA70A6
:10107000026993780546980687B04ED5B423444C50
:10108000937023680293029E2A6905E02368039304
:10109000039B9B1B042B57D8D37803F0200303F04A
:1010A000FF00002BF2D095F85D30002B2ED00027EA
:1010B0004FF0020EEB1993F83B3013712368049341
:1010C000DDF810C0286908E09B060ED5236805935B
:1010D000059BCCEB0303052B3DD8C378DBB203F0B3
:1010E000020202F0FF06002AEED080F803E02A692F
:1010F000D378DBB2DE063DD49E063BD5DB0741D478
:10110000013795F85D30FFB2BB42D3D800200029EB
:1011100034D1002385F85E301BE01D4C236800931A
:10112000009E05E023680193019B9B1B0F2B19D8A0
:10113000D37803F0200303F0FF00002BF2D1B0239B
:1011400085F85F0093709CE790702B6980229A70FD
:10115000042007B0F0BD86702B69802204209A70AD
:1011600007B0F0BD002393702B69802204209A7091
:1011700007B0F0BD802393700420C8E72A6980235C
:101180009370C6E7002F0CBF02200320F7E700BFD3
:1011900048FBFF1F38B54A4D2A69D478E4B2E1060E
:1011A00024D51023D37063061FD504F0040404F083
:1011B000FF03002C5BD043496A6E414C00230B7047
:1011C00085F85D30002A65D0904794F85D30002B9B
:1011D00060D02B69D0229A7095F83B201A710123B8
:1011E00085F85C302B690222DA7038BD04F04003C8
:1011F00003F0FF00002BD8D19379DBB203F060013C
:1012000060294ED0937803F0100303F0FF01BBB1C7
:1012100014F0010437D195F85C3095F85D00284949
:1012200098424BD9C818013390F83B0081F85C30E4
:1012300010712B69D0229A702B690222DA70D4E7E0
:1012400085F8601093791E4943F020039371137958
:1012500095F839201F2ADBB2C4D81A480078002834
:10126000C0D088180132037681F83920BAE7C0214E
:1012700085F839309170134B127901221A702B695D
:101280000222DA70B1E7C023937013792B6902222E
:10129000DA70AAE70122002385F85D2085F83B304B
:1012A00097E703F0DF039371AB6E002BAAD085F8AC
:1012B000380095F8390098472A69A3E71471B8E710
:1012C00084F7FF1F80F7FF1F38B54A4D2A69D4788D
:1012D000E4B2E10624D51023D37063061FD504F0D1
:1012E000040404F0FF03002C5BD043496A6E414CB8
:1012F00000230B7085F85D30002A65D0904794F884
:101300005D30002B60D02B69D0229A7095F83B207D
:101310001A71012385F85C302B690222DA7038BD1E
:1013200004F0400303F0FF00002BD8D19379DBB227
:1013300003F0600160294ED0937803F0100303F0AE
:10134000FF01BBB114F0010437D195F85C3095F87A
:101350005D00284998424BD9C818013390F83B00EA
:1013600081F85C3010712B69D0229A702B690222AF
:10137000DA70D4E785F8601093791E4943F02003B2
:101380009371137995F839201F2ADBB2C4D81A4813
:1013900000780028C0D088180132037681F83920FF
:1013A000BAE7C02185F839309170134B12790122C8
:1013B0001A702B690222DA70B1E7C0239370137997
:1013C0002B690222DA70AAE70122002385F85D204A
:1013D00085F83B3097E703F0DF039371AB6E002B8A
:1013E000AAD085F8380095F8390098472A69A3E70C
:1013F0001471B8E7A8F6FF1F80F7FF1F38B54A4DF4
:101400002A69D478E4B2E10624D51023D3706306A8
:101410001FD504F0040404F0FF03002C5BD0434903
:101420006A6E414C00230B7085F85D30002A65D050
:10143000904794F85D30002B60D02B69D0229A70D1
:1014400095F83B201A71012385F85C302B69022244
:10145000DA7038BD04F0400303F0FF00002BD8D150
:101460009379DBB203F0600160294ED0937803F0EA
:10147000100303F0FF01BBB114F0010437D195F85C
:101480005C3095F85D00284998424BD9C818013363
:1014900090F83B0081F85C3010712B69D0229A7073
:1014A0002B690222DA70D4E785F8601093791E491F
:1014B00043F020039371137995F839201F2ADBB28A
:1014C000C4D81A4800780028C0D0881801320376A2
:1014D00081F83920BAE7C02185F839309170134B73
:1014E000127901221A702B690222DA70B1E7C02347
:1014F000937013792B690222DA70AAE70122002384
:1015000085F85D2085F83B3097E703F0DF039371A2
:10151000AB6E002BAAD085F8380095F839009847B3
:101520002A69A3E71471B8E714F7FF1F80F7FF1FBC
:10153000F0B517481749184A184B194D194C036153
:10154000456100234FF47A75DFF868E0164F0371A8
:10155000037380F8613080F8623085600460134E58
:1015600013480B710B7381F8613081F8623013718D
:10157000137382F8613082F862308D600C60C1F8BC
:1015800010E04F619560146016615061F0BD00BFBE
:1015900084F7FF1FA8F6FF1F14F7FF1F0060064027
:1015A000E0B1000048B2000000B2000000600E4050
:1015B00020B20000007006402149224A0B6843F027
:1015C00080030B6011461368DB07FCD40B689B0794
:1015D000F9D41D4B30B44FF08072194D186000E003
:1015E000A2B12968194B164C0B40013A002BF7D0D9
:1015F00062B1012B0AD1236813F0800F23680FD04A
:1016000043F001132360032030BC70470C4A136879
:1016100043F4702343F001031360012030BC704792
:1016200013F4803305D0236843F0011323600520B1
:10163000F4E7226842F0010218462260EEE700BF9C
:1016400030100B4024100B400C100B4001000E001A
:101650002DE9F0432B4A2C4CDFF8B490DFF8B4802E
:10166000DFF8B4C02746154664264FF0000EC9F8CF
:1016700000E0236843F0800323601368D807FCD49C
:101680002B689907F9D4C8F800C04FF0807100E0CA
:10169000D1B120681D4B03400139002BF8D099B11E
:1016A000012B11D13B6813F0800F3B681BD043F036
:1016B00001133B600320013E10D013685B0710D577
:1016C0000028D4D0BDE8F083236843F4702343F0AE
:1016D0000103013E23604FF00100EED1002808BF56
:1016E0000520BDE8F08313F4803305D03B6843F058
:1016F00001133B600520DEE7396841F0010118461F
:101700003960D8E724100B4030100B4001000E0068
:1017100008100B400C100B400000DB0CF8B5384BE8
:101720001A780AB10320F8BD5B78064603B949026E
:10173000344D354C354B36484FF6FF774FF48132F8
:101740002F6021601A60FFF737FF0028EBD1314B83
:1017500031491B681C3406F1400206F510702B68F5
:10176000284F43F0200613F4E00F2E603ED123688B
:101770001E05FCD50B6842F8403C0B6842F83C3C27
:101780000B6842F8383C0B6842F8343C0B6842F86E
:10179000303C0B6842F82C3C0B6842F8283C0B6844
:1017A00042F8243C0B6842F8203C0B6842F81C3C91
:1017B0000B6842F8183C0B6842F8143C0B6842F87E
:1017C000103C0B6842F80C3C0B6842F8083C0B6874
:1017D00042F8043C40328242C1D1002009490B68E2
:1017E000084A9B07FBD50D4B1360F8BD43F4E0039B
:1017F00043F020033B60FFF72BFF0120EEE700BF23
:1018000014F8FF1F30100B4008100B4004100B4061
:1018100010003A1110100B4020100B402200000164
:10182000F8B53B4B1A780AB10320F8BD5B78074640
:1018300003B94902374C384D384B39484FF6FF76DB
:101840004FF48132266029601A60FFF7B5FE002848
:10185000EBD1344B34491B6807F14002264607F5AB
:10186000107723682B4DD806FBD5336813F4E00FAF
:1018700043D152F8403C0B6052F83C3C0B6052F8AC
:10188000383C0B6052F8343C0B6052F8303C0B6033
:1018900052F82C3C0B6052F8283C0B6052F8243C68
:1018A0000B6052F8203C0B6052F81C3C0B6052F865
:1018B000183C0B6052F8143C0B6052F8103C0B6063
:1018C00052F80C3C0B6052F8083C0B6052F8043C98
:1018D0000B60336843F010033360336813F4E000A7
:1018E00002F1400209D1BA42BBD10A490B68094A48
:1018F0009B07FBD50D4B1360F8BD2B6843F4E00349
:1019000043F010032B60FFF7A3FE0120EDE700BFBB
:1019100014F8FF1F30100B4008100B4004100B4050
:1019200000003A1810100B4020100B40120000016C
:10193000F0B53B4F3B4C3B6883B006460193019D9D
:10194000A446ADB24FF0004EFF20236843F48063FD
:101950002360C4F82CE06063E36A002BFCDADCF857
:101960003830DBB2FF2B07D03B680093009B9BB263
:101970005B1BB3F5967FE8DB2A4B18684FF00045F8
:1019800040F4806041F040041860DD6218465C63FA
:10199000C36A002BFCDA234C18204FF0004725685F
:1019A00022FA00F345F48065DBB22560E7626363E9
:1019B000E36A002BFCDA083810F1080FEFD1002998
:1019C0002CD008290CBF8721FF21164B1A684FF035
:1019D000004042F480621A60D8621A465963D36AA2
:1019E000002BFCDA0F4A002715464FF00044FF2178
:1019F000136843F480631360D4625163D36A002B8D
:101A0000FCDAAB6BD8B21B06707001D403B0F0BD2A
:101A10000137B7F5807FEBD103B0F0BD9521D4E756
:101A200048FBFF1F00C002402DE9F0418D4C837838
:101A3000032B23780F4682B00646154618BF4F0287
:101A4000002B3AD00021307803F0E2F93A46112118
:101A50003046FFF76DFF20BB834F844A3B680193FC
:101A60000198904680B24FF0004C4FF0FF0E136883
:101A700043F480631360C2F82CC0C2F834E0D36A28
:101A80007A49002BFBDAD8F83830DBB2FF2B7370C1
:101A900076D13B680093009B9BB21B1AB3F5967FEF
:101AA000E5DD3078012103F0B3F923786D4A002B8E
:101AB00047D1002002B0BDE8F0816D4B6D4A197826
:101AC00012680120207000292ED072B61B78D90729
:101AD0000BD569486949D0F800C00968DFF8B0E162
:101AE0000CEA0101CEF80010016098070BD564489C
:101AF0006249D0F800C04968DFF894E10CEA0101BE
:101B00000160CEF8041059070BD55E485B49D0F848
:101B100000C08968DFF878E10CEA01010160CEF8C5
:101B200008101B0774D462B6504BD968914289D013
:101B3000554818605549DA6042F0804018611960D4
:101B400080E74B4B1B7800211170002BB1D0D807D8
:101B500003D54F494F4A09681160990703D54C498D
:101B60004D4A496811605A0703D549494B4A89686B
:101B700011601B079DD5464A494BD2681A6098E709
:101B8000FE2B8ED1474B484A0A6008464B630A46F3
:101B90004B639E464B6305F5FE77A91CD36A13F091
:101BA000F00FFBD0C0F834E0836B01F8013C1B124E
:101BB00001F8023C02318F42F0D105F5FD7105F5C7
:101BC0000075A9420DD2294A1746D36A13F0F00FC7
:101BD000FBD0BB6B181201F8020BA94201F8013CC3
:101BE000F3D3224B30492F4A196019465A63CB6A06
:101BF0001E4A13F0F00FFAD03078936B012103F0F6
:101C000007F92378174A73B9012002B0BDE8F081C3
:101C100026491A4BD1F800E0DB681D480EEA0303A1
:101C20000B60C3607FE7124B1B7800211170002B03
:101C3000EAD0DF0703D51649164A096811609E07E6
:101C400003D51349144A496811605D0703D510494B
:101C5000124A896811601C07D6D50D4A104BD2680C
:101C60001A60D1E728F8FF1F48FBFF1F00C00240A1
:101C700010F8FF1F24F8FF1F80E100E0F0F7FF1FBE
:101C800084E100E088E100E001401F0000001F80C7
:101C900000F8FF1F00E100E004E100E008E100E0DF
:101CA0000CE100E0FFFF009000041F808CE100E0E9
:101CB000F0B4314E33684FF0004743F48063336033
:101CC0003D46F762344671633346511C02F20127E8
:101CD000E26A002AFCDA1A6811F8016C42F48062A8
:101CE0001A60DD625E63E26A002AFCDA1A6811F8A3
:101CF000026B42F48062B9421A60DD625E63E7D132
:101D00001D49CA6A1C4B002AFBDA1A684FF00045CD
:101D100042F48062FF241A601946DD625C63CB6A7C
:101D2000154A002BFBDA13684FF0004543F480633B
:101D3000FF2413601146D5625463CB6A0E4A002B10
:101D4000FBDA13684FF0004543F48063FF2413600F
:101D50001146D5625463CB6A074A002BFBDA936BBA
:101D6000DBB203F01F024370A2F10500B0FA80F06D
:101D70004009F0BC704700BF00C002402DE9F041AF
:101D8000054682B0002900F08D8083787D4E032BBC
:101D900033780C46174618BF4C02B3B1002128789F
:101DA00003F036F8224618212846FFF7C1FD002827
:101DB0007AD02878012103F02BF83378714A002B70
:101DC00051D1002002B0BDE8F0816F4B6F4A197805
:101DD000126801203070002938D072B61B78D907FC
:101DE0000BD56B486B49D0F800C00968DFF8B4E147
:101DF0000CEA0101CEF80010016098070BD5664887
:101E00006449D0F800C04968DFF898E10CEA0101A4
:101E10000160CEF8041059070BD560485D49D0F831
:101E200000C08968DFF87CE10CEA01010160CEF8AE
:101E300008101B0709D55A49564BD1F800E0DB685A
:101E400058480EEA03030B60C36062B6564BD9686C
:101E50009142A3D0554818605549DA6042F080405D
:101E6000186119609AE7484B1B7800211170002B0C
:101E7000A7D0D80703D54B494E4A09681160990786
:101E800003D548494C4A496811605A0703D545496A
:101E90004A4A896811601B0793D5424A484BD26869
:101EA0001A608EE7374E84E73A46FE212846FFF750
:101EB000FFFE00283FF47DAF42483B4A0368019390
:101EC0000199904689B24FF0004C4FF0FF0E136815
:101ED00043F480631360C2F82CC0C2F834E0D36AC4
:101EE000314C002BFBDAD8F83870FFB2FF2F08D046
:101EF00003680093009B9BB25B1AB3F5167FE6DB89
:101F000057E700220D212846FFF712FD00287FF435
:101F100050AF23684FF0004243F4806323602146B2
:101F2000E2626763CB6A204A002BFBDA936B13F003
:101F3000FF047FF43EAF2878012102F069FF327878
:101F4000104B0AB901203DE70F4A1C701378002B93
:101F5000F8D0DF0703D51349164A096811609E07B8
:101F600003D51049144A496811605D0703D50D492E
:101F7000124A896811601C07E4D50A4A104BD268DE
:101F80001A60DFE728F8FF1F10F8FF1F24F8FF1F73
:101F900080E100E0F0F7FF1F84E100E088E100E06D
:101FA0008CE100E000F8FF1F00C0024001401F006C
:101FB00000001F8000E100E004E100E008E100E033
:101FC0000CE100E048FBFF1F014B024A1A6070471A
:101FD00024F8FF1F032000382DE9F04F837985B0E6
:101FE000012B0646019205D001233371002005B074
:101FF000BDE8F08F42799007F6D553070F4626D5F6
:10200000F368B569AB4200F02B81002D00F04981E7
:10201000326A147C591E09346A1EE14022FA04F423
:10202000A14200F24281002B00F03F81641A06F1C8
:10203000080806E0B168306A00F0DCFB013C0028CB
:10204000D2D04246002CF5D1F5602B4600E0F36873
:10205000019A002A43D0DFF8B8B2019D306A0279B4
:10206000013A02EA532212F0FF09C3F3080840D1F3
:10207000B8F1000F3DD1B168002940F0C580F36987
:10208000002B00F0D480B360C8F50074017C426975
:10209000A4B2023B8B404A44AC4203EB02092AD86B
:1020A000B4F5007F28D1954B1B68994500F0A780B7
:1020B000934B18680378FE2B494600F0CA803A46D5
:1020C000FFF75CFE00288FD007F500774FF400780B
:1020D000F3682D1B4344ADB2F360002DBED1B2694D
:1020E0009A4280F0C2807279B36142F080027271CC
:1020F000C4E0B368C8E72C46B8F1000F03D1F2681A
:10210000B3699A425CD24846012100F0DBF900280D
:102110003FF46AAF08EB0B031819834262D008F151
:1021200004083A1DD844934238BF474543EA070E96
:102130002CBF01220022591C1EF0030F02F00102E5
:10214000C1EB000E18BF00220EF1010A9C46002AC6
:102150004AD0BAF1090F47D9AEF103029208013211
:102160004FEA8209A7F104084FF0000E00930EF128
:10217000010E58F8043F4CF8043B9645F7D3009BFA
:10218000D14507EB090C03EB090E13D017F8228099
:1021900003F822800EF1010398420BD09CF8013025
:1021A0008EF801300EF10203984203D09CF8023001
:1021B0008EF80230C1F1010108440744A04687E7C8
:1021C00000F040F900283FF40FAF4E4A4B4BC3F8E4
:1021D0000090137843F00103137008EB0B031819F8
:1021E00083429CD1A04673E7013B7A1E00F1FF3C7D
:1021F00012F801EF03F801EF9C45F9D1DAE73F4A05
:102200004FF0FF33136053E703AA00F0F3FA0028FE
:102210003FF4EDAE306A3C4C90F82010039B4FF633
:10222000F872102918BF22469342FFF42CAF06F132
:102230000802012100F0AAF900283FF4D5AEF369A5
:102240006BBB7279B368F36162F07F027271306ABE
:102250001AE73846FFF7E4FAB0FA80F0400931E7B0
:10226000019900297FF4F7AE08E0284B72791B68CA
:1022700023B1019B13B142F08002727111070AD59C
:10228000B379002B3FF4B0AE120611D400F0DAF8A7
:1022900000283FF4A9AE019805B0BDE8F08FB368FF
:1022A000D5E7B560F5602B46D2E6F369B360BEE6CC
:1022B0000121306900F006F900283FF495AE347D25
:1022C000134B13EB44143FF48FAEB3790F4A012B39
:1022D0009CBFB369E361F369126863831B0CA3823B
:1022E00032B104F1160104F118009047238B638288
:1022F000737903F07F037371C8E700BFA4D7FF1F92
:1023000034F8FF1F38FAFF1FF8FFFF0F2CF8FF1FEC
:1023100038F8FF1F00B583B002AB012203F8011D9E
:102320001946FFF759FE03B05DF804FB2DE9F84F9D
:1023300090F82030DFF80481C569102B0E46044662
:102340009146D8F8001018D005EBD6158D421FD154
:10235000374F384B06F07F0643F82690227E3B78B5
:10236000012A43F0010388BFA2683B7082BF324B51
:10237000891819600120BDE8F88F05EB1625A942E0
:1023800006D12B4F2B4BF6B2294623F81690E5E7E2
:10239000274FDFF8ACA03B788BB9DAF80000037860
:1023A000FE2B20D0234A2946FFF73EFBC0B194F80C
:1023B0002030C8F80050102BE4D02946C9E7DAF8DD
:1023C00000000378FE2B24D01A4AFFF7D7FC38B15F
:1023D000DFF864B0DBF8001069B900233B70DCE77C
:1023E0000020BDE8F88F29461248FFF797F9B0FAA8
:1023F00080F04009DAE7DAF800000378FE2B0FD00E
:102400000C4AFFF7BBFC0028EAD00023CBF80030D1
:10241000E3E70848FFF704FAB0FA80F04009D6E78E
:102420000448FFF7FDF9B0FA80F04009EBE700BF80
:1024300038FAFF1F38F8FF1F30F8FF1FA4D7FF1F1F
:1024400034F8FF1F70B51A4C23780BB9012070BD0A
:10245000184D194B286819680378FE2B17D0174AB6
:10246000FFF78CFC88B1164E316819B90023237030
:10247000012070BD28680378FE2B0FD00F4AFFF7AC
:102480007DFC10B100233360F0E7002070BD0B48E5
:10249000FFF7C6F9B0FA80F04009E3E70748FFF715
:1024A000BFF9B0FA80F040090028EBD1EDE700BF9A
:1024B00038FAFF1F34F8FF1FA4D7FF1F38F8FF1F9B
:1024C00030F8FF1F2DE9F8432B4E336883420F4647
:1024D00011D02A4CDFF8AC802278054692B9D8F8A2
:1024E00000000378FE2B29D0254A2946FFF79CFAE5
:1024F000D0B1356000E0214C2178394321700120B2
:10250000BDE8F883D8F800000278FE2A19460ED0FC
:102510001B4AFFF733FC38B1DFF86C90D9F8001094
:10252000A1B900232370DAE70020BDE8F88314483E
:10253000FFF776F9B0FA80F04009ECE72946104839
:10254000FFF7ECF8B0FA80F04009D1E7D8F80000C6
:102550000378FE2B08D00A4AFFF710FC0028E3D0CE
:102560000023C9F80030DCE70548FFF759F9B0FA55
:1025700080F04009F2E700BFA4D7FF1F38FAFF1F21
:1025800038F8FF1F34F8FF1F30F8FF1F2DE9F04F18
:10259000136885B0002B00F0828003F1010800234E
:1025A0000393C468631C9A468CB34446A2453CBF5F
:1025B0000224A0469C42009105460292DFF820B218
:1025C0004FF0000623D895F82030DFF82492EF6909
:1025D000D9F80010102B26D007EBD417B94226D11A
:1025E00004F07F037E4F5BF8233023F0704393B1F8
:1025F0000134A046EB680136B34208D9A24538BF82
:10260000022403F1010338BFA0469C42DBD900201D
:1026100005B0BDE8F08F631C0099C8EB030291423E
:1026200057D01C46E6E707EB1427B94213D06D4B91
:102630001B78ABB96C4B18680378FE2B27D0684A1F
:102640003946FFF7F1F90028E1D095F82030C9F8B4
:102650000070102BC4D1E3B2614F3BF81330C6E7D2
:10266000614B019318680278FE2A00F08D805C4A65
:10267000FFF784FB019B0028C9D05C4A1168B9B9F7
:102680005849186800220A700378FE2BD7D13946C2
:102690005348FFF743F8B0FA80F04009D3E7A1F1BF
:1026A0000103B3FA83F35B09D0F80080039378E762
:1026B0004D4A019310680278FE2A00F08980484A4A
:1026C000FFF75CFB019B0028A1D0484900220A606B
:1026D000D6E7012C9BD9EB6801339C4297D86FF069
:1026E000704221462846FFF721FE00288FD0A045E2
:1026F00052D204F1FF3ABAF1010F88D9EB680133E5
:10270000534584D3DFF8DCB02EE006EBDA16B34293
:102710000AD000213046FFF7D5FE00283FF477AFFE
:1027200095F82030102B2AD00AF07F0347F8234079
:102730009BF800302A7E43F00103012A8BF8003019
:1027400003D9AB681E44294B1E60D04524D00AF142
:10275000FF3ABAF1010F3FF45AAFEB6801339A45E3
:1027600004F1FF343FF653AF95F82030EE69102B9B
:10277000D9F80030C9D106EB1A26B342C9D15FFAA5
:102780008AF327F81340D3E71548FFF749F8B0FA62
:1027900080F04009019B6EE7029B196871B1012925
:1027A0007FF635AFEB68013399423FF630AF4246D2
:1027B0002846FFF7BBFD00283FF429AF029BC3F872
:1027C0000080039B13B108F101032B6001201FE778
:1027D0000348FFF725F8B0FA80F04009019B72E743
:1027E00038F8FF1F38FAFF1F34F8FF1F30F8FF1FBB
:1027F000A4D7FF1F2DE9F84FC36801338B422FD3B5
:1028000090F82030DFF8F480C469102B0E4617468C
:102810000546D8F800100ED004EBD6148C420ED129
:1028200006F07F01344B53F8213023F070433B60B6
:102830000120BDE8F88F04EB1624A14219D0DFF87F
:10284000C0A0DFF8C0909AF80030D3B9D9F80000E2
:102850000378FE2B31D0284A2146FFF7E5F810B95E
:102860000020BDE8F88F95F82030C8F80040102B04
:10287000D6D1F1B2204B33F811303B600120BDE8D6
:10288000F88FD9F800000378FE2B0DD01A4AFFF715
:1028900075FA0028E4D0DFF870B0DBF80010B1B9A9
:1028A00000238AF80030D1E71348FEF7B9FFB0FAE9
:1028B00080F040090028EED1D2E721460E48FEF70D
:1028C0002DFFB0FA80F040090028CCD1C8E7D9F834
:1028D00000000378FE2B08D0074AFFF74FFA0028C4
:1028E000BED00023CBF80030DAE70348FEF798FFAC
:1028F000B0FA80F04009F2E738F8FF1FA4D7FF1FB5
:1029000038FAFF1F34F8FF1F30F8FF1F064B074A45
:10291000DA620221002259609A7083F8242083F839
:10292000302083F8322070473CFAFF1F68B2000065
:102930002DE9F04FADF6142D04464FF4007200213E
:1029400004A808F075F94FF40072002184A808F07B
:102950006FF94FF4007200210DF5826008F068F9FC
:102960004FF4007200210DF5C26008F061F90021FA
:102970000DF501604FF4007208F05AF9204600216D
:1029800001F02AFB002874D005460121204601F001
:1029900023FB064600286CD00221204601F01CFBD8
:1029A0008046002865D0676A002F59D0012F64D077
:1029B000802204A9281D06F093FC802284A9301DE2
:1029C00006F08EFC80220DF5826108F1040006F00D
:1029D00087FC01F077FA814601F074FA8246B9F17A
:1029E000000F3DD000283BD00DF5016380270193F7
:1029F0000DF5C263009302970DF5826384AA04A9C2
:102A000004F12800FEF77AF9DFF8BCB03A4609F184
:102A100004010DF5C26006F06DFD3A460AF10401AD
:102A20000DF5016006F066FDDBF80070002F3DD06B
:102A300004AB3B6084AB7B600DF58263BB600DF53E
:102A4000C263FB600DF501633B61204600224946ED
:102A500001F0A8FA484601F081FA504601F07EFAEA
:102A6000284601F07BFA304601F078FA404601F042
:102A700075FA0DF6142DBDE8F08F29460022204688
:102A800001F090FA284601F069FA3A4631462046AC
:102A900001F088FA304601F061FA204602224146F0
:102AA00001F080FA404601F059FAE2E7182002F0FE
:102AB00033F8076047608760C76007614761CBF8FC
:102AC00000000746B4E700BF34F0FF1F0020704746
:102AD00000207047F8B5144C037A242908BFC2803F
:102AE0005B0001250E462046C1F30721174684F8F6
:102AF0003B3084F85E5084F85D50FEF739FAF1B24D
:102B00002046FEF735FAC7F307212046FEF730FAD4
:102B1000F9B22046FEF72CFA29462046FEF7A4FA21
:102B2000B0FA80F04009F8BD84F7FF1F70B50F2997
:102B3000154C037A28BF0F210F2A4FEA430328BF01
:102B40000F2201250E462046002142EA061684F88F
:102B50003B3084F85E5084F85D50FEF709FA204659
:102B60002021FEF705FA20460021FEF701FAF1B216
:102B70002046FEF7FDF929462046FEF775FAB0FA21
:102B800080F0400970BD00BF84F7FF1FF8B5EB4C23
:102B90000125064605712046FEF71CFA052002F0C5
:102BA00097F9337A84F85E50AB402046002184F8D0
:102BB0003B3084F85D50FEF7DBF920463021FEF70C
:102BC000D7F920464021FEF7D3F920466021FEF7D1
:102BD000CFF929462046FEF747FA337A84F85E504B
:102BE000AB402046002184F83B3084F85D50FEF76E
:102BF000BFF920462621FEF7BBF920460021FEF74B
:102C0000B7F920466C21FEF7B3F929462046FEF7B6
:102C10002BFA337A84F85E50AB402046002184F8CA
:102C20003B3084F85D50FEF7A3F920462821FEF7DB
:102C30009FF929462046FEF79BF92046F221FEF730
:102C400097F929462046FEF70FFA337A84F85E504A
:102C5000AB402046002184F83B3084F85D50FEF7FD
:102C600087F920462C21FEF783F920460F21FEF735
:102C70007FF920462221FEF77BF929462046FEF700
:102C8000F3F9337A84F85E50AB402046002184F893
:102C90003B3084F85D50FEF76BF920463C21FEF78F
:102CA00067F920464421FEF763F920464621FEF7E6
:102CB0005FF929462046FEF7D7F9337A40F23712FA
:102CC000F280AB402046002184F83B3084F85E500F
:102CD00084F85D50FEF74CF920462421FEF748F9B0
:102CE00029462046FEF744F920463721FEF740F9F1
:102CF00029462046FEF7B8F9337A84F85E50AB4097
:102D00002046002184F83B3084F85D50FEF730F90E
:102D100020463021FEF72CF920464021FEF728F905
:102D20002046FF21FEF724F929462046FEF79CF9AC
:102D3000337A84F85E50AB402046002184F83B3063
:102D400084F85D50FEF714F920460221FEF710F9D1
:102D500020460021FEF70CF920467321FEF708F902
:102D600029462046FEF780F94FF4C87002F0B0F80B
:102D7000337A84F85E50AB402046002184F83B3023
:102D800084F85D50FEF7F4F820462E21FEF7F0F8A7
:102D900020461D21FEF7ECF820461D21FEF7E8F83D
:102DA00029462046FEF760F9337A84F85E50AB403E
:102DB0002046002184F83B3084F85D50FEF7D8F8B7
:102DC00020460421FEF7D4F820460021FEF7D0F873
:102DD00020460421FEF7CCF829462046FEF744F9A8
:102DE000337A84F85E50AB402046002184F83B30B3
:102DF00084F85D50FEF7BCF820460621FEF7B8F8CF
:102E000029462046FEF7B4F820463021FEF7B0F8F8
:102E100029462046FEF728F9337A84F85E50AB4005
:102E20002046002184F83B3084F85D50FEF7A0F87E
:102E300020460A21FEF79CF820460021FEF798F86C
:102E400020461021FEF794F829462046FEF70CF99B
:102E5000337A84F85E50AB402046002184F83B3042
:102E600084F85D50FEF784F820460E21FEF780F8C6
:102E700020460021FEF77CF820460021FEF778F876
:102E800029462046FEF7F0F8337A84F85E50AB40CE
:102E90002046002184F83B3084F85D50FEF768F846
:102EA00020461021FEF764F820463C21FEF760F82A
:102EB00020463C21FEF75CF829462046FEF7D4F870
:102EC000337A84F85E50AB402046002184F83B30D2
:102ED00084F85D50FEF74CF820462221FEF748F8B2
:102EE00020467F21FEF744F820467F21FEF740F878
:102EF00029462046FEF7B8F8337A3627AB40F780EC
:102F00002046002184F83B3084F85E5084F85D5000
:102F1000FEF72EF820462421FEF72AF8204600214D
:102F2000FEF726F839462046FEF722F829462046C5
:102F3000FEF79AF875722846F8BD00BF84F7FF1FA8
:102F40009FED5A7ADFED5A7AE0EE077A2DE9F843E1
:102F5000FCEEE77A064617EE904A002C5BD0802CF8
:102F600026D933790024274663BB524D337A514822
:102F70005B000126002185F83B3085F85E6085F80E
:102F80005D60FDF7F5FF22214A48FDF7F1FF394664
:102F90004848FDF7EDFF21464648FDF7E9FF314679
:102FA0004448FEF761F8B0FA80F04009BDE8F883C4
:102FB000C4F18004337944EA0424C4F30727E4B25B
:102FC000002BD2D0B6F806803A4D337A28F010089C
:102FD00000215B003171A6F806804FF001092846F8
:102FE00085F83B3085F85E9085F85D90FDF7C0FF71
:102FF00028462421FDF7BCFF4FEA18212846FDF79B
:10300000B7FF08F0EF012846FDF7B2FF4946284612
:10301000FEF72AF8AAE7274D037A012717EE901A40
:10302000BB400771284685F83B3085F85E7085F80F
:103030005D70FDF79DFF28462221FDF799FF284688
:103040007F21FDF795FF28467F21FDF791FF394647
:103050002846FEF709F8B6F80680337A48F01008DB
:103060001FFA88F8BB40A6F806802146284685F856
:103070003B3085F85E7085F85D70FDF779FF284676
:103080002421FDF775FF4FEA18212846FDF770FF50
:103090005FFA88F12846FDF76BFF39462846FDF7B1
:1030A000E3FFB0FA80F04009BDE8F8830000014377
:1030B000EE7CFF3E84F7FF1F2DE9F84306460C46E1
:1030C00000295BD0802926D9337900252F4663BBA0
:1030D0004F4C337A4E485B000126002184F83B3088
:1030E00084F85E6084F85D60FDF742FF2221484865
:1030F000FDF73EFF39464648FDF73AFF294644486A
:10310000FDF736FF31464248FDF7AEFFB0FA80F0DA
:103110004009BDE8F883C1F18005337945EA05250A
:10312000C5F30727EDB2002BD2D0B6F80680384C95
:10313000337A28F0100800215B003171A6F8068070
:103140004FF00109204684F83B3084F85E9084F803
:103150005D90FDF70DFF20462421FDF709FF4FEAA2
:1031600018212046FDF704FF08F0EF012046FDF787
:10317000FFFE49462046FDF777FFAAE7244D037A74
:103180000127BB400771284685F83B3085F85E7003
:1031900085F85D70FDF7ECFE28462221FDF7E8FE7C
:1031A00028467F21FDF7E4FE28467F21FDF7E0FE5B
:1031B00039462846FDF758FFB6F80680337A48F0BE
:1031C00010081FFA88F8BB40A6F80680214628465A
:1031D00085F83B3085F85E7085F85D70FDF7C8FEB8
:1031E00028462421FDF7C4FE4FEA18212846FDF7A2
:1031F000BFFE5FFA88F12846FDF7BAFE3946284639
:10320000FDF732FFB0FA80F04009BDE8F88300BF57
:1032100084F7FF1FF8B506460D4619B1012945D0C0
:103220000020F8BD534C037A01275B00204684F848
:103230003B3084F85E7084F85D70FDF799FE2021C4
:103240002046FDF795FE29462046FDF791FE5521C3
:103250002046FDF78DFE39462046FDF705FF002884
:10326000DED1F588337A45F00405ADB25B00F58018
:103270000146204684F83B3084F85E7084F85D7027
:10328000FDF776FE24212046FDF772FE290A20462E
:10329000FDF76EFEE9B22046FDF76AFE394620468C
:1032A000FDF7E2FEB0FA80F04009F8BD314C037A38
:1032B00084F85E505B000021204684F83B3084F89F
:1032C0005D50FDF755FE2A212046FDF751FE2946A7
:1032D0002046FDF74DFE73212046FDF749FE2946A5
:1032E0002046FDF7C1FE0746002899D1337A84F8BD
:1032F0005E505B000146204684F83B3084F85D5008
:10330000FDF736FE20212046FDF732FE39462046E5
:10331000FDF72EFE88212046FDF72AFE294620468D
:10332000FDF7A2FE00287FF47BAFF788337A27F001
:1033300004075B00F7800146204684F83B3084F8A0
:103340005E5084F85D50FDF713FE24212046FDF702
:103350000FFE390A2046FDF70BFE07F0FB01204661
:10336000FDF706FE29462046FDF77EFEB0FA80F006
:103370004009F8BD84F7FF1F70B50021054600F035
:103380002BFEE0B1EB69B3B1012B064618D000F07B
:1033900099FD044670B1021D8023311D05F1200006
:1033A00006F012FA28460022214600F0FBFD2046D6
:1033B00000F0D4FD3046BDE8704000F0CFBD70BDD8
:1033C00028463146002200F0EDFD3046BDE8704051
:1033D00000F0C4BD10B5044600F086FF204610BDC5
:1033E000024A0349034807F021B900BF30D7FF1F45
:1033F000D533000090FAFF1F38B5074D074C084839
:103400002A46214607F012F92A4621460548BDE81A
:10341000384007F00BB900BF30D7FF1FD53300008D
:1034200098FAFF1FA0FAFF1F70B41A4A1A4B1168CE
:103430001A48096912790270994208D2184A12781A
:103440002AB3184A0121116003F5807402E01C467A
:10345000A3F58073144A154912680D68AAB1A5B185
:10346000134E3088402810D841000A444030294487
:1034700002320231308033F9040B22F8020F9C42F1
:1034800033F9020C21F8020FF5D870BC704703F530
:103490008074DFE7B0FAFF1F20CEFF1F1F800040BF
:1034A000AAFAFF1F08E200E0B8FAFF1FACFAFF1FFC
:1034B000A8FAFF1FF8B5064600F004FD0446E8B17F
:1034C00000F000FD054600283AD072B61F4B1A885E
:1034D0007F2A19D8002C31D01D490A6842B162B642
:1034E000204600F03BFD2846BDE8F84000F036BD20
:1034F00018480C601A80056062B6F8BD054672B6C1
:10350000124B1A887F2AE5D9114A124917681460AC
:1035100000220C681A800D6062B63946304600F011
:1035200041FD384600F01AFD30462146012200F0E8
:1035300039FD2046BDE8F84000F010BD62B6F8BD88
:10354000204600F00BFD2C46BFE700BFA8FAFF1F86
:10355000B8FAFF1FACFAFF1FF8B5364D0121284617
:1035600000F024FE00F064FB334B34484FF48062DB
:103570001A602B686FF05F0219781A706FF00F02F3
:1035800059785A7002219A7899704022DC78DA7062
:1035900000221861987D9A7501244FF0FF306FF07A
:1035A0000106197219755E76D97D1A715A715A72AF
:1035B0009A72DA721A735A739A73DA735A751A76A0
:1035C0009C71DC71DC759876D8762979987F9A772A
:1035D00001F18041D87FDC7701F5043106201E7FA0
:1035E00018778C205E7F5A770A70087000F084FD8F
:1035F000134E144B2A79144930701A700B682A79CB
:103600001248134D134E43F0124323430B605311E2
:103610009B00016803F1604302F01F0703F561435B
:103620001032BC4041F01041016045F822601C603E
:10363000F8BD00BFB0FAFF1F14B0044020CDFF1F3B
:10364000AAFAFF1F1B80004080F0024000F00240F9
:1036500000D2FF1F29340000024A0349034806F044
:10366000E5BF00BF30D7FF1FD5330000B0FAFF1F02
:10367000024A0349034806F0D9BF00BF30D7FF1FF5
:10368000D5330000BCFAFF1F2DE9F04F00F5807E16
:10369000B1E8A00AB2E84015C5EA0643C6EA2544E7
:1036A000C7EA0845C8EA2746C9EA0A47CAEA2948D4
:1036B000CBEA0C49CCEA2B4AA0E8F8078645E7D1CB
:1036C000BDE8F04F70474FF000022DE9F00F00F514
:1036D000807C00BFB1E8A00AC5EA0203C2EA254423
:1036E000C7EA0205C2EA2746C9EA0207C2EA294830
:1036F000CBEA0209C2EA2B4AA0E8F8078445E9D1DF
:10370000BDE8F00F70474FF000022DE9F00F00F513
:10371000807C00BFB1E8A00AC2EA0543C2EA050402
:10372000C2EA0745C2EA0706C2EA0947C2EA09082F
:10373000C2EA0B49C2EA0B0AA0E8F8078445E9D1BE
:10374000BDE8F00F70472DE9F00F089C00F5007BF5
:1037500051F8045B53F8046BC5EA0647C6EA2549ED
:1037600052F8045B54F8046BC5EA0648C6EA254AD9
:10377000A0E880078345EBD1BDE8F00F704700BF9C
:103780002DE9F8434FF00008064600F118054746BA
:1037900041463046002F4FD000F01EFCF0B12C689F
:1037A000B4F5803F07F1040100F1040E07F5827CB7
:1037B00027D05EF8042B34FB02F334FB12F903F339
:1037C0000F0209F30F03C2EA03430A6893FA12F3E4
:1037D00041F8043B8C45ECD800F0C0FB08F101082F
:1037E000B8F1040F05F10405D2D1002F40D03046C6
:1037F0003946002200F0D6FB3846BDE8F84300F019
:10380000ADBB07F10C0100F10C0451F8083C54F871
:10381000082C93FA12F341F8083C54F8042C51F8A0
:10382000043C93FA12F38C4541F8043C04F108047B
:1038300001F10801E9D8CFE700F0DAFB07460028DC
:10384000CCD02868B0F5803FC8D0391D07F5827408
:103850000B6830FB03F230FB13F302F30F0203F3A8
:103860000F03C2EA034341F8043B8C42F0D8B5E7AA
:10387000BDE8F883024A0349034806F0D7BE00BFFB
:1038800030D7FF1FD5330000C4FAFF1F024A034997
:10389000034806F0CBBE00BF30D7FF1FD533000072
:1038A000CCFAFF1F2DE9F84F344B35481A683549DB
:1038B00012681B790B70824229D2334B1B784BBBA9
:1038C000DFF8D4A0DFF8D490DFF8D480DFF8D4B0EC
:1038D000DAF80060D9F80070B8F80040BBF8005082
:1038E000002E3BD09FB33A1D311D02EB450201EB88
:1038F0004401FFF7C9FE403540347F2C1BD8A8F89F
:1039000000407F2D0AD8ABF80050BDE8F88FA0F535
:103910008070D5E71D4B01221A60D1E7002438469C
:10392000ABF8004000F01AFB194B1A68C9F80020E8
:103930001C60BDE8F88F00243046A8F8004000F075
:103940000DFB144B1A68CAF800201C60D9E7311D22
:1039500001EB4401FFF7B7FE4034CEE737B1391D24
:1039600001EB4501FFF7CFFE4035C6E739464FF47E
:103970008072BDE8F84F07F05BB900BFD8FAFF1FAF
:1039800020D0FF1F1F800040F0FAFF1F08E200E078
:10399000ECFAFF1FF4FAFF1FE8FAFF1FE0FAFF1F1F
:1039A000D4FAFF1FE4FAFF1F70B50021044600F0AF
:1039B00013FB80B172B61C4A1368002B29D01B4937
:1039C0000D6805B31A4E156000220860328062B699
:1039D000184600F0C3FA2046012100F0FDFA88B134
:1039E00072B6144A1368CBB113490C6874B1134D05
:1039F0001460002208602A8062B61846BDE8704054
:103A000000F0ACBA70BD086062B6E4E7086062B668
:103A100070BD074910600B8062B6DCE70749106093
:103A20000B8062B670BD00BFE8FAFF1FF4FAFF1FFB
:103A3000D4FAFF1FE0FAFF1FECFAFF1FE4FAFF1FA2
:103A4000F8B501215A485B4D5B4C00F0AFFB5B4B76
:103A50005B495C4800222A6022601A6842F40042F6
:103A60001A600A6842F002020A601A6842F0020212
:103A70001A600368002B3BDB534B1B68002B37DBC2
:103A8000524A4FF0804313601368002BFCDB504C0C
:103A90005048DFF890E15049504B514A514F524E37
:103AA000524D4FF2FE0CC4F800C000240460012007
:103AB000CEF80000DFF870E1C1F800E04FF480318B
:103AC00019604B4B1360DFF864E14A4A3A60346096
:103AD00028604948CEF80000484CB9674848494931
:103AE00046F8503C4FF4C0632A61236003600B60CA
:103AF0002F4D454B45494FF4C0621A602B68202278
:103B00001960197C1A746FF00F02597C5A740221E3
:103B10009A7C99744022D87CDA740022987D9A7538
:103B200001244FF0FF306FF00106197119725E73B6
:103B3000D97D5A715A729A72DA721A731A755A7555
:103B40001A765A769A769C71DC71DC759873D87304
:103B5000DA762979987F9A7701F18041D87FDC77EE
:103B600001F5043106201E7F18778D205E7F5A777D
:103B70000A70087000F0C0FA2A79254B254E18709B
:103B800053119B0003F1604302F01F070D49224DC2
:103B9000327002F1100003F56143BC401F4E204A11
:103BA0004FF080770F600E6045F820201C60F8BD54
:103BB000D8FAFF1FE8FAFF1FE0FAFF1F3C8004401D
:103BC0004080044000F0024080F0024000F10240DA
:103BD00004F1024060F0024008F002400CF00240A4
:103BE00010F0024014F00240E0F0024084F0024085
:103BF0001B0F0100000F0F0F0300004708B0044027
:103C00000CB0044018B0044004B0044020CFFF1FA3
:103C1000F0FAFF1F1B80004000D2FF1F0100009040
:103C2000A538000004F002400300000788F00240BD
:103C3000284B29491A68294842F400421A600A6848
:103C400042F002020A601A6842F002021A60036837
:103C5000002B3DDB224B1B68002B39DB214A4FF048
:103C6000804313601368002BFCDBF0B51E4C1F482B
:103C7000DFF8ACE01E491F4B1F4A204F204E214D5C
:103C80004FF2FE0CC4F800C0002404600120CEF8FE
:103C90000000DFF890E0C1F800E04FF480311960D7
:103CA000194B1360DFF880E0184A3A6034602860EE
:103CB0001748CEF80000174CB9671748174946F85F
:103CC000503C4FF4C0632A61236003600B60F0BD79
:103CD000704700BF3C8004404080044000F0024038
:103CE00080F0024000F1024004F1024060F0024026
:103CF00008F002400CF0024010F0024014F00240C4
:103D0000E0F0024084F002401B0F0100000F0F0F93
:103D10000300004708B004400CB0044018B0044051
:103D200004F002400300000788F00240024A034901
:103D3000034806F07BBC00BF30D7FF1FD53300001F
:103D4000D8FAFF1F024A0349034806F06FBC00BFC0
:103D500030D7FF1FD5330000F8FAFF1F024A03498E
:103D6000034806F063BC00BF30D7FF1FD533000007
:103D700000FBFF1F024A0349034806F057BC00BF7F
:103D800030D7FF1FD533000008FBFF1F024A03494D
:103D9000034806F04BBC00BF30D7FF1FD5330000EF
:103DA00010FBFF1F10B50021044600F015F998B173
:103DB00094F8F6308BB194F8F43094F8F520013390
:103DC000342BC8BF0023934207D09A1D04EB820214
:103DD000DBB2506084F8F43010BDBDE8104000F054
:103DE000BDB800BF036A2DE9F04780464BB9D8F84B
:103DF0001830D8F81C2003EBC213C8F81830BDE8FF
:103E0000F08700F05FF806460028F0D0D8F8189048
:103E1000D8F81C70D8F820C0134D4946841C00F512
:103E2000817E0B0E5A1C35F9130035F91220C1F3AF
:103E30000F2ACAF5803300FB03F30AFB023353FB5E
:103E40000CF324F8023FA6453944EAD109EBC71721
:103E50004046C8F818703146002200F0A3F83046FA
:103E6000BDE8F04700F07AB898B20000C029F0B47D
:103E700028BFC02172B6114B114E18600023336069
:103E80007360B360F36033617361012799B15D09B9
:103E900003F01F0456F8252007FA04F401332243E7
:103EA0008B4246F82520F2D10023437001338B4228
:103EB00000F58270F9D162B6F0BC704720FBFF1F9D
:103EC00028FBFF1F70B472B6204B196821B95968DE
:103ED00021B30433202200E000221D4E3478B1FAD1
:103EE00081F54FF00040E8400134E4B221EA0000DF
:103EF0003470186062B6531B03EB83139A00154BA2
:103F00001549186802F5FB531C330122C2540A7884
:103F1000A242184438BF0C7070BC7047996821B930
:103F2000D96829B10C336022D7E708334022D4E79F
:103F3000196921B9596929B11433A022CDE7103389
:103F40008022CAE762B60846E6E700BF28FBFF1FEB
:103F500025FBFF1F20FBFF1F1CFBFF1F427872B6D3
:103F60000378012B03D9013B037062B6704770B42C
:103F700056110A4D0A4C55F826102378D2434FF0BB
:103F8000004002F01F0220FA02F21143013B45F803
:103F90002610237062B670BC704700BF28FBFF1F5D
:103FA00025FBFF1FC368B3B130B401E0DB688BB100
:103FB000187A9042FAD158685C7A006950F8245017
:103FC000002DF3D140F82410087801300870DB6828
:103FD000002BEDD130BC7047437A8B4206D9036980
:103FE000002253F8210043F8212070470020704739
:103FF000F8B5437A8B4247D9026952F82150002321
:1040000042F82130002D3FD02A78012A37D972B6E4
:1040100029490A685AB30C46284F3978B2FA82F611
:104020004FF00040F0400131C9B222EA000039707F
:10403000206062B69B1B03EB83139B002048214A40
:10404000006803F5FB531C330124C45416788E42D8
:1040500000EB030400D211704FF48072291D201D63
:1040600000F01EFC20462B78013B2B70F8BD4A68FF
:104070003AB98A6852B101F108044023CCE72846D6
:10408000F8BD0C1D2023C7E70020F8BDCA682AB977
:104090000A693AB101F110048023BDE701F10C0473
:1040A0006023B9E74A691AB101F11404A023B3E708
:1040B00062B61046D7E700BF28FBFF1F25FBFF1F96
:1040C00020FBFF1F1CFBFF1F4368427A5B7A9A426A
:1040D0000ED872B60168CA680AB90AE01A46D368EF
:1040E000002BFBD1D060426801230B72137262B6C1
:1040F0007047C860F7E700BF084B1A785AB90848FC
:10410000084910B4D0240470012210460A601A70C5
:104110005DF8044B70470020704700BF24FBFF1F71
:1041200040E400E008E100E01A491B4A1B48F8B5EA
:104130000B681B4D046843F080730B60136843F0F9
:10414000010313602E6814B915E064699CB1237AE9
:10415000002BFAD023682F681B68204698472B68ED
:10416000E188DB1B1B099AB28B42A28088BFE280E8
:104170006469002CEBD10A4B0A4A1B6810880A4C70
:104180009B1B1B0999B28342218001D91180F8BD84
:10419000F8BD00BFFCED00E0001000E018FBFF1FC1
:1041A000041000E026FBFF1F40FBFF1FF0B572B6B6
:1041B00099B904688CB102790F2A0ED843490B884B
:1041C00043FA02F5EF070AD502F1007202F5906298
:1041D000B4EB421F03D162B6F0BD3C490B8813F02B
:1041E000010226D09E0757D55D0757D51C0757D526
:1041F000DA0657D59F0657D55E0657D51D0657D503
:10420000DC0557D59A0557D55F0557D51E0557D5F7
:10421000DD0457D59C0457D55A0409D5DA0B08BFDD
:104220000F2206D062B60022102302600371F0BD97
:104230000E220124944023430B8062B6244E254D68
:10424000DFF89CE0244FDFF89CC0D1B201713468E4
:1042500044F00204346002F100732A681F4CA6F592
:10426000802642F0020203F59063283E2A605B013B
:1042700040F28242CEF80020397000228CF8001003
:104280003170217003601A605A609A60DA601A61B6
:104290005A619A61DA61F0BD0122CAE70222C8E7D9
:1042A0000322C6E70422C4E70522C2E70622C0E7CC
:1042B0000722BEE70822BCE70922BAE70A22B8E7CC
:1042C0000B22B6E70C22B4E70D22B2E742FBFF1F38
:1042D000408004403C8004401A8000401F80004021
:1042E000008000401E80004003790F2B12D80A4A3C
:1042F00010B4137072B6094904790A880123A340E7
:1043000022EA03030B8062B6102200235DF8044BFF
:1043100002710360704700BF1A80004042FBFF1F1C
:10432000F8B572B106460F4614460025336817F8F3
:10433000011B1B6830469847013C0544F6D12846CE
:10434000F8BD1546FBE700BFF0B500298BB0044669
:104350001BDB5AD130238DF825302368354A5F683E
:1043600097424AD100250DF125010E460D44002744
:1043700001E0236801361B68317820469847B54232
:104380000744F6D138460BB0F0BD2B4B4942A3FB96
:104390000123DB0803EB8302A1EB420130318DF8EE
:1043A0002510002B44D02D26234D2122A5FB0301EF
:1043B000C90801EB8100013AA3EB4003D2B20AA87D
:1043C0001044303300F8243C0B460029EED15EB394
:1043D000551EEDB20AAB2B442D2203F8242CC5F157
:1043E00022002368134A5F6801A99742294407D134
:1043F000C5F121050028B8D1C5E701200DF125013F
:1044000002462046B8470BB0F0BD0B4BA3FB01237F
:10441000DB0803EB8302A1EB420230328DF825204A
:10442000002B9AD00026BFE71546C2F12200D8E73C
:104430002122CDE721430000CDCCCCCC30B50368A0
:104440000D490E4A5C68098883B09442ADF80410A7
:104450000DD105461B680D2198472B689DF8051066
:104460001B68044628469847204403B030BD01A984
:104470000222A04703B030BDE4B400002143000095
:104480002DE9F04F57EC106B8DB005468A4610EEC3
:10449000102A3B4610EE100A394606F041F8002873
:1044A00040F04A8127F00049304649464FF0FF323C
:1044B000B54B06F035F8F0B9304649464FF0FF32BB
:1044C000B14B06F00FF8B0B92B68B04A5C68944263
:1044D00040F02481AE4E0446F71C00E02B6816F82D
:1044E000011B1B6828469847BE420444F6D120466B
:1044F0000DB0BDE8F08F4FF06042A64B3046394614
:1045000006F004F80446002840F0E4804FF06042D2
:10451000A14B3046394605F0DBFF002840F0C8804B
:10452000002200233046394605F0D2FF002840F033
:10453000E780044600209949BAF1000F0CD04FF0F3
:1045400000088FA3D3E9002308F1010805F04EFD10
:104550005FFA88F39A45F4D802460B46304639464E
:1045600005F092FBCDE9000105F0F0FF814600283F
:1045700000F099808A49A1FB0023DB0803EB83024A
:10458000A0EB420230328DF82D20002B00F0ED80A0
:104590008E462120AEFB0312D20802EB82010138C5
:1045A000A3EB4103C0B20CA90144303301F8243C11
:1045B0001346002AEED134B10138C0B20CAB03442B
:1045C0002D2203F8242C2F68DFF8C0817B6803AA12
:1045D000434502EB0001C0F1220240F09680C0F199
:1045E0002100002A00F0A0808B460C18002602E073
:1045F0002F680BF1010B3B689BF800102846984789
:10460000A3450644F4D13446BAF1000F3FF46FAF2E
:104610002E2348468DF80C3005F072FC02460B46FE
:10462000DDE9000105F02EFBBAF10F0F28BF4FF0B6
:104630000F0A0AF1010A5FFA8AFA4FF00109002213
:10464000584B05F0D3FC0F46064605F07FFF0CAB38
:104650004B44C0B200F1300203F8242C05F060FC9A
:1046600009F1010902460B465FFA89F930463946DD
:1046700005F008FBD145E2D12B685E68464548D17C
:10468000A9F1020903AE02E02B6809F1FF391B68AA
:1046900016F8011B28469847B9F1FF3FF4D1204690
:1046A0000DB0BDE8F08F30238DF82D30212082E74A
:1046B0002B68364A5E68964251D13B4EF71C00E0AB
:1046C0002B6816F8011B1B6828469847BE42044415
:1046D000F6D10CE72B682D4A5C68944226D1324E05
:1046E0000024F71C00E02B6816F8011B1B68284605
:1046F0009847BE420444F6D120460DB0BDE8F08F85
:1047000007F100431F46012414E728469847044652
:104710007AE74A4603A92846B047E8E62846032236
:104720001B49A0470446E2E614466DE728460322EB
:104730001D49A0470446DAE62B68144A5C68944297
:1047400015D11A4E0024F71C00E02B6816F8011B47
:104750001B6828469847BE420444F6D1C7E628465F
:1047600003221149B0470446C1E6212023E7284629
:1047700003220E49A0470446B9E600BFAFF300800C
:10478000000000A09999B93FFFFFEF7F214300008F
:10479000ECB40000FFFFEF41FFFFEFC10000E03F7E
:1047A000CDCCCCCC00002440F0B40000E8B4000034
:1047B00030B42948294A2A4B2A4D6024E12104704B
:1047C00011701B78284C082B30D00A2B2748284919
:1047D00037D00C2B0CBF35225D2212232A602360B8
:1047E00002600B60234B24491B78244ABBB1012390
:1047F0000B601360224B23491B78234A012B26D9D7
:10480000042B0FD9082B1ED9102B94BF8623872386
:104810000B6013601D4B01221A7030BC70470B6097
:104820001360E7E784230B601360F3E700F58E2045
:104830000F490830212213232A60236002600B6095
:10484000D0E73922F7E785230B601360E2E7802386
:104850000B601360DEE700BF0040074001400740E7
:10486000A8D7FF1F08B003400CB0034008B00B40AE
:104870000CB00B4045FBFF1F20B0034020B00B40A5
:10488000A9D7FF1F24B0034024B00B4044FBFF1FF7
:1048900008B5FBF72FFEFBF7C9FE01F01DFCFAE798
:1048A000844641EA000313F003036DD1403A41D33B
:1048B00051F8043B40F8043B51F8043B40F8043BFA
:1048C00051F8043B40F8043B51F8043B40F8043BEA
:1048D00051F8043B40F8043B51F8043B40F8043BDA
:1048E00051F8043B40F8043B51F8043B40F8043BCA
:1048F00051F8043B40F8043B51F8043B40F8043BBA
:1049000051F8043B40F8043B51F8043B40F8043BA9
:1049100051F8043B40F8043B51F8043B40F8043B99
:1049200051F8043B40F8043B51F8043B40F8043B89
:10493000403ABDD2303211D351F8043B40F8043B29
:1049400051F8043B40F8043B51F8043B40F8043B69
:1049500051F8043B40F8043B103AEDD20C3205D339
:1049600051F8043B40F8043B043AF9D2043208D031
:10497000D2071CBF11F8013B00F8013B01D30B88A3
:1049800003806046704700BF082A13D38B078DD081
:1049900010F003038AD0C3F10403D21ADB071CBF53
:1049A00011F8013B00F8013B80D331F8023B20F8BD
:1049B000023B7BE7043AD9D3013A11F8013B00F8F6
:1049C000013BF9D20B7803704B7843708B7883707E
:1049D00060467047024A136801331360704700BF96
:1049E00048FBFF1F08B5104C08E0236859050DD49B
:1049F00023681A050FD42368DB0411D423685803F5
:104A0000F3D500F091FB23685905F1D502F010FBB6
:104A100023681A05EFD502F0B7FE2368DB04EDD555
:104A200003F0C0F9EAE700BF3480044008B5FFF79F
:104A3000D9FF00BF014B10221A80704700200540AB
:104A4000704700BF094908B50B6830B16A46184481
:104A5000A2F50052904202D20860184608BD05F047
:104A6000F1FD0C2303604FF0FF3008BDACD7FF1FF2
:104A7000FEE700BFEFF3138070B9EFF310836BB95B
:104A8000EFF305825AB94FF48070EFF311832BB125
:104A9000984228BF184670474FF0FF3070470F2AE2
:104AA00001D81846F1E7014BD05CEEE7F0E300E0F7
:104AB000084A1378802B01D0002070470649074B25
:104AC00007480860002119701378802BFCD0012062
:104AD000704700BF03E007404480044001E0074006
:104AE00000002822094A1378012B01D000207047CA
:104AF00003F1804303F5FC23602119701378802BA8
:104B0000FCD1034B034A1A600120704703E00740C1
:104B1000448004400000060205F0C2BDF0B44D1E02
:104B20002E46002400E00134B0FBF2F302FB130038
:104B3000092800F130078ABF3730F8B2C0B206F852
:104B4000010F1846002BEED10A1953704CB11078A2
:104B500015F8016F28700133E01A834202F80169E9
:104B6000F5DB0846F0BC704730B4054B054D064CEC
:104B7000002210211A602A602060196030BC704742
:104B800014D0034004D0034000D003402DE9F84383
:104B90008F4B9048DFF870C28F4C9049DFF86CE281
:104BA0008F4E904D904F4FF000621A604FF0805240
:104BB0001A604FF000521A604FF080421A604FF0B6
:104BC00000421A600022026028234EF6FF70CCF8E3
:104BD0000000CEF8003023600EF5012E0B6033602C
:104BE0002B6006F500263B6005F50025A36207F55E
:104BF00000278B6204F5012401F5012106F6E87611
:104C000005F6E87507F57F6710310EF1100E2034B8
:104C100033602B60CEF800303B600B602360734C38
:104C2000BB618B6109212160A7F5002704F5805441
:104C3000203F08343A602060BB60E36047F8041C02
:104C400004F5FD2407F5FE27043704F2FC74226006
:104C50003860A360FB6044F8041C083404F6FC745C
:104C6000C7F8FC2F2060A4F5E124A4F2DC743360C3
:104C70002B60C7F8F81F21685D4841F4007121607E
:104C800001685C4C0EF57F4E0EF1E80E07F5883793
:104C900006F5803605F5803541F000710160CEF8EB
:104CA000002047F6FF710822396033602B602260D4
:104CB000FFF77EFD72B6504C504B514A1B68256879
:104CC000126862B6510102D5322B88BF0135C3F597
:104CD0002F3303F21F334B4FDFF82091DFF8208191
:104CE0009B084FF47A72A7FB031302FB05F505EB53
:104CF0009305322672B6D9F800102268D8F800E081
:104D000062B6C1F52F3303F21F339B08A7FB0303E1
:104D10001EF0806FC5EB93034FF47A7002D03229F6
:104D200088BF013200FB0233B3F57A7F04D3013E22
:104D300005D005F57A75DDE701F0CEF9DAE700F088
:104D40004BFF72B62D4B2E4A1B682568126862B65F
:104D5000520102D5322B88BF0135C3F52F3303F240
:104D60001F33284FDFF89490DFF894809B084FF4AE
:104D70007A72A7FB031302FB05F505EB93054FF4CD
:104D8000AF7672B6D9F800102268D8F800E062B6A3
:104D9000C1F52F3303F21F339B08A7FB03031EF05B
:104DA000806FC5EB93034FF47A7002D0322988BF2D
:104DB000013200FB0233B3F57A7F04D3013E05D004
:104DC00005F57A75DDE701F087F9DAE7BDE8F883E4
:104DD00004E100E004800340148003401C80034091
:104DE000248003402C800340348003400080034033
:104DF0000480044000900C4048FBFF1F18E000E0D6
:104E000004ED00E0176CC116088003400C800340DD
:104E10003F280CD810B40F4B53F8302092F8804242
:104E200034B1012379B182F880305DF8044B7047CA
:104E300003EBC00043681A6841B922F002021A600D
:104E40005DF8044B704782F80031F9E742F0030245
:104E50001A60F5E7F4B400003F2820D81B4A02EBA3
:104E6000C00301295B680FD004291DD052F830001F
:104E7000002280F8802299B1022922D003290DD185
:104E80004FF481721A60704752F830004FF4A272EA
:104E900080F880121A601A6822F020021A607047A7
:104EA0004FF480721A60704752F830104FF4A272BB
:104EB000012081F880021A601A6842F020021A600C
:104EC000704740F203121A60704700BFF4B400004C
:104ED0002DE9F843054672B6224F234B234A1B683F
:104EE0003C68126862B6520102D5322B88BF013489
:104EF000B5B3C3F52F3303F21F331D4EDFF86890AF
:104F0000DFF868809B084FF47A72A6FB031302FB5C
:104F100004F404EB930472B6D9F800103A68D8F898
:104F200000E062B6C1F52F3303F21F339B08A6FBE6
:104F300003031EF0806FC4EB93034FF47A7002D02A
:104F4000322988BF013200FB0233B3F57A7F04D3E4
:104F5000013D05D004F57A74DDE701F0BDF8DAE72C
:104F6000BDE8F88348FBFF1F18E000E004ED00E017
:104F7000176CC116431E032B14D872B60A4951F898
:104F8000230068B170B4094C058834F813204668D2
:104F900041F82360521B24F8132062B670BC70479E
:104FA00062B6704700207047A4FBFF1FF0FFFF1F91
:104FB000013803280BD872B6074B53F8203043B1A1
:104FC00000205B680130002BFBD162B670470020E7
:104FD00070471846F9E700BFF8FBFF1F30B472B600
:104FE0002B4A13781D0706D52A4B196A002936D09B
:104FF000996A002941D053781C0706D5254B196CB6
:1050000000293ED0996C002939D09378190705D52D
:10501000204B196E002936D0996E89B1D3781B07C1
:1050200007D51C4BD3F880207AB3D3F88820112100
:105030003AB162B6184B00221A7030BC00F08EBE36
:105040000D21154C154D227843F8315003EBC10367
:105050000830013A5860227062B630BC70470422B2
:105060000D4C0F4D217843F8325003EBC20308304A
:105070004A1E5860227062B6EFE70521E1E7092178
:10508000DFE70822ECE70C22EAE71022E8E700BF9E
:1050900058B900000000FF1F21FCFF1FC80040009E
:1050A00088004000431E032B1DD81B4A400140F0DE
:1050B000100030B4104472B6184CE25C032A1BD8BE
:1050C000DFE802F00212151703220D88E25410F0F7
:1050D000080F14BFC823882343EA0543083103603F
:1050E000416062B630BC704708300222EDE705220D
:1050F000EBE708300422E8E7094A52F8230038B108
:10510000084A52F82300416042F8231062B6E9E7EA
:1051100042F82310034AF7E70000FF1F30FCFF1F8F
:10512000F8FBFF1F08FCFF1F2DE9F04FDFF808B365
:10513000DFF808A387B044E0AA4F4FEA930807EBD3
:10514000C809013ED9F8042003F00803F6B2A2F121
:10515000080003F0FF04002B40F0008157F83830BE
:105160001B0C99B222F8081C002B00F0EE809E4B1D
:1051700022F8064C42F8044C53F82620002A00F08E
:10518000C3829A4D55F826305860994C45F8260050
:1051900034F81630194424F8161000F0BFFD00282A
:1051A00000F0AB82934A944B19F0080F00F108000D
:1051B00018BF1346C9F8040047F8383008238BF8A5
:1051C00000309BF80040E4B261071AD58B4B1B7886
:1051D000A3B18B490A7802F0FF0322B1013BDBB295
:1051E0000B7003B900BE87490A7802F0FF032AB1A9
:1051F000013BDBB20B70002B00F0558204238BF8CF
:10520000003004F0080303F0FF02002B00F0CA8016
:105210009AF80030DBB21E098ED19C08DFF8C491E9
:1052200059F8342009EBC401C2F38302013A4968FA
:105230000C2A00F28680DFE802F07A7A8484848483
:10524000848445848484070008686F4D4A686F4FE2
:105250006F4E286081B240F28160664B6A604FF009
:10526000010E0022814249F834303A60C9F810201A
:10527000C9F8182086F800E05A4C00F2E180B1F538
:10528000D06F80F04483B1F5817F00F0FA8200F2A4
:105290008B82802900F07583822940F0F882A988EA
:1052A000042900F2F4825B485B4C890008442270B8
:1052B00062700278930740F1558484F800E04FF063
:1052C000020E42E3514F3A6832B3544B504E5449A8
:1052D000188834780D784028864645F0020828BFA3
:1052E0004FF0400E002C84F001043470CEEB00002F
:1052F0000CBF8824C82409EBC80680B285F00105DC
:1053000044EA0E447260188049F8384072440D70C7
:10531000002800F045813A603B4B1A88B2F5A06F37
:105320000FD100219A7859703E4B1A7009E0364A25
:10533000108842F22102904200F037812D4A49F84C
:105340003420394A0123137038E72A4A2A4B19F0CE
:10535000080F18BF134647F838302FE700F0FEFC5F
:10536000324A334952F82630002B00F0D181586878
:105370008C5D42F8260003F10802C9F80420032CD2
:1053800005D8DFE804F02C02292602228A551A8863
:1053900019F0080F0CBF8823C82343EA024347F8DB
:1053A00038300BE7E00700F18181210600F1F2813E
:1053B000A20706D51F4A204913780220DBB21370DA
:1053C0000870E30602D51C4B10221A7007B0BDE826
:1053D000F08F04228A55DAE705228A55D7E703229F
:1053E0008A55D4E70000FF1FA4FBFF1F50FBFF1FDF
:1053F000F0FFFF1FC8004000880040002CFCFF1F8A
:10540000B5FBFF1F44FCFF1F18FCFF1F4CFBFF1FD9
:10541000B4FBFF1FC020074024FCFF1F60FBFF1FE1
:1054200020FCFF1F9820074094200740F8FBFF1F37
:1054300030FCFF1F88200740802007409020074055
:1054400042F22100814200F02A8100F2D880B1F5B9
:10545000086F00F07682B1F5106F40F01882226A72
:10546000B349A8780870120600F13783D9F82820CC
:10547000B049130600F12C83D9F83020AD49150648
:1054800000F1FF82D9F83820AA49140600F1F4820D
:10549000D9F84020A749100600F14783D9F84820E1
:1054A000A449120600F13C83D9F85020A149130603
:1054B00000F13183D9F858209E49150600F1268362
:1054C000D9F860209B49140600F11B83D9F86820A5
:1054D0009849100600F11083D9F8702095491206FA
:1054E00000F10583D9F878209249130600F1FA8279
:1054F000D9F880208F49150600F12E83D9F888202D
:105500008C49140600F12283D9F8902089491006AD
:1055100000F11683D9F898208649120600F10A8313
:105520008548864A864901908648874C874D029473
:1055300000230497059680461C460F4616460395A1
:10554000306828B1456800F009FC2846002DF9D1E3
:1055500000233360039B38681A46002342F8243046
:1055600028B1456800F0FAFB2846002DF9D1002249
:105570003A60019A98F800301146002241F8042B55
:10558000029A0191023B4FF0000122F81410032B04
:1055900000F22B81DFE813F0700125017001250175
:1055A000BEF1400F18BF0022B5E6694A0D78487871
:1055B000157050708D78C8789570D07010680D791E
:1055C000157186284D7989795571917100F09B810B
:1055D0006049614E0A78307882F00105002842F077
:1055E00002020D700CBF8821C82149F8321009EB66
:1055F000C20280F001000021307051609EE642F24C
:105600002120814240F0CB81544B554C5549A8781C
:105610001D682560CDF804E00870002002908046E7
:10562000844604464B490D7845F0020E09EBCE0343
:105630000393019B002B039B5C600CBF8824C82450
:1056400044EA080385F0010449F83E3032700C70DA
:10565000DFF8E0E0404BDFF8FC80002840F01E81DE
:10566000BCF1400F1BD144F0020C09EBCC03029CAF
:10567000DFF8C0E05C60002A40F02681020442F0BE
:1056800088029DF804304EF83C20044433700D70BD
:105690002346402803D10020334A3B601080334A20
:1056A000012313704DE600F0F3FCA7E5214B2F48D2
:1056B00028491A614FF0020E80F800E02C4F0A7062
:1056C0002C49196099602C4E2C4D2D4C9A610D215E
:1056D0003970FF213170DFF8B8E029702270294D50
:1056E000294A8EF800109F27012406F8047C5D608B
:1056F0000470DA6007B0BDE8F08F244A47F838003C
:1057000013780133137059E543F826000F4D3CE53B
:105710008B5D032B00F2F08001A252F823F000BF52
:10572000BD510000BD510000DD570000D7570000FB
:105730002CFCFF1F0000FF1F08FCFF1FA4FBFF1F26
:10574000F8FBFF1F30FCFF1FF0FFFF1F50FBFF1F88
:10575000F8FFFF1F20FCFF1FB4FBFF1F48FBFF1FCC
:105760000000002054FCFF1F60FBFF1F9420074037
:10577000C020074088004000882007408020074064
:105780009820074064FBFF1FB8FBFF1F21FCFF1F91
:105790008C200740BD49BE4B80220D2008701A7036
:1057A000A2077FF50EAE05E640F20232914240F0CC
:1057B000EE80A98801F07F01042968D86A88002A50
:1057C00065D1B248CDF804E089000844017841F081
:1057D0000201017021E701238B55EFE400238B5573
:1057E000ECE44FF0010388F800300134042C06F19A
:1057F000040607F1040708F101087FF4A1AEA54CE7
:10580000A54B2278A54D049F059E002129701A7092
:10581000130700F105816278A149DFF890820A70D0
:1058200010074FF00001C9F83010C9F8381000F126
:10583000E1809C49A2780A700021C9F85010C9F88B
:1058400058101107DFF8648200F10081E278964970
:10585000964C0A7000211207C9F87010C9F8781028
:1058600000F1B08033780193002183F00102C9F880
:105870009010C9F89810D0E64FF0000388F8003077
:10588000B3E7A98801F07F01042940F28D807F4AA7
:105890000F231370864A0123137052E540287FF6C8
:1058A000E2AE44F002040EEBC401029E4E60BAB1B7
:1058B0009DF804107F4A19703346403888F800502C
:1058C00040334EF83420E7E69DF80430337002048C
:1058D000029B0D7042F0C80203444EF83C20D8E60B
:1058E0009DF804101970029B734A88F800504038E4
:1058F00040334EF83420CFE619F0080F0CBF0223D6
:1059000003238B555AE46D4A0F21117060E66C4AEF
:105910005468002CBBD06888B5F804E003E00C3272
:105920005468002CB3D013888342F8D15388734550
:10593000F5D1000A03280CBF94F800E0B2F808E0A3
:1059400003E0604A604C12782270E888704580F06D
:1059500031815E490D784028844645F0020E28BF0B
:105960004FF0400C04EB0C0309EBCE020293012331
:105970005460CCEB00004FEA0C4800220193C8248D
:105980005EE6514C4FF0020E22706270DDE7B1F519
:10599000A06F7FF47CAF0123002201933DE642F229
:1059A00021329142F7D072E76A88002A7FF46FAF04
:1059B0003648CDF804E089000844017821F002015E
:1059C00001702AE600F0AAF9002800F0E68008300D
:1059D000C4F884003848C9F8800000F09FF9334AC1
:1059E000002800F0D48008303249C2F88C00C2F898
:1059F000881037E700F092F9002800F0BB800830EB
:105A0000C8F844002C48C9F8400000F087F9274A3C
:105A1000002800F0AA8008302649D064916408E785
:105A200000F07CF9002800F0C1800830C9F824009B
:105A30002148C9F8200000F071F91C4A002800F044
:105A4000B08008301B49D0629162E4E600F066F94C
:105A5000002800F098800830C8F864001648C9F89B
:105A6000600000F05BF9114A002800F087800830E0
:105A70001049D0669166E9E6C86B083800F06EF907
:105A800006E5486B083800F069F9FBE4C0200740E0
:105A90008020074058B90000C420074021FCFF1FA8
:105AA000C8200740CC200740D02007400000FF1F3F
:105AB00094200740C800400088004000B5FBFF1F4D
:105AC0005CB900002CFCFF1F24FCFF1F20FCFF1F03
:105AD000C86A083800F042F9CEE4606A083800F07D
