:1000000000000320D10100006D43000025430000E3
:100010002543000025430000254300002543000040
:100020002543000025430000254300006D430000E8
:100030006D430000254300006D43000015430000A0
:100040006D4300006D4300006D4300006D430000F0
:100050006D4300006D4300006D4300006D430000E0
:100060006D4300006D4300006D4300006D430000D0
:100070006D4300006D4300006D4300006D430000C0
:100080006D4300006D4300006D4300006D430000B0
:100090006D4300006D4300006D4300006D430000A0
:1000A000F90D00002D0F00006D4300006D430000AE
:1000B0006D4300006D4300006D4300007169000056
:1000C0006D430000C97000006D430000E57600003C
:1000D0006D430000957D00006D4300006D430000FE
:1000E0006D4300006D4300006D4300006D43000050
:1000F0006D4300006D4300006D4300006D43000040
:100100006D4300006D4300006D4300006D4300002F
:100110006D430000694A00006D4300006D4300001C
:100120006D4300006D4300006D4300006D4300000F
:100130006D4300006D4300006D4300006D430000FF
:10014000993D00006D4300007D8300006D43000079
:100150006D4300006D4300006D4300006D430000DF
:100160006D4300006D430000611000006D4300000E
:100170006D4300006D4300006D4300006D430000BF
:100180006D4300006D4300006D4300006D430000AF
:100190006D4300006D4300005D8A00006D43000068
:1001A0006D4300006D4300006D4300006D4300008F
:1001B0006D4300006D4300006D4300006D4300007F
:1001C0006D4300006D4300006D4300006D4300006F
:1001D0005C4B4CF2205210B51A804DF628121A8052
:1001E00000BF00BF04F0C6F8574B4FF030621A60F2
:1001F000564A9A60564ADA60564B4FF470021A60BB
:10020000554B564A1A60564A136813F4807304D14A
:1002100054490B604FF4A8531360534B1A781107DD
:1002200003D51A7842F008021A70504B5049AA229E
:100230001A70504A504B8B4204D252F8040F43F8C4
:10024000040BF8E74D4B4E4900228B4202D243F893
:10025000042BFAE74B494C4A002352F8230041F89B
:1002600023000133742BF8D1484B494A802103F80D
:10027000011B9342FBD1474B424A1A60464B8A22EC
:100280001A70A3F5805324225A70A0221A709A790A
:100290009207FCD59A79D406FCD4404A937903F0AE
:1002A0000C03082BFAD13E4B60221A7002331A78E5
:1002B000802AFCD1394B01221A715D225A719A7938
:1002C0009006FCD59979354A4906FBD5354B364918
:1002D00019600021596020231370937903F00C03F7
:1002E0000C2BFAD1314B324A1A60324B324A1A6027
:1002F00000225A60072243F8042C304AC3F80C2D20
:1003000062B604F0E3F8174B1B68DA0705D52C48F2
:1003100004F0CAF82B4B2C4A1A602C4B1B785B0656
:1003200009D5284C284B22689A4204D1244804F06D
:10033000BBF80023236009F0DDFD04F021F803F091
:1003400047FFFEE70E20054030800440823F040056
:100350000100002B88ED00E0002008E0030000858C
:1003600010D0034014D0034002D0074000E0074003
:1003700034E0FF1FCCB0000030D7FF1F34E0FF1F78
:10038000F4F7FF1F00D2FF1F0000000000E400E0B0
:1003900064E400E008ED00E0005006400040064044
:1003A00001E007404480044000000602048004404D
:1003B000C010070014E000E01FBF02000000202072
:1003C00072D4F65A1CE00340A5C3945A00F00740CB
:1003D000FFFFFFFFFFFFFFFFFFFFFFFFFFFFFFFF2D
:1003E000FFFFFFFFFFFFFFFFFFFFFFFFFFFFFFFF1D
:1003F000FFFFFFFFFFFFFFFFFFFFFFFFFFFFFFFF0D
:10040000FFFFFFFFFFFFFFFFFFFFFFFFDEF9FFFF23
:1004100010B5054C237833B9044B13B10448AFF33E
:1004200000800123237010BD34E0FF1F0000000096
:10043000D0B00000084B10B51BB108490848AFF315
:1004400000800848036803B910BD074B002BFBD0A0
:10045000BDE81040184700BF0000000038E0FF1F53
:10046000D0B0000034E0FF1F0000000010B50446CB
:100470000AF0A6F801462046BDE8104005F09AB9FA
:1004800038B5044608460D460AF09AF82368024635
:1004900029465B68204698470546204603F006FE3D
:1004A000284438BD002310B4104C4172026104602E
:1004B0000372C36041B1194600E0026942F823109B
:1004C000427A01339A42F8DC094B1A680AB90BE008
:1004D0001A465369002BFBD150610023436183808E
:1004E000C3805DF8044B70471860F6E7FCA9000074
:1004F00004F3FF1F70B5334A33491068334C344E50
:1005000082B00B783BB123789B0704D01368356821
:100510005B1B182B04D813681B1AB3F57A7FF0D92C
:100520002C4C2D48C82103F0D9FA204602F036F9A8
:100530005A21204602F0C8FB20465522202102F015
:10054000D1F838B1E28842F0040292B22046242168
:1005500002F0C8F80F2211461E48204C02F0EEF8B7
:100560001F4A204BE26149F69911012A99611AD874
:100570001D4A1E491E4B1F4891ED000A0262012AC6
:10058000198806D81C4B4FF480329A61DA6102B0A8
:1005900070BDC829F6D88023009300F13C032430B5
:1005A00008F07EFDEEE780230093382104F12C0350
:1005B00004F1200009F014F80028D9D00023E361E9
:1005C000D6E700BF34F3FF1F18F4FF1F40F4FF1FEE
:1005D000ECF7FF1FF0EAFF1F0002FF1F40E2FF1FC2
:1005E00000AA000024ECFF1F4CE1FF1F34D7FF1FBF
:1005F00038D7FF1F7CE5FF1F40EEFF1FF0B56C49A9
:100600006C486D4D6D4FADF6040DFFF739FF40F6A8
:10061000C41004F0FDF86A4B2C681E6A24333B605A
:10062000002C00F0B78020688022694608F002FCA8
:100630006068802280A908F0FDFBA06880220DF58B
:10064000806108F0F7FBE06880220DF5C06108F0DA
:10065000F1FB5C48FFF70AFF5B495648FFF710FFC4
:10066000ADF102040DF1FE0534F9021F514803F00B
:10067000A3FC0221554805F09DF8A542F4D1544948
:100680004C48FFF7FDFE5348FFF7F0FE4E4949483E
:10069000FFF7F6FE0DF5FF740DF2FE2534F9021F8B
:1006A000444803F089FC0221484805F083F8A5423C
:1006B000F4D147493F48FFF7E3FE4748FFF7D6FE2E
:1006C00041493C48FFF7DCFE0DF2FE340DF2FE45D9
:1006D00034F9021F374803F06FFC02213B4805F054
:1006E00069F8A542F4D13A493248FFF7C9FE3B48C0
:1006F000FFF7BCFE34492F48FFF7C2FE0DF2FE544F
:100700000DF2FE6534F9021F2A4803F055FC022160
:100710002E4805F04FF8AC42F4D12D492548FFF79B
:10072000AFFE3B68314698681A8808F083FB2C4876
:10073000FFF79CFE24491F48FFF7A2FE3B681B8879
:100740007BB1023E002436F9021F1A4803F034FC44
:1007500002211E4805F02EF83B681B880134A34295
:10076000F1DC1B491348FFF78BFE1E4B186800F0A5
:100770000BFA1D4B186800F007FA1C4B186800F0C4
:1007800003FA1B4B186800F0FFF91A4B186800F0C9
:10079000FBF9FEE7142003F05FFE034604604460AB
:1007A0008460C460046128601C4600203CE700BFF0
:1007B00070AA000020F4FF1F3CEEFF1F48E1FF1F5E
:1007C0007CE5FF1F78AA00007CAA000084AA000034
:1007D00088AA00008CAA000090AA000094AA000039
:1007E00098AA00003CEDFF1FE8EAFF1F40EDFF1F45
:1007F000ECEAFF1F3CE2FF1F2DE9F04FDFF8088312
:10080000B34EB44BD8F800203360002383B073722A
:1008100033613372F36011460AB953E119464B69EB
:10082000002BFBD14E611346AB4CAC4A2088AC493F
:100830003160013000212080F06151727161B1801E
:10084000F180B16111611172D16000E023465C69F1
:10085000002CFBD1DFF800A35A61A249A24B9F48AC
:1008600054619480D4800093116002F07DFC0AF101
:10087000180201215046FFF715FE009B9B49DFF847
:10088000DCB2CAF8001003F1180218460121CAF8B8
:100890001C40FFF707FE009B954F83F8F4400BF1D7
:1008A00018020121584683F8F540C3F8F0401F6054
:1008B00083F8F640FFF7F6FD8E4B8BF8F44003F11A
:1008C0001802184602218BF8F540CBF80070CBF8DF
:1008D000F0408BF8F640FFF7E5FD864B86491C6239
:1008E000864BDFF87C92864D03F128021846814B37
:1008F00019600421FFF7D6FD804B824A1A604FF43D
:1009000080319961D9611962596209F11802012196
:100910004846FFF7C7FD02206E4B89F8F44005F109
:10092000180189F8F5402B6068722246C9F80070FA
:10093000C9F8F04089F8F6402C72EC602961204635
:10094000AE46009B01E0DEF8101041F82200697A03
:100950006B4C01329142F6DCD8F800106A4A09B9B2
:10096000B4E011464A69002AFBD14D61DFF8F481F9
:10097000664A6348019300242A606C61AC80EC8075
:1009800002F066FE012108F118024046FFF78AFDD9
:100990005F4A574BC8F800301046564B536088F8F2
:1009A000F440147288F8F54016605472D460C8F8A8
:1009B000F04088F8F64003F0BFF9564A104614722A
:1009C00082E840045472D46003F0B6F9524901221F
:1009D00008464A7200920C720E604D60CC6003F0C3
:1009E000ABF94E49019B4B6008460C720E604C728D
:1009F000CC6003F0A1F94A4B3E4A5A601846009A6F
:100A00005A721C72C3F800A0DC6003F095F9454BE4
:100A100018461C7283E8000C5C72DC6003F08CF9F1
:100A2000414B364A1C721846C3F800A05A605C72EB
:100A3000DC6003F081F93D4B2E4A1C72184683E8B6
:100A400004025C72DC6003F077F9394B009A5A7249
:100A5000284A1A601846294A5A601C72DC6003F062
:100A60006BF9344B254A1C72184683E824005C72EB
:100A7000DC6003F061F9304B204AC3F8048018466B
:100A80001A601C725C72DC6003F056F92B4B2C4A26
:100A90001A600A221A7200F067F82A4B186000F0F8
:100AA00063F8294B186000F05FF8284B186000F0DD
:100AB0005BF8274B186000F057F8264B186003B01E
:100AC000BDE8F08FC8F800603346ADE614604DE72E
:100AD00024ECFF1FFCA9000000F3FF1F78EEFF1FAE
:100AE00098AB000068AB000050E0FF1F5CAB00005B
:100AF0008CAB00007CE5FF1F34AB000040EEFF1F15
:100B00005CE5FF1F74AB000004F3FF1F80AB000027
:100B10000CEBFF1FFCE4FF1F0CE5FF1F1CE5FF1F94
:100B20002CE5FF1F3CE5FF1F4CE5FF1F2CE2FF1FDC
:100B30001CEBFF1FD8EAFF1FFCEAFF1FF0EAFF1FB4
:100B400040AB00003CEDFF1FE8EAFF1F40EDFF1F38
:100B5000ECEAFF1F3CE2FF1F40E2FF1F2CEBFF1FF0
:100B600044ECFF1F44EDFF1F38B544F20C0009F0C0
:100B7000E9F944F2040500F5804444F2080100223A
:100B800042512260425038BD09F0E4B990F8392052
:100B900090F83800101A704790F8383090F83920E3
:100BA0009A4205D95A1C034480F83820187E7047B1
:100BB0004FF0FF30704700BF90F8383090F8392080
:100BC0009A4286BF1B18187E4FF0FF30704700BF57
:100BD000704700BFB0F85E306BB190F85D30202BED
:100BE00007D8C218013380F85D30012082F83B102D
:100BF0007047012303710020704700BF38B50546D8
:100C0000B0F85E0090B195F85D301446C3F1210252
:100C100094420CD805F13B001844224603F0E0FA58
:100C200095F85D30234485F85D30204638BD0120BD
:100C300014462871EEE700BF0023426980F838307F
:100C400080F8393080F85C3080F85D3080F85E30B4
:100C500080F85F3006CA30B40D68046943662A43E1
:100C600083660A60A370426990F86130164914687F
:100C700013441D7A5B7B01EBC5051B026D6803F411
:100C8000E06343F064032B6090F8623013449D7C72
:100C9000DB7D01EBC5011B02496803F4E06343F00F
:100CA00064030B6021685368194205D003692C2244
:100CB0005A70036904229A71036920225A710369E8
:100CC00080229A7030BC7047A0AB0000F0B5036979
:100CD0001222DA70026993780546980687B04ED5DD
:100CE000B423444C937023680293029E2A6905E062
:100CF00023680393039B9B1B042B57D8D37803F0E3
:100D0000200303F0FF00002BF2D095F85D30002B9C
:100D10002ED000274FF0020EEB1993F83B301371E1
:100D200023680493DDF810C0286908E09B060ED5FF
:100D300023680593059BCCEB0303052B3DD8C378B3
:100D4000DBB203F0020202F0FF06002AEED080F8C8
:100D500003E02A69D378DBB2DE063DD49E063BD59C
:100D6000DB0741D4013795F85D30FFB2BB42D3D8E1
:100D70000020002934D1002385F85E301BE01D4C93
:100D800023680093009E05E023680193019B9B1B51
:100D90000F2B19D8D37803F0200303F0FF00002BAA
:100DA000F2D1B02385F85F0093709CE790702B69B7
:100DB00080229A70042007B0F0BD86702B698022D3
:100DC00004209A7007B0F0BD002393702B69802235
:100DD00004209A7007B0F0BD802393700420C8E708
:100DE0002A6980239370C6E7002F0CBF02200320DE
:100DF000F7E700BF34F3FF1F38B54A4D2A69D478AE
:100E0000E4B2E10624D51023D37063061FD504F0A5
:100E1000040404F0FF03002C5BD043496A6E414C8C
:100E200000230B7085F85D30002A65D0904794F858
:100E30005D30002B60D02B69D0229A7095F83B2052
:100E40001A71012385F85C302B690222DA7038BDF3
:100E500004F0400303F0FF00002BD8D19379DBB2FC
:100E600003F0600160294ED0937803F0100303F083
:100E7000FF01BBB114F0010437D195F85C3095F84F
:100E80005D00284998424BD9C818013390F83B00BF
:100E900081F85C3010712B69D0229A702B69022284
:100EA000DA70D4E785F8601093791E4943F0200387
:100EB0009371137995F839201F2ADBB2C4D81A48E8
:100EC00000780028C0D088180132037681F83920D4
:100ED000BAE7C02185F839309170134B127901229D
:100EE0001A702B690222DA70B1E7C023937013796C
:100EF0002B690222DA70AAE70122002385F85D201F
:100F000085F83B3097E703F0DF039371AB6E002B5E
:100F1000AAD085F8380095F8390098472A69A3E7E0
:100F20001471B8E76CEFFF1F68EFFF1F38B54A4D2B
:100F30002A69D478E4B2E10624D51023D37063067D
:100F40001FD504F0040404F0FF03002C5BD04349D8
:100F50006A6E414C00230B7085F85D30002A65D025
:100F6000904794F85D30002B60D02B69D0229A70A6
:100F700095F83B201A71012385F85C302B69022219
:100F8000DA7038BD04F0400303F0FF00002BD8D125
:100F90009379DBB203F0600160294ED0937803F0BF
:100FA000100303F0FF01BBB114F0010437D195F831
:100FB0005C3095F85D00284998424BD9C818013338
:100FC00090F83B0081F85C3010712B69D0229A7048
:100FD0002B690222DA70D4E785F8601093791E49F4
:100FE00043F020039371137995F839201F2ADBB25F
:100FF000C4D81A4800780028C0D088180132037677
:1010000081F83920BAE7C02185F839309170134B47
:10101000127901221A702B690222DA70B1E7C0231B
:10102000937013792B690222DA70AAE70122002358
:1010300085F85D2085F83B3097E703F0DF03937177
:10104000AB6E002BAAD085F8380095F83900984788
:101050002A69A3E71471B8E790EEFF1F68EFFF1F3E
:1010600038B54A4D2A69D478E4B2E10624D5102374
:10107000D37063061FD504F0040404F0FF03002CB2
:101080005BD043496A6E414C00230B7085F85D309C
:10109000002A65D0904794F85D30002B60D02B6912
:1010A000D0229A7095F83B201A71012385F85C30A4
:1010B0002B690222DA7038BD04F0400303F0FF0010
:1010C000002BD8D19379DBB203F0600160294ED0B8
:1010D000937803F0100303F0FF01BBB114F0010497
:1010E00037D195F85C3095F85D00284998424BD986
:1010F000C818013390F83B0081F85C3010712B69FF
:10110000D0229A702B690222DA70D4E785F8601039
:1011100093791E4943F020039371137995F8392090
:101120001F2ADBB2C4D81A4800780028C0D088181B
:101130000132037681F83920BAE7C02185F83930C9
:101140009170134B127901221A702B690222DA7006
:10115000B1E7C023937013792B690222DA70AAE7F2
:101160000122002385F85D2085F83B3097E703F0E6
:10117000DF039371AB6E002BAAD085F8380095F889
:10118000390098472A69A3E71471B8E7FCEEFF1FFE
:1011900068EFFF1FF0B517481749184A184B194D4B
:1011A000194C0361456100234FF47A75DFF868E05C
:1011B000164F0371037380F8613080F862308560E8
:1011C0000460134E13480B710B7381F8613081F882
:1011D00062301371137382F8613082F862308D606F
:1011E0000C60C1F810E04F619560146016615061A9
:1011F000F0BD00BF6CEFFF1F90EEFF1FFCEEFF1F66
:10120000006006409CAA000004AB0000BCAA0000DD
:1012100000600E40DCAA0000007006402149224A0E
:101220000B6843F080030B6011461368DB07FCD4A6
:101230000B689B07F9D41D4B30B44FF08072194DE9
:10124000186000E0A2B12968194B164C0B40013A16
:10125000002BF7D062B1012B0AD1236813F0800F65
:1012600023680FD043F001132360032030BC704784
:101270000C4A136843F4702343F001031360012008
:1012800030BC704713F4803305D0236843F001135A
:1012900023600520F4E7226842F00102184622602C
:1012A000EEE700BF30100B4024100B400C100B4039
:1012B00001000E002DE9F0432B4A2C4CDFF8B490CE
:1012C000DFF8B480DFF8B4C02746154664264FF037
:1012D000000EC9F800E0236843F080032360136820
:1012E000D807FCD42B689907F9D4C8F800C04FF090
:1012F000807100E0D1B120681D4B03400139002B03
:10130000F8D099B1012B11D13B6813F0800F3B68E5
:101310001BD043F001133B600320013E10D0136843
:101320005B0710D50028D4D0BDE8F083236843F4D0
:10133000702343F00103013E23604FF00100EED122
:10134000002808BF0520BDE8F08313F4803305D0E2
:101350003B6843F001133B600520DEE7396841F04C
:10136000010118463960D8E724100B4030100B40BB
:1013700001000E0008100B400C100B400000DB0CAD
:10138000F8B5384B1A780AB10320F8BD5B780646E9
:1013900003B94902344D354C354B36484FF6FF778B
:1013A0004FF481322F6021601A60FFF737FF002869
:1013B000EBD1314B31491B681C3406F1400206F574
:1013C00010702B68284F43F0200613F4E00F2E60B6
:1013D0003ED123681E05FCD50B6842F8403C0B68E3
:1013E00042F83C3C0B6842F8383C0B6842F8343C0D
:1013F0000B6842F8303C0B6842F82C3C0B6842F812
:10140000283C0B6842F8243C0B6842F8203C0B68EF
:1014100042F81C3C0B6842F8183C0B6842F8143C3C
:101420000B6842F8103C0B6842F80C3C0B6842F821
:10143000083C0B6842F8043C40328242C1D1002093
:1014400009490B68084A9B07FBD50D4B1360F8BD93
:1014500043F4E00343F020033B60FFF72BFF012040
:10146000EEE700BFFCEFFF1F30100B4008100B40F1
:1014700004100B4010003A1110100B4020100B40CC
:1014800022000001F8B53B4B1A780AB10320F8BDE1
:101490005B78074603B94902374C384D384B394819
:1014A0004FF6FF764FF48132266029601A60FFF70D
:1014B000B5FE0028EBD1344B34491B6807F14002DC
:1014C000264607F5107723682B4DD806FBD53368E1
:1014D00013F4E00F43D152F8403C0B6052F83C3C0F
:1014E0000B6052F8383C0B6052F8343C0B6052F8F9
:1014F000303C0B6052F82C3C0B6052F8283C0B60DF
:1015000052F8243C0B6052F8203C0B6052F81C3C13
:101510000B6052F8183C0B6052F8143C0B6052F808
:10152000103C0B6052F80C3C0B6052F8083C0B600E
:1015300052F8043C0B60336843F0100333603368A7
:1015400013F4E00002F1400209D1BA42BBD10A49CA
:101550000B68094A9B07FBD50D4B1360F8BD2B6840
:1015600043F4E00343F010032B60FFF7A3FE0120D8
:10157000EDE700BFFCEFFF1F30100B4008100B40E1
:1015800004100B4000003A1810100B4020100B40C4
:1015900012000001F0B53B4F3B4C3B6883B0064660
:1015A0000193019DA446ADB24FF0004EFF20236889
:1015B00043F480632360C4F82CE06063E36A002B8B
:1015C000FCDADCF83830DBB2FF2B07D03B68009345
:1015D000009B9BB25B1BB3F5967FE8DB2A4B186838
:1015E0004FF0004540F4806041F040041860DD6237
:1015F00018465C63C36A002BFCDA234C18204FF0BA
:101600000047256822FA00F345F48065DBB22560C7
:10161000E7626363E36A002BFCDA083810F1080F15
:10162000EFD100292CD008290CBF8721FF21164BB0
:101630001A684FF0004042F480621A60D8621A467D
:101640005963D36A002BFCDA0F4A002715464FF086
:101650000044FF21136843F480631360D462516334
:10166000D36A002BFCDAAB6BD8B21B06707001D4C6
:1016700003B0F0BD0137B7F5807FEBD103B0F0BD0B
:101680009521D4E734F3FF1F00C002402DE9F0415B
:101690008D4C8378032B23780F4682B0064615467F
:1016A00018BF4F02002B3AD00021307803F050F8D9
:1016B0003A4611213046FFF76DFF20BB834F844A25
:1016C0003B6801930198904680B24FF0004C4FF078
:1016D000FF0E136843F480631360C2F82CC0C2F895
:1016E00034E0D36A7A49002BFBDAD8F83830DBB221
:1016F000FF2B737076D13B680093009B9BB21B1A43
:10170000B3F5967FE5DD3078012103F021F82378E9
:101710006D4A002B47D1002002B0BDE8F0816D4B2F
:101720006D4A197812680120207000292ED072B6F7
:101730001B78D9070BD569486949D0F800C00968FA
:10174000DFF8B0E10CEA0101CEF800100160980763
:101750000BD564486249D0F800C04968DFF894E1CD
:101760000CEA01010160CEF8041059070BD55E4860
:101770005B49D0F800C08968DFF878E10CEA010124
:101780000160CEF808101B0774D462B6504BD968BC
:10179000914289D0554818605549DA6042F080403E
:1017A0001861196080E74B4B1B7800211170002BEA
:1017B000B1D0D80703D54F494F4A0968116099073E
:1017C00003D54C494D4A496811605A0703D5494928
:1017D0004B4A896811601B079DD5464A494BD26820
:1017E0001A6098E7FE2B8ED1474B484A0A6008469C
:1017F0004B630A464B639E464B6305F5FE77A91C77
:10180000D36A13F0F00FFBD0C0F834E0836B01F81B
:10181000013C1B1201F8023C02318F42F0D105F568
:10182000FD7105F50075A9420DD2294A1746D36A04
:1018300013F0F00FFBD0BB6B181201F8020BA9429A
:1018400001F8013CF3D3224B30492F4A1960194665
:101850005A63CB6A1E4A13F0F00FFAD03078936BBC
:10186000012102F075FF2378174A73B9012002B0F5
:10187000BDE8F08126491A4BD1F800E0DB681D482D
:101880000EEA03030B60C3607FE7124B1B78002155
:101890001170002BEAD0DF0703D51649164A0968F4
:1018A00011609E0703D51349144A496811605D070A
:1018B00003D51049124A896811601C07D6D50D4A14
:1018C000104BD2681A60D1E710F0FF1F34F3FF1FEE
:1018D00000C00240F8EFFF1F0CF0FF1F80E100E0A6
:1018E000D8EFFF1F84E100E088E100E001401F0025
:1018F00000001F80E8EFFF1F00E100E004E100E0CE
:1019000008E100E00CE100E0FFFF009000041F8010
:101910008CE100E0F0B4314E33684FF0004743F4FF
:10192000806333603D46F762344671633346511C31
:1019300002F20127E26A002AFCDA1A6811F8016C47
:1019400042F480621A60DD625E63E26A002AFCDAB9
:101950001A6811F8026B42F48062B9421A60DD62C3
:101960005E63E7D11D49CA6A1C4B002AFBDA1A687C
:101970004FF0004542F48062FF241A601946DD6290
:101980005C63CB6A154A002BFBDA13684FF0004505
:1019900043F48063FF2413601146D5625463CB6A1D
:1019A0000E4A002BFBDA13684FF0004543F48063C6
:1019B000FF2413601146D5625463CB6A074A002B9B
:1019C000FBDA936BDBB203F01F024370A2F1050058
:1019D000B0FA80F04009F0BC704700BF00C0024080
:1019E0002DE9F041054682B0002900F08D80837812
:1019F0007D4E032B33780C46174618BF4C02B3B10B
:101A00000021287802F0A4FE224618212846FFF77C
:101A1000C1FD00287AD02878012102F099FE3378A0
:101A2000714A002B51D1002002B0BDE8F0816F4B0C
:101A30006F4A1978126801203070002938D072B6C8
:101A40001B78D9070BD56B486B49D0F800C00968E3
:101A5000DFF8B4E10CEA0101CEF80010016098074C
:101A60000BD566486449D0F800C04968DFF898E1B2
:101A70000CEA01010160CEF8041059070BD560484B
:101A80005D49D0F800C08968DFF87CE10CEA01010B
:101A90000160CEF808101B0709D55A49564BD1F8FA
:101AA00000E0DB6858480EEA03030B60C36062B6CF
:101AB000564BD9689142A3D0554818605549DA6011
:101AC00042F08040186119609AE7484B1B7800216A
:101AD0001170002BA7D0D80703D54B494E4A09688F
:101AE0001160990703D548494C4A496811605A0763
:101AF00003D545494A4A896811601B0793D5424A74
:101B0000484BD2681A608EE7374E84E73A46FE218A
:101B10002846FFF7FFFE00283FF47DAF42483B4ACE
:101B2000036801930199904689B24FF0004C4FF041
:101B3000FF0E136843F480631360C2F82CC0C2F830
:101B400034E0D36A314C002BFBDAD8F83870FFB29E
:101B5000FF2F08D003680093009B9BB25B1AB3F57C
:101B6000167FE6DB57E700220D212846FFF712FD1E
:101B700000287FF450AF23684FF0004243F48063A5
:101B800023602146E2626763CB6A204A002BFBDABE
:101B9000936B13F0FF047FF43EAF2878012102F02D
:101BA000D7FD3278104B0AB901203DE70F4A1C706F
:101BB0001378002BF8D0DF0703D51349164A0968BC
:101BC00011609E0703D51049144A496811605D07EA
:101BD00003D50D49124A896811601C07E4D50A4AE9
:101BE000104BD2681A60DFE710F0FF1FF8EFFF1FFD
:101BF0000CF0FF1F80E100E0D8EFFF1F84E100E060
:101C000088E100E08CE100E0E8EFFF1F00C0024047
:101C100001401F0000001F8000E100E004E100E03F
:101C200008E100E00CE100E034F3FF1F014B024A41
:101C30001A6070470CF0FF1F032000382DE9F04FA9
:101C4000837985B0012B0646019205D001233371BB
:101C5000002005B0BDE8F08F42799007F6D5530714
:101C60000F4626D5F368B569AB4200F02B81002DF5
:101C700000F04981326A147C591E09346A1EE14021
:101C800022FA04F4A14200F24281002B00F03F81CD
:101C9000641A06F1080806E0B168306A00F0DCFB5F
:101CA000013C0028D2D04246002CF5D1F5602B46ED
:101CB00000E0F368019A002A43D0DFF8B8B2019D32
:101CC000306A0279013A02EA532212F0FF09C3F3A3
:101CD000080840D1B8F1000F3DD1B168002940F0AB
:101CE000C580F369002B00F0D480B360C8F50074A0
:101CF000017C4269A4B2023B8B404A44AC4203EBF4
:101D000002092AD8B4F5007F28D1954B1B68994564
:101D100000F0A780934B18680378FE2B494600F02B
:101D2000CA803A46FFF75CFE00288FD007F500779F
:101D30004FF40078F3682D1B4344ADB2F360002DDF
:101D4000BED1B2699A4280F0C2807279B36142F02A
:101D500080027271C4E0B368C8E72C46B8F1000F86
:101D600003D1F268B3699A425CD24846012100F07F
:101D7000DBF900283FF46AAF08EB0B031819834224
:101D800062D008F104083A1DD844934238BF474551
:101D900043EA070E2CBF01220022591C1EF0030F3C
:101DA00002F00102C1EB000E18BF00220EF1010A81
:101DB0009C46002A4AD0BAF1090F47D9AEF1030276
:101DC000920801324FEA8209A7F104084FF0000E91
:101DD00000930EF1010E58F8043F4CF8043B964571
:101DE000F7D3009BD14507EB090C03EB090E13D089
:101DF00017F8228003F822800EF1010398420BD0DD
:101E00009CF801308EF801300EF10203984203D0A5
:101E10009CF802308EF80230C1F1010108440744F9
:101E2000A04687E700F040F900283FF40FAF4E4A84
:101E30004B4BC3F80090137843F00103137008EB89
:101E40000B03181983429CD1A04673E7013B7A1E0D
:101E500000F1FF3C12F801EF03F801EF9C45F9D1C6
:101E6000DAE73F4A4FF0FF33136053E703AA00F06D
:101E7000F3FA00283FF4EDAE306A3C4C90F82010A5
:101E8000039B4FF6F872102918BF22469342FFF4C5
:101E90002CAF06F10802012100F0AAF900283FF456
:101EA000D5AEF3696BBB7279B368F36162F07F0200
:101EB0007271306A1AE73846FFF7E4FAB0FA80F038
:101EC000400931E7019900297FF4F7AE08E0284B7B
:101ED00072791B6823B1019B13B142F080027271C9
:101EE00011070AD5B379002B3FF4B0AE120611D416
:101EF00000F0DAF800283FF4A9AE019805B0BDE87B
:101F0000F08FB368D5E7B560F5602B46D2E6F3698C
:101F1000B360BEE60121306900F006F900283FF405
:101F200095AE347D134B13EB44143FF48FAEB3796D
:101F30000F4A012B9CBFB369E361F36912686383A5
:101F40001B0CA38232B104F1160104F11800904772
:101F5000238B6382737903F07F037371C8E700BF3B
:101F60003CD7FF1F1CF0FF1F20F2FF1FF8FFFF0FE1
:101F700014F0FF1F20F0FF1F00B583B002AB012259
:101F800003F8011D1946FFF759FE03B05DF804FB85
:101F90002DE9F84F90F82030DFF80481C569102B47
:101FA0000E4604469146D8F8001018D005EBD61519
:101FB0008D421FD1374F384B06F07F0643F82690ED
:101FC000227E3B78012A43F0010388BFA2683B7060
:101FD00082BF324B891819600120BDE8F88F05EBEC
:101FE0001625A94206D12B4F2B4BF6B2294623F8D2
:101FF0001690E5E7274FDFF8ACA03B788BB9DAF80D
:1020000000000378FE2B20D0234A2946FFF73EFB31
:10201000C0B194F82030C8F80050102BE4D0294605
:10202000C9E7DAF800000378FE2B24D01A4AFFF73C
:10203000D7FC38B1DFF864B0DBF8001069B90023D1
:102040003B70DCE70020BDE8F88F29461248FFF717
:1020500097F9B0FA80F04009DAE7DAF8000003787F
:10206000FE2B0FD00C4AFFF7BBFC0028EAD0002360
:10207000CBF80030E3E70848FFF704FAB0FA80F045
:102080004009D6E70448FFF7FDF9B0FA80F04009AF
:10209000EBE700BF20F2FF1F20F0FF1F18F0FF1F2B
:1020A0003CD7FF1F1CF0FF1F70B51A4C23780BB9EB
:1020B000012070BD184D194B286819680378FE2B54
:1020C00017D0174AFFF78CFC88B1164E316819B942
:1020D00000232370012070BD28680378FE2B0FD0E9
:1020E0000F4AFFF77DFC10B100233360F0E70020BA
:1020F00070BD0B48FFF7C6F9B0FA80F04009E3E77E
:102100000748FFF7BFF9B0FA80F040090028EBD18B
:10211000EDE700BF20F2FF1F1CF0FF1F3CD7FF1FA1
:1021200020F0FF1F18F0FF1F2DE9F8432B4E3368F6
:1021300083420F4611D02A4CDFF8AC802278054646
:1021400092B9D8F800000378FE2B29D0254A2946F9
:10215000FFF79CFAD0B1356000E0214C217839437B
:1021600021700120BDE8F883D8F800000278FE2A2B
:1021700019460ED01B4AFFF733FC38B1DFF86C90DC
:10218000D9F80010A1B900232370DAE70020BDE8D8
:10219000F8831448FFF776F9B0FA80F04009ECE7CD
:1021A00029461048FFF7ECF8B0FA80F04009D1E773
:1021B000D8F800000378FE2B08D00A4AFFF710FC7D
:1021C0000028E3D00023C9F80030DCE70548FFF71A
:1021D00059F9B0FA80F04009F2E700BF3CD7FF1F81
:1021E00020F2FF1F20F0FF1F1CF0FF1F18F0FF1F41
:1021F0002DE9F04F136885B0002B00F0828003F1C9
:10220000010800230393C468631C9A468CB34446B8
:10221000A2453CBF0224A0469C4200910546029282
:10222000DFF820B24FF0000623D895F82030DFF811
:102230002492EF69D9F80010102B26D007EBD417A1
:10224000B94226D104F07F037E4F5BF8233023F0A0
:10225000704393B10134A046EB680136B34208D90C
:10226000A24538BF022403F1010338BFA0469C42B7
:10227000DBD9002005B0BDE8F08F631C0099C8EBE6
:102280000302914257D01C46E6E707EB1427B942F8
:1022900013D06D4B1B78ABB96C4B18680378FE2BD1
:1022A00027D0684A3946FFF7F1F90028E1D095F8C0
:1022B0002030C9F80070102BC4D1E3B2614F3BF855
:1022C0001330C6E7614B019318680278FE2A00F0CC
:1022D0008D805C4AFFF784FB019B0028C9D05C4AD3
:1022E0001168B9B95849186800220A700378FE2BA2
:1022F000D7D139465348FFF743F8B0FA80F0400988
:10230000D3E7A1F10103B3FA83F35B09D0F80080AE
:10231000039378E74D4A019310680278FE2A00F093
:102320008980484AFFF75CFB019B0028A1D04849FF
:1023300000220A60D6E7012C9BD9EB6801339C424E
:1023400097D86FF0704221462846FFF721FE0028FB
:102350008FD0A04552D204F1FF3ABAF1010F88D9CB
:10236000EB680133534584D3DFF8DCB02EE006EB95
:10237000DA16B3420AD000213046FFF7D5FE002816
:102380003FF477AF95F82030102B2AD00AF07F0366
:1023900047F823409BF800302A7E43F00103012ACE
:1023A0008BF8003003D9AB681E44294B1E60D04522
:1023B00024D00AF1FF3ABAF1010F3FF45AAFEB68AB
:1023C00001339A4504F1FF343FF653AF95F82030BE
:1023D000EE69102BD9F80030C9D106EB1A26B342AA
:1023E000C9D15FFA8AF327F81340D3E71548FFF7FE
:1023F00049F8B0FA80F04009019B6EE7029B19682A
:1024000071B101297FF635AFEB68013399423FF690
:1024100030AF42462846FFF7BBFD00283FF429AF06
:10242000029BC3F80080039B13B108F101032B60EA
:1024300001201FE70348FFF725F8B0FA80F04009B4
:10244000019B72E720F0FF1F20F2FF1F1CF0FF1F0F
:1024500018F0FF1F3CD7FF1F2DE9F84FC368013369
:102460008B422FD390F82030DFF8F480C469102B12
:102470000E4617460546D8F800100ED004EBD614C9
:102480008C420ED106F07F01344B53F8213023F0FB
:1024900070433B600120BDE8F88F04EB1624A14295
:1024A00019D0DFF8C0A0DFF8C0909AF80030D3B997
:1024B000D9F800000378FE2B31D0284A2146FFF7D7
:1024C000E5F810B90020BDE8F88F95F82030C8F87D
:1024D0000040102BD6D1F1B2204B33F811303B60C5
:1024E0000120BDE8F88FD9F800000378FE2B0DD04D
:1024F0001A4AFFF775FA0028E4D0DFF870B0DBF86D
:102500000010B1B900238AF80030D1E71348FEF774
:10251000B9FFB0FA80F040090028EED1D2E7214699
:102520000E48FEF72DFFB0FA80F040090028CCD10C
:10253000C8E7D9F800000378FE2B08D0074AFFF758
:102540004FFA0028BED00023CBF80030DAE703486A
:10255000FEF798FFB0FA80F04009F2E720F0FF1F85
:102560003CD7FF1F20F2FF1F1CF0FF1F18F0FF1FBA
:10257000064B074ADA620221002259609A7083F8FA
:10258000242083F8302083F83220704724F2FF1F84
:1025900024AB00002DE9F047ADF6080D04464FF4DA
:1025A0000072002102A807F095FF4FF4007200218D
:1025B00082A807F08FFF4FF4007200210DF58160B3
:1025C00007F088FF00210DF5C1604FF4007207F09D
:1025D00081FF2046002101F037FB00285BD0054633
:1025E0000121204601F030FB0646002853D0276A1F
:1025F000002F4AD0012F52D0802202A9281D06F0B8
:102600000FFB802282A9301D06F00AFB01F092FA2E
:10261000804601F08FFA8146B8F1000F35D0A0B3A3
:1026200080270DF5C1638DE8880082AA0DF58163CE
:1026300002A904F1240006F051FDDFF89CA03A46FF
:1026400008F104010DF5816006F0F4FB3A4609F14A
:1026500004010DF5C16006F0EDFBDAF800707FB300
:1026600002AB3B6082AB7B600DF58163BB600DF517
:10267000C163FB6020460022414601F0CBFA404690
:1026800001F0A4FA484601F0A1FA284601F09EFAAA
:10269000304601F09BFA0DF6080DBDE8F08729469B
:1026A0000022204601F0B6FA284601F08FFA2046B3
:1026B0003A46314601F0AEFA304601F087FAEAE7D1
:1026C000142001F0C9FE076047608760C76007619A
:1026D000CAF800000746C3E73CEEFF1F0020704722
:1026E00000207047F8B5144C037A242908BFC28033
:1026F0005B0001250E462046C1F30721174684F8EA
:102700003B3084F85E5084F85D50FEF763FAF1B216
:102710002046FEF75FFAC7F307212046FEF75AFA74
:10272000F9B22046FEF756FA29462046FEF7CEFAC1
:10273000B0FA80F04009F8BD6CEFFF1F70B50F29AB
:10274000154C037A28BF0F210F2A4FEA430328BFF5
:102750000F2201250E462046002142EA061684F883
:102760003B3084F85E5084F85D50FEF733FA204623
:102770002021FEF72FFA20460021FEF72BFAF1B2B6
:102780002046FEF727FA29462046FEF79FFAB0FAC0
:1027900080F0400970BD00BF6CEFFF1FF8B5EB4C37
:1027A0000125064605712046FEF746FA052002F08F
:1027B0002FF8337A84F85E50AB402046002184F82D
:1027C0003B3084F85D50FEF705FA20463021FEF7D5
:1027D00001FA20464021FEF7FDF920466021FEF770
:1027E000F9F929462046FEF771FA337A84F85E50EB
:1027F000AB402046002184F83B3084F85D50FEF762
:10280000E9F920462621FEF7E5F920460021FEF7EA
:10281000E1F920466C21FEF7DDF929462046FEF756
:1028200055FA337A84F85E50AB402046002184F894
:102830003B3084F85D50FEF7CDF920462821FEF7A5
:10284000C9F929462046FEF7C5F92046F221FEF7D0
:10285000C1F929462046FEF739FA337A84F85E50EA
:10286000AB402046002184F83B3084F85D50FEF7F1
:10287000B1F920462C21FEF7ADF920460F21FEF7D5
:10288000A9F920462221FEF7A5F929462046FEF7A0
:102890001DFA337A84F85E50AB402046002184F85C
:1028A0003B3084F85D50FEF795F920463C21FEF759
:1028B00091F920464421FEF78DF920464621FEF786
:1028C00089F929462046FEF701FA337A40F2371299
:1028D000F280AB402046002184F83B3084F85E5003
:1028E00084F85D50FEF776F920462421FEF772F950
:1028F00029462046FEF76EF920463721FEF76AF991
:1029000029462046FEF7E2F9337A84F85E50AB4060
:102910002046002184F83B3084F85D50FEF75AF9D8
:1029200020463021FEF756F920464021FEF752F9A5
:102930002046FF21FEF74EF929462046FEF7C6F94C
:10294000337A84F85E50AB402046002184F83B3057
:1029500084F85D50FEF73EF920460221FEF73AF971
:1029600020460021FEF736F920467321FEF732F9A2
:1029700029462046FEF7AAF94FF4C87001F048FF37
:10298000337A84F85E50AB402046002184F83B3017
:1029900084F85D50FEF71EF920462E21FEF71AF945
:1029A00020461D21FEF716F920461D21FEF712F9DB
:1029B00029462046FEF78AF9337A84F85E50AB4008
:1029C0002046002184F83B3084F85D50FEF702F980
:1029D00020460421FEF7FEF820460021FEF7FAF813
:1029E00020460421FEF7F6F829462046FEF76EF948
:1029F000337A84F85E50AB402046002184F83B30A7
:102A000084F85D50FEF7E6F820460621FEF7E2F86E
:102A100029462046FEF7DEF820463021FEF7DAF898
:102A200029462046FEF752F9337A84F85E50AB40CF
:102A30002046002184F83B3084F85D50FEF7CAF848
:102A400020460A21FEF7C6F820460021FEF7C2F80C
:102A500020461021FEF7BEF829462046FEF736F93B
:102A6000337A84F85E50AB402046002184F83B3036
:102A700084F85D50FEF7AEF820460E21FEF7AAF866
:102A800020460021FEF7A6F820460021FEF7A2F816
:102A900029462046FEF71AF9337A84F85E50AB4097
:102AA0002046002184F83B3084F85D50FEF792F810
:102AB00020461021FEF78EF820463C21FEF78AF8CA
:102AC00020463C21FEF786F829462046FEF7FEF810
:102AD000337A84F85E50AB402046002184F83B30C6
:102AE00084F85D50FEF776F820462221FEF772F852
:102AF00020467F21FEF76EF820467F21FEF76AF818
:102B000029462046FEF7E2F8337A3627AB40F780B5
:102B10002046002184F83B3084F85E5084F85D50F4
:102B2000FEF758F820462421FEF754F820460021ED
:102B3000FEF750F839462046FEF74CF82946204665
:102B4000FEF7C4F875722846F8BD00BF6CEFFF1F92
:102B50009FED5A7ADFED5A7AE0EE077A2DE9F843D5
:102B6000FCEEE77A064617EE904A002C5BD0802CEC
:102B700026D933790024274663BB524D337A514816
:102B80005B000126002185F83B3085F85E6085F802
:102B90005D60FEF71FF822214A48FEF71BF8394610
:102BA0004848FEF717F821464648FEF713F8314625
:102BB0004448FEF78BF8B0FA80F04009BDE8F8838E
:102BC000C4F18004337944EA0424C4F30727E4B24F
:102BD000002BD2D0B6F806803A4D337A28F0100890
:102BE00000215B003171A6F806804FF001092846EC
:102BF00085F83B3085F85E9085F85D90FDF7EAFF3B
:102C000028462421FDF7E6FF4FEA18212846FDF764
:102C1000E1FF08F0EF012846FDF7DCFF49462846B2
:102C2000FEF754F8AAE7274D037A012717EE901A0A
:102C3000BB400771284685F83B3085F85E7085F803
:102C40005D70FDF7C7FF28462221FDF7C3FF284628
:102C50007F21FDF7BFFF28467F21FDF7BBFF3946E7
:102C60002846FEF733F8B6F80680337A48F01008A5
:102C70001FFA88F8BB40A6F806802146284685F84A
:102C80003B3085F85E7085F85D70FDF7A3FF284640
:102C90002421FDF79FFF4FEA18212846FDF79AFFF0
:102CA0005FFA88F12846FDF795FF39462846FEF77A
:102CB0000DF8B0FA80F04009BDE8F8830000014348
:102CC000EE7CFF3E6CEFFF1F2DE9F84306460C46F5
:102CD00000295BD0802926D9337900252F4663BB94
:102CE0004F4C337A4E485B000126002184F83B307C
:102CF00084F85E6084F85D60FDF76CFF222148482F
:102D0000FDF768FF39464648FDF764FF2946444809
:102D1000FDF760FF31464248FDF7D8FFB0FA80F07A
:102D20004009BDE8F883C1F18005337945EA0525FE
:102D3000C5F30727EDB2002BD2D0B6F80680384C89
:102D4000337A28F0100800215B003171A6F8068064
:102D50004FF00109204684F83B3084F85E9084F8F7
:102D60005D90FDF737FF20462421FDF733FF4FEA42
:102D700018212046FDF72EFF08F0EF012046FDF751
:102D800029FF49462046FDF7A1FFAAE7244D037A13
:102D90000127BB400771284685F83B3085F85E70F7
:102DA00085F85D70FDF716FF28462221FDF712FF1A
:102DB00028467F21FDF70EFF28467F21FDF70AFFF9
:102DC00039462846FDF782FFB6F80680337A48F088
:102DD00010081FFA88F8BB40A6F80680214628464E
:102DE00085F83B3085F85E7085F85D70FDF7F2FE82
:102DF00028462421FDF7EEFE4FEA18212846FDF76C
:102E0000E9FE5FFA88F12846FDF7E4FE39462846D8
:102E1000FDF75CFFB0FA80F04009BDE8F88300BF21
:102E20006CEFFF1FF8B506460D4619B1012945D0D4
:102E30000020F8BD534C037A01275B00204684F83C
:102E40003B3084F85E7084F85D70FDF7C3FE20218E
:102E50002046FDF7BFFE29462046FDF7BBFE552163
:102E60002046FDF7B7FE39462046FDF72FFF002824
:102E7000DED1F588337A45F00405ADB25B00F5800C
:102E80000146204684F83B3084F85E7084F85D701B
:102E9000FDF7A0FE24212046FDF79CFE290A2046CE
:102EA000FDF798FEE9B22046FDF794FE394620462C
:102EB000FDF70CFFB0FA80F04009F8BD314C037A01
:102EC00084F85E505B000021204684F83B3084F893
:102ED0005D50FDF77FFE2A212046FDF77BFE294647
:102EE0002046FDF777FE73212046FDF773FE294645
:102EF0002046FDF7EBFE0746002899D1337A84F887
:102F00005E505B000146204684F83B3084F85D50FB
:102F1000FDF760FE20212046FDF75CFE3946204685
:102F2000FDF758FE88212046FDF754FE294620462D
:102F3000FDF7CCFE00287FF47BAFF788337A27F0CB
:102F400004075B00F7800146204684F83B3084F894
:102F50005E5084F85D50FDF73DFE24212046FDF7CC
:102F600039FE390A2046FDF735FE07F0FB01204601
:102F7000FDF730FE29462046FDF7A8FEB0FA80F0A6
:102F80004009F8BD6CEFFF1F70B50021054600F049
:102F90005BFEE0B1EB69B3B1012B064618D000F03F
:102FA000C9FD044670B1021D8023311D05F12000CA
:102FB00006F02CFB28460022214600F02BFE20467E
:102FC00000F004FE3046BDE8704000F0FFBD70BD6B
:102FD00028463146002200F01DFE3046BDE8704014
:102FE00000F0F4BD10B5044600F0B6FF204610BD59
:102FF000024A0349034806F06BBF00BF30D7FF1FEA
:10300000E52F000078F2FF1F38B5074D074C084840
:103010002A46214606F05CFF2A4621460548BDE8BF
:10302000384006F055BF00BF30D7FF1FE52F000026
:1030300080F2FF1F88F2FF1F70B41A4A1A4B116802
:103040001A48096912790270994208D2184A12780E
:103050002AB3184A0121116003F5807402E01C466E
:10306000A3F58073144A154912680D68AAB1A5B179
:10307000134E3088402810D841000A44403029447B
:1030800002320231308033F9040B22F8020F9C42E5
:1030900033F9020C21F8020FF5D870BC704703F524
:1030A0008074DFE798F2FF1F20CEFF1F1F800040D3
:1030B00092F2FF1F08E200E0A0F2FF1F94F2FF1F50
:1030C00090F2FF1FF8B5064600F034FD0446E8B163
:1030D00000F030FD054600283AD072B61F4B1A8822
:1030E0007F2A19D8002C31D01D490A6842B162B636
:1030F000204600F06BFD2846BDE8F84000F066BDB4
:1031000018480C601A80056062B6F8BD054672B6B4
:10311000124B1A887F2AE5D9114A124917681460A0
:1031200000220C681A800D6062B63946304600F005
:1031300071FD384600F04AFD30462146012200F07C
:1031400069FD2046BDE8F84000F040BD62B6F8BD1C
:10315000204600F03BFD2C46BFE700BF90F2FF1F6A
:10316000A0F2FF1F94F2FF1FF8B5364D012128464B
:1031700000F054FE00F064FB334B34484FF480629F
:103180001A602B686FF05F0219781A706FF00F02E7
:1031900059785A7002219A7899704022DC78DA7056
:1031A00000221861987D9A7501244FF0FF306FF06E
:1031B0000106197219755E76D97D1A715A715A72A3
:1031C0009A72DA721A735A739A73DA735A751A7694
:1031D0009C71DC71DC759876D8762979987F9A771E
:1031E00001F18041D87FDC7701F5043106201E7F94
:1031F00018778C205E7F5A770A70087000F0B4FD53
:10320000134E144B2A79144930701A700B682A79BE
:103210001248134D134E43F0124323430B605311D6
:103220009B00016803F1604302F01F0703F561434F
:103230001032BC4041F01041016045F822601C6032
:10324000F8BD00BF98F2FF1F14B0044020CDFF1F4F
:1032500092F2FF1F1B80004080F0024000F002400D
:1032600000D2FF1F39300000024A0349034806F02C
:103270002FBE00BF30D7FF1FE52F000098F2FF1FC1
:10328000024A0349034806F023BE00BF30D7FF1FA0
:10329000E52F0000A4F2FF1F2DE9F04F00F5807E1E
:1032A000B1E8A00AB2E84015C5EA0643C6EA2544DB
:1032B000C7EA0845C8EA2746C9EA0A47CAEA2948C8
:1032C000CBEA0C49CCEA2B4AA0E8F8078645E7D1BF
:1032D000BDE8F04F70474FF000022DE9F00F00F508
:1032E000807C00BFB1E8A00AC5EA0203C2EA254417
:1032F000C7EA0205C2EA2746C9EA0207C2EA294824
:10330000CBEA0209C2EA2B4AA0E8F8078445E9D1D2
:10331000BDE8F00F70474FF000022DE9F00F00F507
:10332000807C00BFB1E8A00AC2EA0543C2EA0504F6
:10333000C2EA0745C2EA0706C2EA0947C2EA090823
:10334000C2EA0B49C2EA0B0AA0E8F8078445E9D1B2
:10335000BDE8F00F70472DE9F00F089C00F5007BE9
:1033600051F8045B53F8046BC5EA0647C6EA2549E1
:1033700052F8045B54F8046BC5EA0648C6EA254ACD
:10338000A0E880078345EBD1BDE8F00F704700BF90
:103390002DE9F8434FF00008064600F118054746AE
:1033A00041463046002F4FD000F04EFCF0B12C6863
:1033B000B4F5803F07F1040100F1040E07F5827CAB
:1033C00027D05EF8042B34FB02F334FB12F903F32D
:1033D0000F0209F30F03C2EA03430A6893FA12F3D8
:1033E00041F8043B8C45ECD800F0F0FB08F10108F3
:1033F000B8F1040F05F10405D2D1002F40D03046BA
:103400003946002200F006FC3846BDE8F84300F0DB
:10341000DDBB07F10C0100F10C0451F8083C54F835
:10342000082C93FA12F341F8083C54F8042C51F894
:10343000043C93FA12F38C4541F8043C04F108046F
:1034400001F10801E9D8CFE700F00AFC074600289F
:10345000CCD02868B0F5803FC8D0391D07F58274FC
:103460000B6830FB03F230FB13F302F30F0203F39C
:103470000F03C2EA034341F8043B8C42F0D8B5E79E
:10348000BDE8F883024A0349034806F021BD00BFA6
:1034900030D7FF1FE52F0000ACF2FF1F024A03499F
:1034A000034806F015BD00BF30D7FF1FE52F000011
:1034B000B4F2FF1F2DE9F84F344B35481A683549EF
:1034C00012681B790B70824229D2334B1B784BBB9D
:1034D000DFF8D4A0DFF8D490DFF8D480DFF8D4B0E0
:1034E000DAF80060D9F80070B8F80040BBF8005076
:1034F000002E3BD09FB33A1D311D02EB450201EB7C
:103500004401FFF7C9FE403540347F2C1BD8A8F892
:1035100000407F2D0AD8ABF80050BDE8F88FA0F529
:103520008070D5E71D4B01221A60D1E70024384690
:10353000ABF8004000F04AFB194B1A68C9F80020AC
:103540001C60BDE8F88F00243046A8F8004000F069
:103550003DFB144B1A68CAF800201C60D9E7311DE6
:1035600001EB4401FFF7B7FE4034CEE737B1391D18
:1035700001EB4501FFF7CFFE4035C6E739464FF472
:103580008072BDE8F84F06F0A5BF00BFC0F2FF1F74
:1035900020D0FF1F1F800040D8F2FF1F08E200E08C
:1035A000D4F2FF1FDCF2FF1FD0F2FF1FC8F2FF1F93
:1035B000BCF2FF1FCCF2FF1F70B50021044600F0E3
:1035C00043FB80B172B61C4A1368002B29D01B49FB
:1035D0000D6805B31A4E156000220860328062B68D
:1035E000184600F0F3FA2046012100F02DFB88B1C7
:1035F00072B6144A1368CBB113490C6874B1134DF9
:103600001460002208602A8062B61846BDE8704047
:1036100000F0DCBA70BD086062B6E4E7086062B62C
:1036200070BD074910600B8062B6DCE70749106087
:103630000B8062B670BD00BFD0F2FF1FDCF2FF1F2F
:10364000BCF2FF1FC8F2FF1FD4F2FF1FCCF2FF1F16
:10365000F8B501215A485B4D5B4C00F0DFFB5B4B3A
:103660005B495C4800222A6022601A6842F40042EA
:103670001A600A6842F002020A601A6842F0020206
:103680001A600368002B3BDB534B1B68002B37DBB6
:10369000524A4FF0804313601368002BFCDB504C00
:1036A0005048DFF890E15049504B514A514F524E2B
:1036B000524D4FF2FE0CC4F800C0002404600120FB
:1036C000CEF80000DFF870E1C1F800E04FF480317F
:1036D00019604B4B1360DFF864E14A4A3A6034608A
:1036E00028604948CEF80000484CB9674848494925
:1036F00046F8503C4FF4C0632A61236003600B60BE
:103700002F4D454B45494FF4C0621A602B6820226B
:103710001960197C1A746FF00F02597C5A740221D7
:103720009A7C99744022D87CDA740022987D9A752C
:1037300001244FF0FF306FF00106197119725E73AA
:10374000D97D5A715A729A72DA721A731A755A7549
:103750001A765A769A769C71DC71DC759873D873F8
:10376000DA762979987F9A7701F18041D87FDC77E2
:1037700001F5043106201E7F18778D205E7F5A7771
:103780000A70087000F0F0FA2A79254B254E18705F
:1037900053119B0003F1604302F01F070D49224DB6
:1037A000327002F1100003F56143BC401F4E204A05
:1037B0004FF080770F600E6045F820201C60F8BD48
:1037C000C0F2FF1FD0F2FF1FC8F2FF1F3C80044071
:1037D0004080044000F0024080F0024000F10240CE
:1037E00004F1024060F0024008F002400CF0024098
:1037F00010F0024014F00240E0F0024084F0024079
:103800001B0F0100000F0F0F0300004708B004401A
:103810000CB0044018B0044004B0044020CFFF1F97
:10382000D8F2FF1F1B80004000D2FF1F0100009054
:10383000B534000004F002400300000788F00240A5
:10384000284B29491A68294842F400421A600A683C
:1038500042F002020A601A6842F002021A6003682B
:10386000002B3DDB224B1B68002B39DB214A4FF03C
:10387000804313601368002BFCDBF0B51E4C1F481F
:10388000DFF8ACE01E491F4B1F4A204F204E214D50
:103890004FF2FE0CC4F800C0002404600120CEF8F2
:1038A0000000DFF890E0C1F800E04FF480311960CB
:1038B000194B1360DFF880E0184A3A6034602860E2
:1038C0001748CEF80000174CB9671748174946F853
:1038D000503C4FF4C0632A61236003600B60F0BD6D
:1038E000704700BF3C8004404080044000F002402C
:1038F00080F0024000F1024004F1024060F002401A
:1039000008F002400CF0024010F0024014F00240B7
:10391000E0F0024084F002401B0F0100000F0F0F87
:103920000300004708B004400CB0044018B0044045
:1039300004F002400300000788F00240024A0349F5
:10394000034806F0C5BA00BF30D7FF1FE52F0000BF
:10395000C0F2FF1F024A0349034806F0B9BA00BF8C
:1039600030D7FF1FE52F0000E0F2FF1F024A034996
:10397000034806F0ADBA00BF30D7FF1FE52F0000A7
:10398000E8F2FF1F024A0349034806F0A1BA00BF4C
:1039900030D7FF1FE52F0000F0F2FF1F024A034956
:1039A000034806F095BA00BF30D7FF1FE52F00008F
:1039B000F8F2FF1F10B50021044600F045F998B158
:1039C00094F8F6308BB194F8F43094F8F520013384
:1039D000342BC8BF0023934207D09A1D04EB820208
:1039E000DBB2506084F8F43010BDBDE8104000F048
:1039F000EDB800BF2DE9F84385690DB9BDE8F8833E
:103A0000064600F097F804460028F7D0F369043022
:103A100004F5827744F2A71111FB13FEDFF8B8C05A
:103A20009AB24FEADE334FEA0E4E01FB02330EEA42
:103A30000C0C634423F0004202EBD37335FB03FE0E
:103A400011FB13FC244A4FEA0C4808EA020202EB7D
:103A5000DC329BB201FB032323F0004202EBD37361
:103A600035FB03F2CEEA024E11FB13FC1A4A4FEA71
:103A70000C4808EA02029BB202EBDC3201FB032293
:103A800022F0004303EBD27235FB02FC11FB12F86B
:103A9000114B4FEA084909EA030303EBD83392B20A
:103AA00001FB023222F0004303EBD27335FB03F239
:103AB000CCEA024240F808EB874240F8042CABD82D
:103AC0003046F3612146002200F0A4F82046BDE80C
:103AD000F84300F07BB800BF0000FF7FC029F0B4BE
:103AE00028BFC02172B6114B114E186000233360FD
:103AF0007360B360F36033617361012799B15D094D
:103B000003F01F0456F8252007FA04F4013322437A
:103B10008B4246F82520F2D10023437001338B42BB
:103B200000F58270F9D162B6F0BC70470CF3FF1F4C
:103B300014F3FF1F70B472B6204B196821B959688D
:103B400021B30433202200E000221D4E3478B1FA64
:103B500081F54FF00040E8400134E4B221EA000072
:103B60003470186062B6531B03EB83139A00154B35
:103B70001549186802F5FB531C330122C2540A7818
:103B8000A242184438BF0C7070BC7047996821B9C4
:103B9000D96829B10C336022D7E708334022D4E733
:103BA000196921B9596929B11433A022CDE710331D
:103BB0008022CAE762B60846E6E700BF14F3FF1F9B
:103BC00011F3FF1F0CF3FF1F08F3FF1F427872B6BB
:103BD0000378012B03D9013B037062B6704770B4C0
:103BE00056110A4D0A4C55F826102378D2434FF04F
:103BF000004002F01F0220FA02F21143013B45F897
:103C00002610237062B670BC704700BF14F3FF1F0C
:103C100011F3FF1FC368B3B130B401E0DB688BB1AF
:103C2000187A9042FAD158685C7A006950F82450AA
:103C3000002DF3D140F82410087801300870DB68BB
:103C4000002BEDD130BC7047437A8B4206D9036913
:103C5000002253F8210043F82120704700207047CC
:103C6000F8B5437A8B4247D9026952F821500023B4
:103C700042F82130002D3FD02A78012A37D972B678
:103C800029490A685AB30C46284F3978B2FA82F6A5
:103C90004FF00040F0400131C9B222EA0000397013
:103CA000206062B69B1B03EB83139B002048214AD4
:103CB000006803F5FB531C330124C45416788E426C
:103CC00000EB030400D211704FF48072291D201DF7
:103CD00000F086FA20462B78013B2B70F8BD4A682D
:103CE0003AB98A6852B101F108044023CCE728466A
:103CF000F8BD0C1D2023C7E70020F8BDCA682AB90B
:103D00000A693AB101F110048023BDE701F10C0406
:103D10006023B9E74A691AB101F11404A023B3E79B
:103D200062B61046D7E700BF14F3FF1F11F3FF1F61
:103D30000CF3FF1F08F3FF1F4368427A5B7A9A4235
:103D40000ED872B60168CA680AB90AE01A46D36882
:103D5000002BFBD1D060426801230B72137262B654
:103D60007047C860F7E700BF084B1A785AB908488F
:103D7000084910B4D0240470012210460A601A7059
:103D80005DF8044B70470020704700BF10F3FF1F21
:103D900040E400E008E100E01A491B4A1B48F8B57E
:103DA0000B681B4D046843F080730B60136843F08D
:103DB000010313602E6814B915E064699CB1237A7D
:103DC000002BFAD023682F681B68204698472B6881
:103DD000E188DB1B1B099AB28B42A28088BFE2807C
:103DE0006469002CEBD10A4B0A4A1B6810880A4C04
:103DF0009B1B1B0999B28342218001D91180F8BD18
:103E0000F8BD00BFFCED00E0001000E004F3FF1F70
:103E1000041000E012F3FF1F2CF3FF1FF0B572B681
:103E200099B904688CB102790F2A0ED843490B88DE
:103E300043FA02F5EF070AD502F1007202F590622B
:103E4000B4EB421F03D162B6F0BD3C490B8813F0BE
:103E5000010226D09E0757D55D0757D51C0757D5B9
:103E6000DA0657D59F0657D55E0657D51D0657D596
:103E7000DC0557D59A0557D55F0557D51E0557D58B
:103E8000DD0457D59C0457D55A0409D5DA0B08BF71
:103E90000F2206D062B60022102302600371F0BD2B
:103EA0000E220124944023430B8062B6244E254DFC
:103EB000DFF89CE0244FDFF89CC0D1B20171346878
:103EC00044F00204346002F100732A681F4CA6F526
:103ED000802642F0020203F59063283E2A605B01CF
:103EE00040F28242CEF80020397000228CF8001097
:103EF0003170217003601A605A609A60DA601A614A
:103F00005A619A61DA61F0BD0122CAE70222C8E76C
:103F10000322C6E70422C4E70522C2E70622C0E75F
:103F20000722BEE70822BCE70922BAE70A22B8E75F
:103F30000B22B6E70C22B4E70D22B2E72EF3FF1FE7
:103F4000408004403C8004401A8000401F800040B4
:103F5000008000401E80004003790F2B12D80A4ACF
:103F600010B4137072B6094904790A880123A3407A
:103F700022EA03030B8062B6102200235DF8044B93
:103F800002710360704700BF1A8000402EF3FF1FCC
:103F9000F8B572B106460F4614460025336817F887
:103FA000011B1B6830469847013C0544F6D1284662
:103FB000F8BD1546FBE700BFF0B500298BB00446FD
:103FC0001BDB5AD130238DF825302368354A5F68D2
:103FD00097424AD100250DF125010E460D440027D8
:103FE00001E0236801361B68317820469847B542C6
:103FF0000744F6D138460BB0F0BD2B4B4942A3FB2A
:104000000123DB0803EB8302A1EB420130318DF881
:104010002510002B44D02D26234D2122A5FB030182
:10402000C90801EB8100013AA3EB4003D2B20AA810
:104030001044303300F8243C0B460029EED15EB327
:10404000551EEDB20AAB2B442D2203F8242CC5F1EA
:1040500022002368134A5F6801A99742294407D1C7
:10406000C5F121050028B8D1C5E701200DF12501D2
:1040700002462046B8470BB0F0BD0B4BA3FB012313
:10408000DB0803EB8302A1EB420230328DF82520DE
:10409000002B9AD00026BFE71546C2F12200D8E7D0
:1040A0002122CDE7913F0000CDCCCCCC30B50368C8
:1040B0000D490E4A5C68098883B09442ADF804103B
:1040C0000DD105461B680D2198472B689DF80510FA
:1040D0001B68044628469847204403B030BD01A918
:1040E0000222A04703B030BD9CAB0000913F00000E
:1040F00030B42948294A2A4B2A4D6024E121047012
:1041000011701B78284C082B30D00A2B27482849DF
:1041100037D00C2B0CBF35225D2212232A6023607E
:1041200002600B60234B24491B78244ABBB1012356
:104130000B601360224B23491B78234A012B26D99D
:10414000042B0FD9082B1ED9102B94BF862387234D
:104150000B6013601D4B01221A7030BC70470B605E
:104160001360E7E784230B601360F3E700F58E200C
:104170000F490830212213232A60236002600B605C
:10418000D0E73922F7E785230B601360E2E780234D
:104190000B601360DEE700BF0040074001400740AE
:1041A00040D7FF1F08B003400CB0034008B00B40DD
:1041B0000CB00B4031F3FF1F20B0034020B00B4088
:1041C00041D7FF1F24B0034024B00B4030F3FF1F42
:1041D00008B5FCF78FF9FCF711FA01F01DFCFAE7BE
:1041E000844641EA000313F003036DD1403A41D302
:1041F00051F8043B40F8043B51F8043B40F8043BC1
:1042000051F8043B40F8043B51F8043B40F8043BB0
:1042100051F8043B40F8043B51F8043B40F8043BA0
:1042200051F8043B40F8043B51F8043B40F8043B90
:1042300051F8043B40F8043B51F8043B40F8043B80
:1042400051F8043B40F8043B51F8043B40F8043B70
:1042500051F8043B40F8043B51F8043B40F8043B60
:1042600051F8043B40F8043B51F8043B40F8043B50
:10427000403ABDD2303211D351F8043B40F8043BF0
:1042800051F8043B40F8043B51F8043B40F8043B30
:1042900051F8043B40F8043B103AEDD20C3205D300
:1042A00051F8043B40F8043B043AF9D2043208D0F8
:1042B000D2071CBF11F8013B00F8013B01D30B886A
:1042C00003806046704700BF082A13D38B078DD048
:1042D00010F003038AD0C3F10403D21ADB071CBF1A
:1042E00011F8013B00F8013B80D331F8023B20F884
:1042F000023B7BE7043AD9D3013A11F8013B00F8BD
:10430000013BF9D20B7803704B7843708B78837044
:1043100060467047024A136801331360704700BF5C
:1043200034F3FF1F08B5104C08E0236859050DD47D
:1043300023681A050FD42368DB0411D423685803BB
:10434000F3D500F091FB23685905F1D502F010FB7D
:1043500023681A05EFD502F0B7FE2368DB04EDD51C
:1043600003F0C0F9EAE700BF3480044008B5FFF766
:10437000D9FF00BF014B10221A8070470020054072
:10438000704700BF094908B50B6830B16A46184448
:10439000A2F50052904202D20860184608BD05F00E
:1043A000A3FD0C2303604FF0FF3008BD44D7FF1F6F
:1043B000FEE700BFEFF3138070B9EFF310836BB922
:1043C000EFF305825AB94FF48070EFF311832BB1EC
:1043D000984228BF184670474FF0FF3070470F2AA9
:1043E00001D81846F1E7014BD05CEEE7F0E300E0BE
:1043F000084A1378802B01D0002070470649074BEC
:1044000007480860002119701378802BFCD0012028
:10441000704700BF03E007404480044001E00740CC
:1044200000002822094A1378012B01D00020704790
:1044300003F1804303F5FC23602119701378802B6E
:10444000FCD1034B034A1A600120704703E0074088
:10445000448004400000060205F074BDF0B44D1E17
:104460002E46002400E00134B0FBF2F302FB1300FF
:10447000092800F130078ABF3730F8B2C0B206F819
:10448000010F1846002BEED10A1953704CB1107869
:1044900015F8016F28700133E01A834202F80169B0
:1044A000F5DB0846F0BC704730B4054B054D064CB3
:1044B000002210211A602A602060196030BC704709
:1044C00014D0034004D0034000D003402DE9F8434A
:1044D0008F4B9048DFF870C28F4C9049DFF86CE248
:1044E0008F4E904D904F4FF000621A604FF0805207
:1044F0001A604FF000521A604FF080421A604FF07D
:1045000000421A600022026028234EF6FF70CCF8A9
:104510000000CEF8003023600EF5012E0B603360F2
:104520002B6006F500263B6005F50025A36207F524
:1045300000278B6204F5012401F5012106F6E876D7
:1045400005F6E87507F57F6710310EF1100E20347F
:1045500033602B60CEF800303B600B602360734CFF
:10456000BB618B6109212160A7F5002704F5805408
:10457000203F08343A602060BB60E36047F8041CC9
:1045800004F5FD2407F5FE27043704F2FC742260CD
:104590003860A360FB6044F8041C083404F6FC7423
:1045A000C7F8FC2F2060A4F5E124A4F2DC7433608A
:1045B0002B60C7F8F81F21685D4841F40071216045
:1045C00001685C4C0EF57F4E0EF1E80E07F588375A
:1045D00006F5803605F5803541F000710160CEF8B2
:1045E000002047F6FF710822396033602B6022609B
:1045F000FFF77EFD72B6504C504B514A1B68256840
:10460000126862B6510102D5322B88BF0135C3F55D
:104610002F3303F21F334B4FDFF82091DFF8208157
:104620009B084FF47A72A7FB031302FB05F505EB19
:104630009305322672B6D9F800102268D8F800E047
:1046400062B6C1F52F3303F21F339B08A7FB0303A8
:104650001EF0806FC5EB93034FF47A7002D03229BD
:1046600088BF013200FB0233B3F57A7F04D3013EE9
:1046700005D005F57A75DDE701F0CEF9DAE700F04F
:104680004BFF72B62D4B2E4A1B682568126862B626
:10469000520102D5322B88BF0135C3F52F3303F207
:1046A0001F33284FDFF89490DFF894809B084FF475
:1046B0007A72A7FB031302FB05F505EB93054FF494
:1046C000AF7672B6D9F800102268D8F800E062B66A
:1046D000C1F52F3303F21F339B08A7FB03031EF022
:1046E000806FC5EB93034FF47A7002D0322988BFF4
:1046F000013200FB0233B3F57A7F04D3013E05D0CB
:1047000005F57A75DDE701F087F9DAE7BDE8F883AA
:1047100004E100E004800340148003401C80034057
:10472000248003402C8003403480034000800340F9
:104730000480044000900C4034F3FF1F18E000E0B8
:1047400004ED00E0176CC116088003400C800340A4
:104750003F280CD810B40F4B53F8302092F8804209
:1047600034B1012379B182F880305DF8044B704791
:1047700003EBC00043681A6841B922F002021A60D4
:104780005DF8044B704782F80031F9E742F003020C
:104790001A60F5E7A0AB00003F2820D81B4A02EBC7
:1047A000C00301295B680FD004291DD052F83000E6
:1047B000002280F8802299B1022922D003290DD14C
:1047C0004FF481721A60704752F830004FF4A272B1
:1047D00080F880121A601A6822F020021A6070476E
:1047E0004FF480721A60704752F830104FF4A27282
:1047F000012081F880021A601A6842F020021A60D3
:10480000704740F203121A60704700BFA0AB00006F
:104810002DE9F843054672B6224F234B234A1B6805
:104820003C68126862B6520102D5322B88BF01344F
:10483000B5B3C3F52F3303F21F331D4EDFF8689075
:10484000DFF868809B084FF47A72A6FB031302FB23
:1048500004F404EB930472B6D9F800103A68D8F85F
:1048600000E062B6C1F52F3303F21F339B08A6FBAD
:1048700003031EF0806FC4EB93034FF47A7002D0F1
:10488000322988BF013200FB0233B3F57A7F04D3AB
:10489000013D05D004F57A74DDE701F0BDF8DAE7F3
:1048A000BDE8F88334F3FF1F18E000E004ED00E0FA
:1048B000176CC116431E032B14D872B60A4951F85F
:1048C000230068B170B4094C058834F81320466899
:1048D00041F82360521B24F8132062B670BC704765
:1048E00062B670470020704790F3FF1FDCF7FF1F90
:1048F000013803280BD872B6074B53F8203043B168
:1049000000205B680130002BFBD162B670470020AD
:1049100070471846F9E700BFE4F3FF1F30B472B6E2
:104920002B4A13781D0706D52A4B196A002936D061
:10493000996A002941D053781C0706D5254B196C7C
:1049400000293ED0996C002939D09378190705D5F4
:10495000204B196E002936D0996E89B1D3781B0788
:1049600007D51C4BD3F880207AB3D3F888201121C7
:104970003AB162B6184B00221A7030BC00F08EBEFD
:104980000D21154C154D227843F8315003EBC1032E
:104990000830013A5860227062B630BC7047042279
:1049A0000D4C0F4D217843F8325003EBC203083011
:1049B0004A1E5860227062B6EFE70521E1E709213F
:1049C000DFE70822ECE70C22EAE71022E8E700BF65
:1049D00004B000000000FF1F0DF4FF1FC8004000DE
:1049E00088004000431E032B1DD81B4A400140F0A5
:1049F000100030B4104472B6184CE25C032A1BD885
:104A0000DFE802F00212151703220D88E25410F0BD
:104A1000080F14BFC823882343EA05430831036005
:104A2000416062B630BC704708300222EDE70522D3
:104A3000EBE708300422E8E7094A52F8230038B1CE
:104A4000084A52F82300416042F8231062B6E9E7B1
:104A500042F82310034AF7E70000FF1F1CF4FF1F72
:104A6000E4F3FF1FF4F3FF1F2DE9F04FDFF808B365
:104A7000DFF808A387B044E0AA4F4FEA930807EB9A
:104A8000C809013ED9F8042003F00803F6B2A2F1E8
:104A9000080003F0FF04002B40F0008157F8383085
:104AA0001B0C99B222F8081C002B00F0EE809E4BE4
:104AB00022F8064C42F8044C53F82620002A00F055
:104AC000C3829A4D55F826305860994C45F8260017
:104AD00034F81630194424F8161000F0BFFD0028F1
:104AE00000F0AB82934A944B19F0080F00F10800D4
:104AF00018BF1346C9F8040047F8383008238BF86C
:104B000000309BF80040E4B261071AD58B4B1B784C
:104B1000A3B18B490A7802F0FF0322B1013BDBB25B
:104B20000B7003B900BE87490A7802F0FF032AB16F
:104B3000013BDBB20B70002B00F0558204238BF895
:104B4000003004F0080303F0FF02002B00F0CA80DD
:104B50009AF80030DBB21E098ED19C08DFF8C491B0
:104B600059F8342009EBC401C2F38302013A4968C1
:104B70000C2A00F28680DFE802F07A7A848484844A
:104B8000848445848484070008686F4D4A686F4FA9
:104B90006F4E286081B240F28160664B6A604FF0D0
:104BA000010E0022814249F834303A60C9F81020E1
:104BB000C9F8182086F800E05A4C00F2E180B1F5FF
:104BC000D06F80F04483B1F5817F00F0FA8200F26B
:104BD0008B82802900F07583822940F0F882A988B1
:104BE000042900F2F4825B485B4C8900084422707F
:104BF00062700278930740F1558484F800E04FF02A
:104C0000020E42E3514F3A6832B3544B504E54496E
:104C1000188834780D784028864645F0020828BF69
:104C20004FF0400E002C84F001043470CEEB0000F5
:104C30000CBF8824C82409EBC80680B285F00105A2
:104C400044EA0E447260188049F8384072440D708E
:104C5000002800F045813A603B4B1A88B2F5A06FFE
:104C60000FD100219A7859703E4B1A7009E0364AEC
:104C7000108842F22102904200F037812D4A49F813
:104C80003420394A0123137038E72A4A2A4B19F095
:104C9000080F18BF134647F838302FE700F0FEFC26
:104CA000324A334952F82630002B00F0D18158683F
:104CB0008C5D42F8260003F10802C9F80420032C99
:104CC00005D8DFE804F02C02292602228A551A882A
:104CD00019F0080F0CBF8823C82343EA024347F8A2
:104CE00038300BE7E00700F18181210600F1F28105
:104CF000A20706D51F4A204913780220DBB21370A1
:104D00000870E30602D51C4B10221A7007B0BDE8EC
:104D1000F08F04228A55DAE705228A55D7E7032265
:104D20008A55D4E70000FF1F90F3FF1F3CF3FF1FDD
:104D3000DCF7FF1FC80040008800400018F4FF1F88
:104D4000A1F3FF1F30F4FF1F04F4FF1F38F3FF1F10
:104D5000A0F3FF1FC020074010F4FF1F4CF3FF1FFC
:104D60000CF4FF1F9820074094200740E4F3FF1F36
:104D70001CF4FF1F88200740802007409020074038
:104D800042F22100814200F02A8100F2D880B1F580
:104D9000086F00F07682B1F5106F40F01882226A39
:104DA000B349A8780870120600F13783D9F8282093
:104DB000B049130600F12C83D9F83020AD4915060F
:104DC00000F1FF82D9F83820AA49140600F1F482D4
:104DD000D9F84020A749100600F14783D9F84820A8
:104DE000A449120600F13C83D9F85020A1491306CA
:104DF00000F13183D9F858209E49150600F1268329
:104E0000D9F860209B49140600F11B83D9F868206B
:104E10009849100600F11083D9F8702095491206C0
:104E200000F10583D9F878209249130600F1FA823F
:104E3000D9F880208F49150600F12E83D9F88820F3
:104E40008C49140600F12283D9F890208949100674
:104E500000F11683D9F898208649120600F10A83DA
:104E60008548864A864901908648874C874D02943A
:104E700000230497059680461C460F461646039568
:104E8000306828B1456800F009FC2846002DF9D1AA
:104E900000233360039B38681A46002342F824300D
:104EA00028B1456800F0FAFB2846002DF9D1002210
:104EB0003A60019A98F800301146002241F8042B1C
:104EC000029A0191023B4FF0000122F81410032BCB
:104ED00000F22B81DFE813F070012501700125013C
:104EE000BEF1400F18BF0022B5E6694A0D78487838
:104EF000157050708D78C8789570D07010680D79E5
:104F0000157186284D7989795571917100F09B81D1
:104F10006049614E0A78307882F00105002842F03D
:104F200002020D700CBF8821C82149F8321009EB2C
:104F3000C20280F001000021307051609EE642F212
:104F40002120814240F0CB81544B554C5549A878E3
:104F50001D682560CDF804E00870002002908046AE
:104F6000844604464B490D7845F0020E09EBCE030A
:104F70000393019B002B039B5C600CBF8824C82417
:104F800044EA080385F0010449F83E3032700C70A1
:104F9000DFF8E0E0404BDFF8FC80002840F01E81A5
:104FA000BCF1400F1BD144F0020C09EBCC03029C76
:104FB000DFF8C0E05C60002A40F02681020442F085
:104FC00088029DF804304EF83C20044433700D7084
:104FD0002346402803D10020334A3B601080334AE7
:104FE000012313704DE600F0F3FCA7E5214B2F4899
:104FF00028491A614FF0020E80F800E02C4F0A7029
:105000002C49196099602C4E2C4D2D4C9A610D2124
:105010003970FF213170DFF8B8E029702270294D16
:10502000294A8EF800109F27012406F8047C5D6051
:105030000470DA6007B0BDE8F08F244A47F8380002
:1050400013780133137059E543F826000F4D3CE502
:105050008B5D032B00F2F08001A252F823F000BF19
:10506000FD4A0000FD4A00001D51000017510000DC
:1050700018F4FF1F0000FF1FF4F3FF1F90F3FF1F42
:10508000E4F3FF1F1CF4FF1FDCF7FF1F3CF3FF1FBF
:10509000E4F7FF1F0CF4FF1FA0F3FF1F34F3FF1F03
:1050A000ECF7FF1F40F4FF1F4CF3FF1F9420074055
:1050B000C02007408800400088200740802007402B
:1050C0009820074050F3FF1FA4F3FF1F0DF4FF1FAC
:1050D0008C200740BD49BE4B80220D2008701A70FD
:1050E000A2077FF50EAE05E640F20232914240F093
:1050F000EE80A98801F07F01042968D86A88002A17
:1051000065D1B248CDF804E089000844017841F047
:105110000201017021E701238B55EFE400238B5539
:10512000ECE44FF0010388F800300134042C06F160
:10513000040607F1040708F101087FF4A1AEA54CAD
:10514000A54B2278A54D049F059E002129701A7059
:10515000130700F105816278A149DFF890820A7097
:1051600010074FF00001C9F83010C9F8381000F1ED
:10517000E1809C49A2780A700021C9F85010C9F852
:1051800058101107DFF8648200F10081E278964937
:10519000964C0A7000211207C9F87010C9F87810EF
:1051A00000F1B08033780193002183F00102C9F847
:1051B0009010C9F89810D0E64FF0000388F800303E
:1051C000B3E7A98801F07F01042940F28D807F4A6E
:1051D0000F231370864A0123137052E540287FF68F
:1051E000E2AE44F002040EEBC401029E4E60BAB17E
:1051F0009DF804107F4A19703346403888F80050F3
:1052000040334EF83420E7E69DF804303370020452
:10521000029B0D7042F0C80203444EF83C20D8E6D1
:105220009DF804101970029B734A88F800504038AA
:1052300040334EF83420CFE619F0080F0CBF02239C
:1052400003238B555AE46D4A0F21117060E66C4AB6
:105250005468002CBBD06888B5F804E003E00C3239
:105260005468002CB3D013888342F8D15388734517
:10527000F5D1000A03280CBF94F800E0B2F808E06A
:1052800003E0604A604C12782270E888704580F034
:1052900031815E490D784028844645F0020E28BFD2
:1052A0004FF0400C04EB0C0309EBCE0202930123F8
:1052B0005460CCEB00004FEA0C4800220193C82454
:1052C0005EE6514C4FF0020E22706270DDE7B1F5E0
:1052D000A06F7FF47CAF0123002201933DE642F2F0
:1052E00021329142F7D072E76A88002A7FF46FAFCB
:1052F0003648CDF804E089000844017821F0020125
:1053000001702AE600F0AAF9002800F0E6800830D3
:10531000C4F884003848C9F8800000F09FF9334A87
:10532000002800F0D48008303249C2F88C00C2F85E
:10533000881037E700F092F9002800F0BB800830B1
:10534000C8F844002C48C9F8400000F087F9274A03
:10535000002800F0AA8008302649D064916408E74C
:1053600000F07CF9002800F0C1800830C9F8240062
:105370002148C9F8200000F071F91C4A002800F00B
:10538000B08008301B49D0629162E4E600F066F913
:10539000002800F098800830C8F864001648C9F862
:1053A000600000F05BF9114A002800F087800830A7
:1053B0001049D0669166E9E6C86B083800F06EF9CE
:1053C00006E5486B083800F069F9FBE4C0200740A7
:1053D0008020074004B00000C42007400DF4FF1FE8
:1053E000C8200740CC200740D02007400000FF1F06
:1053F00094200740C800400088004000A1F3FF1F30
:1054000008B0000018F4FF1F10F4FF1F0CF4FF1F7A
:10541000C86A083800F042F9CEE4606A083800F043
:105420003DF9C3E4C86F083800F038F900E5486F6B
:10543000083800F033F9F5E4C86E083800F02EF9AA
:10544000EAE4486E083800F029F9DFE4C86D08384E
:1054500000F024F9D4E4486D083800F01FF9C9E4DD
:10546000C86C083800F01AF9BEE4486C083800F03F
:1054700015F9B3E4D1F89C00083800F00FF9EFE417
:10548000D1F89400083800F009F9E3E4D1F88C0071
:10549000083800F003F9D7E4D1F88400083800F0A8
:1054A000FDF8CBE44FF0020EEFE6297890644A1C39
:1054B0002A705EE62A7801322A7044E729789066DD
:1054C0004A1C2A7062E62A7801322A7067E7297836
:1054D000C2F888004A1C2A7064E62A7801322A70D1
:1054E00019E7297890624A1C2A7034E62A7801323A
:1054F0002A703EE7BEF1400FF44628BF4FF0400C43
:1055000004EB0C0302930123CCEB0E004FEA0C4892
:105510000022019326E500BF2DE9F04103F010FBC6
:10552000314C324B3248DFF8E480324EDFF8E0C0D5
:10553000314F324DDFF8DCE000221A605A609A6089
:10554000DA601A615A619A61DA611A625A629A6281
:10555000DA621A635A639A63DA631A645A649A6461
:10556000DA641A655A659A65DA651A665A669A6641
:10557000DA661A675A679A67DA67C3F88020216883
:10558000C3F8842041F480212160016841F040711A
:105590000160032188F80010A020C3F307218CF8D4
:1055A000000004F528343170C3F307401449387003
:1055B0001B0E2B70CC34FF238EF80030114D0CF8ED
:1055C000B83C11480B70012306F8083C2270702685
:1055D0004FF40014102207F82C3C2E70046081F860
:1055E000F820BDE8F08100BF348004400000FF1FB8
:1055F00000D800409C200740B0200740B42007405E
:105600001020074035E400E004E100E044210740B9
:10561000402107408020074000F0B0B800F0ACB94E
:1056200000F086B800F060B800F09AB8084611465D
:1056300000F0C0B8084600F093B900BF704700BF43
:10564000044B054A1A604FF47A71002299601A716E
:105650001A73704720F4FF1FA8AD000072B60D4802
:105660000268B2FA82F30B2B10DC4FF00041D940F4
:1056700022EA0102026062B6074803EBC303DB00C3
:10568000C2180021C15010465160704762B6002018
:10569000704700BF48D7FF1FD0D3FF1F0D4B0E4AE6
:1056A000C31AA2FB03231B090B2B0CD80B4A12783D
:1056B00052B972B60A484FF00041026821FA03F36A
:1056C0001A43026062B67047064A1278002AF0D088
:1056D000FFF724B9D0D3FF1F398EE3380DF4FF1F35
:1056E00048D7FF1F18F4FF1F38B50F4D286878B151
:1056F00043880288C118013393420C7A02D2438056
:10570000204638BDFFF7CAFF002320462B6038BD76
:10571000064B1B782BB10320FFF7CCF8286000283C
:10572000E6D14FF0FF3038BD3CF4FF1F18F4FF1FE7
:1057300010B5094C206818B143881844007A10BD90
:10574000064B1B782BB10320FFF7B4F8206000282C
:10575000F2D14FF0FF3010BD3CF4FF1F18F4FF1FD3
:10576000044B054A1B6890881BB11A885B88D31AC2
:10577000184470473CF4FF1FDCF7FF1F0B4B1B78EE
:105780009BB110B50A4C206848B1FFF787FF002392
:1057900003202360FFF78EF830B1FFF77FFF03206F
:1057A000FFF788F80028F8D110BD704718F4FF1FE4
:1057B0003CF4FF1F2DE9F04F634A83B001231370BF
:1057C000019100296CD0DFF89081604F0446D8F831
:1057D00000000E46002800F081805D4D4388C3F133
:1057E0004001B14228BF314603EB01091FFA89F994
:1057F00000F108024FF0000E761AA0F8029001F1B5
:10580000FF3C1A4485F800E0002941D003F1080567
:105810000C330344054404F104094D4538BF9C4250
:105820002CBF01230023092994BF002303F00103A7
:10583000002B4AD044EA05039B0746D10B1F9B0867
:105840000133BCF1020F4FEA83093CD9A4F1040AE9
:105850009B460EF1010E5AF8043F45F8043BF34510
:10586000F7D849454A44C9EB0C0C04EB090361D055
:105870001D781570BCF1000F23D05D785570BCF118
:10588000010F1ED09B7893702144B0F802900C4613
:10589000B9F13F0F0BD82F4B05221A70002E99D16A
:1058A0000198294A0023137003B0BDE8F08F40230C
:1058B000038001460420FFF795F80020C8F8000097
:1058C000E9E72144E1E72346D2E7013A214414F80D
:1058D000013B02F8013F8C42F9D1D6E73B785BB33C
:1058E000DFF878901A4D4FF0010A08E0B9F101098C
:1058F00019D02B78BBB900F08FF83B78E3B10420C6
:10590000FEF7F6FF0728F1D80F4B83F800A0FFF74A
:10591000A5FEC8F8000000287FF460AF0A4BB9F17B
:1059200001091870E5D101234FF0FF302B7003B04F
:10593000BDE8F08F1946A8E7034A00234FF0FF3077
:10594000137003B0BDE8F08F31F4FF1F18F4FF1F90
:1059500038F4FF1F30F4FF1F34F4FF1F214801000B
:1059600000B583B002AB012103F8010D1846FFF723
:1059700021FF03B05DF804FBF8B5114B1B788BB128
:10598000104E114D346801272F7064B10F4A63889F
:1059900000271770214623800420FFF723F8376083
:1059A00000232B70F8BDFFF759FE084B28B10146C4
:1059B00004201C70FFF716F8F2E71F70F0E700BF35
:1059C00018F4FF1F34F4FF1F31F4FF1F30F4FF1FE2
:1059D00038B50E4B1B7873B90D4C216861B103F0DB
:1059E000FF054B880B800420FEF7FCFF256038BDC7
:1059F000084B01221A7038BDFFF730FE0028F7D09F
:105A00000146BDE838400420FEF7ECBF31F4FF1F2B
:105A100034F4FF1F30F4FF1F10B5224C237803B17C
:105A200010BD01232370FFF79BFEA0B900F01EFFFD
:105A3000B8B901F0C7FAD0B901F0E6FDE8B902F053
:105A40003BF900BB02F02CFC18BB02F099FF30BB05
:105A50000023237010BDFFF7F1FD00F007FF0028C1
:105A6000E7D000F095F801F0ADFA0028E4D000F09E
:105A700043F901F0C9FD0028E1D000F0F1F902F08E
:105A80001BF90028DED000F09FFA02F009FC002884
:105A9000DBD000F04DFB02F073FF0028D8D000F0FF
:105AA000EFFBD5E741F4FF1F0368C9B21B68184735
:105AB0000368C9B21B6818470368C9B21B68184756
:105AC0000368C9B21B68184708B5084600F0F4FD22
:105AD000012008BD08B5084600F0EEFD012008BD14
