:1000000000000320D101000015480000CD4700008A
:10001000CD470000CD470000CD470000CD47000090
:10002000CD470000CD470000CD4700001548000037
:1000300015480000CD47000015480000BD470000EE
:10004000154800001548000015480000154800003C
:10005000154800001548000015480000154800002C
:10006000154800001548000015480000154800001C
:10007000154800001548000015480000154800000C
:1000800015480000154800001548000015480000FC
:1000900015480000154800001548000015480000EC
:1000A0008D0E0000C10F000015480000154800002B
:1000B000154800001548000015480000196E0000A2
:1000C0001548000071750000154800008D7B000088
:1000D000154800003D82000015480000154800004A
:1000E000154800001548000015480000154800009C
:1000F000154800001548000015480000154800008C
:10010000154800001548000015480000154800007B
:1001100015480000114F0000154800001548000068
:10012000154800001548000015480000154800005B
:10013000154800001548000015480000154800004B
:10014000593E0000154800002588000015480000B1
:10015000154800001548000015480000154800002B
:100160001548000015480000F51000001548000073
:10017000154800001548000015480000154800000B
:1001800015480000154800001548000015480000FB
:100190001548000015480000058F000015480000B4
:1001A00015480000154800001548000015480000DB
:1001B00015480000154800001548000015480000CB
:1001C00015480000154800001548000015480000BB
:1001D0005C4B4CF2205210B51A804DF628121A8052
:1001E00000BF00BF04F01AFB574B4FF030621A609B
:1001F000564A9A60564ADA60564B4FF470021A60BB
:10020000554B564A1A60564A136813F4807304D14A
:1002100054490B604FF4A8531360534B1A781107DD
:1002200003D51A7842F008021A70504B5049AA229E
:100230001A70504A504B8B4204D252F8040F43F8C4
:10024000040BF8E74D4B4E4900228B4202D243F893
:10025000042BFAE74B494C4A002352F8230041F89B
:1002600023000133742BF8D1484B494A802103F80D
:10027000011B9342FBD1474B424A1A60464B8A22EC
:100280001A70A3F5805324225A70A0221A709A790A
:100290009207FCD59A79D406FCD4404A937903F0AE
:1002A0000C03082BFAD13E4B60221A7002331A78E5
:1002B000802AFCD1394B01221A715D225A719A7938
:1002C0009006FCD59979354A4906FBD5354B364918
:1002D00019600021596020231370937903F00C03F7
:1002E0000C2BFAD1314B324A1A60324B324A1A6027
:1002F00000225A60072243F8042C304AC3F80C2D20
:1003000062B604F037FB174B1B68DA0705D52C489B
:1003100004F01EFB2B4B2C4A1A602C4B1B785B06FF
:1003200009D5284C284B22689A4204D1244804F06D
:100330000FFB002323600AF077FC04F075FA04F049
:100340009BF9FEE70E20054030800440823F040008
:100350000100002B88ED00E0002008E0030000858C
:1003600010D0034014D0034002D0074000E0074003
:1003700034E0FF1F98BE000030D7FF1F34E0FF1F9E
:10038000ECF7FF1F00D2FF1F0000000000E400E0B8
:1003900064E400E008ED00E0005006400040064044
:1003A00001E007404480044000000602048004404D
:1003B000C010070014E000E01FBF02000000202072
:1003C000F33DF75A1CE00340A5C3945A00F00740E0
:1003D000FFFFFFFFFFFFFFFFFFFFFFFFFFFFFFFF2D
:1003E000FFFFFFFFFFFFFFFFFFFFFFFFFFFFFFFF1D
:1003F000FFFFFFFFFFFFFFFFFFFFFFFFFFFFFFFF0D
:10040000FFFFFFFFFFFFFFFFFFFFFFFFDEF9FFFF23
:1004100010B5054C237833B9044B13B10448AFF33E
:1004200000800123237010BD34E0FF1F0000000096
:100430009CBE0000084B10B51BB108490848AFF33B
:1004400000800848036803B910BD074B002BFBD0A0
:10045000BDE81040184700BF0000000038E0FF1F53
:100460009CBE000034E0FF1F0000000010B50446F1
:100470000AF026FF01462046BDE8104005F0EEBB1D
:1004800010B504460AF01CFF0146204605F0E6FBC5
:100490000446024803F06AFE204410BD18F4FF1F12
:1004A000002310B4104C4172026104600372C360F7
:1004B00041B1194600E0026942F82310427A013343
:1004C0009A42F8DC094B1A680AB90BE01A465369DC
:1004D000002BFBD15061002343618380C3805DF812
:1004E000044B70471860F6E7FCB60000FCF2FF1FF3
:1004F00070B5304A30491068304C314E82B00B78BC
:100500003BB123789B0704D0136835685B1B182B1D
:1005100004D813681B1AB3F57A7FF0D9294C2A48FE
:10052000C82103F03BFB204602F0B8F92721204602
:1005300002F04AFC20465522202102F053F938B13E
:10054000E28842F0040292B22046242102F04AF9E5
:10055000052211461B481D4C02F070F91C4A1D4B28
:10056000E2614FF40041012A996114D81A491B4AEB
:100570001B4B1C4891ED000A02624FF48031012AA6
:10058000996106D9802100F13C030091243009F0E3
:1005900051F902B070BD80230093382104F12C037F
:1005A00004F1200009F0E6FB0028DFD00023E3611E
:1005B000DCE700BF2CF3FF1F10F4FF1F38F4FF1F10
:1005C000E4F7FF1F50E0FF1F0002FF1FB0E2FF1F14
:1005D00000B700007CE0FF1F34D7FF1F9CE0FF1F27
:1005E000E8EDFF1F6CE5FF1F2DE9F04FADF5185D3D
:1005F00087B00DF5B0504FF48052002118300AF04A
:10060000FBFDC148FFF73CFF0DF5B05318330DF566
:10061000805A0DF5A059049398464FF0000B0DF544
:1006200083660DF618050DF618440AF1180A09F14B
:1006300018092221B54805F011FBB54803F096FDD5
:100640000821B44805F00AFB5946B14803F014FDEF
:10065000AF4803F08BFD0521AF4805F0FFFAAF4B23
:10066000186809F05BFF41EC100B0821A84803F063
:10067000FBFD0121AA4805F0F1FAA54803F076FD3B
:10068000A84B1F68002F00F07781D7F8000C80225C
:1006900086A908F059FFD7F8040C80220DF5C36134
:1006A00008F052FFD7F8080C80220DF6182108F048
:1006B0004BFFD7F80C0C80220DF6186108F044FFB0
:1006C0000DF59051D7F8100C8022183108F03CFF3E
:1006D0000521954805F0C2FA86AF57F8040B09F0DA
:1006E0001DFF41EC100B0821894803F0BDFD0221DC
:1006F0008E4805F0B3FAB742EFD102218C4805F0DD
:10070000ADFA834803F032FD05218A4805F0A6FAC8
:100710000DF5C36757F8040B09F000FF41EC100B0F
:1007200008217B4803F0A0FD0221804805F096FADD
:10073000AF42EFD102217E4805F090FA744803F0F1
:1007400015FD05217C4805F089FA0DF6182757F8A4
:10075000040B09F0E3FE41EC100B08216C4803F098
:1007600083FD0221714805F079FABC42EFD10221E4
:100770006F4805F073FA664803F0F8FC05216F48EE
:1007800005F06CFA0DF6186757F8040B09F0C6FE71
:1007900041EC100B08215E4803F066FD022163481E
:1007A00005F05CFABA45EFD10221614805F056FA2E
:1007B000574803F0DBFC0721614805F04FFA0DF5BF
:1007C0009057183757F8040B09F0A8FE41EC100BAE
:1007D00008214F4803F048FD0221544805F03EFA35
:1007E000B945EFD10221524805F038FA484803F0E4
:1007F000BDFC424680210DF6186008F01DFF424600
:100800004046012108F092FF23214E4805F026FAC8
:100810003F4803F0ABFC0BF1010B642004F04CFAF1
:10082000BBF1C80F08F104087FF403AF4648FFF797
:1008300027FE4648FFF724FE4548FFF721FE4548BE
:10084000FFF714FE0DF5C954049D183455F8040B38
:1008500009F064FE41EC100B08212D4803F004FD63
:100860000221324805F0FAF9AC42EFD13048FFF7E7
:1008700007FE0DF59050183006A9802208F02EFDD5
:100880003548FFF7F3FD0DF116040DF58B7534F9BE
:10089000021F1F4803F0F0FB0221244805F0DEF997
:1008A000A542F4D12248FFF7EBFD2C48FFF7DEFD0F
:1008B0002B4B174819780A22002303F079FC1448BF
:1008C00003F054FC2748FFF7D1FD274BDFED276AE3
:1008D0001B889FED277A07EE903AF8EEE77A77EEDD
:1008E000A67AC7EE876A16EE900A09F017FE41EC69
:1008F000100B0221064803F0B7FC054803F036FC54
:100900001C4B00229A61FEE770B7000078B7000028
:1009100018F4FF1F9CB70000A8B7000034D7FF1FD2
:10092000B0B700009CE2FF1FB4B70000BCB70000E6
:10093000C0B70000C4B70000CCB70000D4B70000B7
:10094000DCB70000E4B7000008B8000010B80000F1
:1009500018B8000020B8000028B8000034B8000023
:1009600000F3FF1F4CB800000AF3FF1F333323438B
:100970003333A3437CE0FF1F40F6144003F0C0FF75
:100980004FF4007200EB020E3946CDF800E0019002
:100990000AF032FC019B0098029303F5806239460D
:1009A00001924FF400720AF027FC029B0198039316
:1009B00003F5C06102914FF4007239460AF01CFC45
:1009C000039B0298059303F5006E39464FF40072BD
:1009D000CDF80CE00AF010FC059B039839464FF463
:1009E00080621F460AF008FC059B0948019A0360D3
:1009F000C3F8082C00980299039AC3F8040CC3F8B2
:100A00000C1CC3F8102CC3F8003C38463FE600BF6E
:100A10009CE2FF1F2DE9F04FDFF8D0B1694EDBF803
:100A20000010694B3360002283B0727232613272FF
:100A3000F260084609B9BFE010464269002AFBD1BE
:100A400046610A46614C624F20886249316001303C
:100A500000212080F06179727161B180F180B16113
:100A600039613972F96000E022465469002CFBD1EB
:100A7000DFF8A08157615648574A7C61BC80FC80F2
:100A80000193DFF894913A6002F0EEFB08F128023E
:100A900004214046FFF704FD4FF480314F4ADFF850
:100AA0007CA1C8F80020C8F8181009F11802C8F88D
:100AB0001C10C8F82010C8F8241048460121FFF780
:100AC000EFFC4749474DC9F800100AF1180202210E
:100AD0005046C9F81C40FFF7E3FC4349019BCAF8A4
:100AE0000010022005F11801CAF8204022462B60B0
:100AF0002C72EC6029610B46687221462C4600E09E
:100B0000236943F822106B7A364801329342F7DCAE
:100B1000DBF80020354B0AB952E01A465369002B26
:100B2000FBD155610024324B2E482B606C61AC80A8
:100B3000EC8002F00DFE2F4B184683E840021C7239
:100B40005C72DC6003F058F92B4B18461C7283E88A
:100B500080015C72DC6003F04FF9284B01261846D7
:100B60001C7283E80005DC605E7203F045F9244BDB
:100B700018461C7283E800065C72DC6003F03CF9E6
:100B8000204B18461C72C3F800905D605C72DC60FC
:100B900003F032F91C4B18465E72C3F800905D609A
:100BA0001C72DC6003F028F9184B194A1A600A22FB
:100BB0001A7203B0BDE8F08FCBF80060324641E70F
:100BC0001860AFE77CE0FF1FFCB60000F8F2FF1FE3
:100BD00020EEFF1F58B9000034B9000040B90000F2
:100BE00028B900005CE0FF1F00B90000FCF2FF1F05
:100BF0004CB9000078EEFF1F38EEFF1F48EEFF1FD4
:100C000058EEFF1F68EEFF1FA0E2FF1F50E0FF1F1E
:100C10000CB90000E8EDFF1FB0E2FF1F6CE5FF1FFD
:100C200090F8392090F83800101A704790F8383052
:100C300090F839209A4205D95A1C034480F838208C
:100C4000187E70474FF0FF30704700BF90F8383083
:100C500090F839209A4286BF1B18187E4FF0FF305B
:100C6000704700BF704700BFB0F85E306BB190F8BE
:100C70005D30202B07D8C218013380F85D30012089
:100C800082F83B107047012303710020704700BFBA
:100C900038B50546B0F85E0090B195F85D30144661
:100CA000C3F1210294420CD805F13B0018442246BE
:100CB00003F0EAFC95F85D30234485F85D3020466A
:100CC00038BD012014462871EEE700BF00234269B9
:100CD00080F8383080F8393080F85C3080F85D304A
:100CE00080F85E3080F85F3006CA30B40D68046961
:100CF00043662A4383660A60A370426990F86130B4
:100D00001649146813441D7A5B7B01EBC5051B0271
:100D10006D6803F4E06343F064032B6090F8623085
:100D200013449D7CDB7D01EBC5011B02496803F484
:100D3000E06343F064030B6021685368194205D0F7
:100D400003692C225A70036904229A7103692022D4
:100D50005A71036980229A7030BC70476CB90000E8
:100D6000F0B503691222DA70026993780546980695
:100D700087B04ED5B423444C937023680293029EEF
:100D80002A6905E023680393039B9B1B042B57D818
:100D9000D37803F0200303F0FF00002BF2D095F886
:100DA0005D30002B2ED000274FF0020EEB1993F888
:100DB0003B30137123680493DDF810C0286908E004
:100DC0009B060ED523680593059BCCEB0303052BEF
:100DD0003DD8C378DBB203F0020202F0FF06002A1E
:100DE000EED080F803E02A69D378DBB2DE063DD48A
:100DF0009E063BD5DB0741D4013795F85D30FFB245
:100E0000BB42D3D80020002934D1002385F85E30BE
:100E10001BE01D4C23680093009E05E023680193AE
:100E2000019B9B1B0F2B19D8D37803F0200303F0F1
:100E3000FF00002BF2D1B02385F85F0093709CE790
:100E400090702B6980229A70042007B0F0BD8670E4
:100E50002B69802204209A7007B0F0BD00239370A4
:100E60002B69802204209A7007B0F0BD8023937014
:100E70000420C8E72A6980239370C6E7002F0CBFBF
:100E800002200320F7E700BF2CF3FF1F38B54A4DBF
:100E90002A69D478E4B2E10624D51023D37063061E
:100EA0001FD504F0040404F0FF03002C5BD0434979
:100EB0006A6E414C00230B7085F85D30002A65D0C6
:100EC000904794F85D30002B60D02B69D0229A7047
:100ED00095F83B201A71012385F85C302B690222BA
:100EE000DA7038BD04F0400303F0FF00002BD8D1C6
:100EF0009379DBB203F0600160294ED0937803F060
:100F0000100303F0FF01BBB114F0010437D195F8D1
:100F10005C3095F85D00284998424BD9C8180133D8
:100F200090F83B0081F85C3010712B69D0229A70E8
:100F30002B690222DA70D4E785F8601093791E4994
:100F400043F020039371137995F839201F2ADBB2FF
:100F5000C4D81A4800780028C0D088180132037617
:100F600081F83920BAE7C02185F839309170134BE8
:100F7000127901221A702B690222DA70B1E7C023BC
:100F8000937013792B690222DA70AAE701220023F9
:100F900085F85D2085F83B3097E703F0DF03937118
:100FA000AB6E002BAAD085F8380095F83900984729
:100FB0002A69A3E71471B8E764EFFF1F60EFFF1F12
:100FC00038B54A4D2A69D478E4B2E10624D5102315
:100FD000D37063061FD504F0040404F0FF03002C53
:100FE0005BD043496A6E414C00230B7085F85D303D
:100FF000002A65D0904794F85D30002B60D02B69B3
:10100000D0229A7095F83B201A71012385F85C3044
:101010002B690222DA7038BD04F0400303F0FF00B0
:10102000002BD8D19379DBB203F0600160294ED058
:10103000937803F0100303F0FF01BBB114F0010437
:1010400037D195F85C3095F85D00284998424BD926
:10105000C818013390F83B0081F85C3010712B699F
:10106000D0229A702B690222DA70D4E785F86010DA
:1010700093791E4943F020039371137995F8392031
:101080001F2ADBB2C4D81A4800780028C0D08818BC
:101090000132037681F83920BAE7C02185F839306A
:1010A0009170134B127901221A702B690222DA70A7
:1010B000B1E7C023937013792B690222DA70AAE793
:1010C0000122002385F85D2085F83B3097E703F087
:1010D000DF039371AB6E002BAAD085F8380095F82A
:1010E000390098472A69A3E71471B8E788EEFF1F13
:1010F00060EFFF1F38B54A4D2A69D478E4B2E106A3
:1011000024D51023D37063061FD504F0040404F023
:10111000FF03002C5BD043496A6E414C00230B70E7
:1011200085F85D30002A65D0904794F85D30002B3B
:1011300060D02B69D0229A7095F83B201A71012358
:1011400085F85C302B690222DA7038BD04F0400368
:1011500003F0FF00002BD8D19379DBB203F06001DC
:1011600060294ED0937803F0100303F0FF01BBB168
:1011700014F0010437D195F85C3095F85D002849EA
:1011800098424BD9C818013390F83B0081F85C3085
:1011900010712B69D0229A702B690222DA70D4E781
:1011A00085F8601093791E4943F0200393711379F9
:1011B00095F839201F2ADBB2C4D81A4800780028D5
:1011C000C0D088180132037681F83920BAE7C021EF
:1011D00085F839309170134B127901221A702B69FE
:1011E0000222DA70B1E7C023937013792B690222CF
:1011F000DA70AAE70122002385F85D2085F83B30EC
:1012000097E703F0DF039371AB6E002BAAD085F84C
:10121000380095F8390098472A69A3E71471B8E7B0
:10122000F4EEFF1F60EFFF1FF0B517481749184A8B
:10123000184B194D194C0361456100234FF47A7521
:10124000DFF868E0164F0371037380F8613080F8AF
:10125000623085600460134E13480B710B7381F884
:10126000613081F862301371137382F8613082F853
:1012700062308D600C60C1F810E04F6195601460C1
:1012800016615061F0BD00BF64EFFF1F88EEFF1FC5
:10129000F4EEFF1F0060064068B80000D0B8000000
:1012A00088B8000000600E40A8B80000007006403A
:1012B0002149224A0B6843F080030B6011461368F2
:1012C000DB07FCD40B689B07F9D41D4B30B44FF0FF
:1012D0008072194D186000E0A2B12968194B164CB4
:1012E0000B40013A002BF7D062B1012B0AD12368E1
:1012F00013F0800F23680FD043F001132360032005
:1013000030BC70470C4A136843F4702343F0010368
:101310001360012030BC704713F4803305D023687C
:1013200043F0011323600520F4E7226842F0010234
:1013300018462260EEE700BF30100B4024100B402F
:101340000C100B4001000E002DE9F0432B4A2C4CF1
:10135000DFF8B490DFF8B480DFF8B4C02746154654
:1013600064264FF0000EC9F800E0236843F08003C4
:1013700023601368D807FCD42B689907F9D4C8F800
:1013800000C04FF0807100E0D1B120681D4B0340D8
:101390000139002BF8D099B1012B11D13B6813F022
:1013A000800F3B681BD043F001133B600320013EDC
:1013B00010D013685B0710D50028D4D0BDE8F083A7
:1013C000236843F4702343F00103013E23604FF090
:1013D0000100EED1002808BF0520BDE8F08313F41A
:1013E000803305D03B6843F001133B600520DEE706
:1013F000396841F0010118463960D8E724100B40E4
:1014000030100B4001000E0008100B400C100B4078
:101410000000DB0CF8B5384B1A780AB10320F8BD90
:101420005B78064603B94902344D354C354B364896
:101430004FF6FF774FF481322F6021601A60FFF77B
:1014400037FF0028EBD1314B31491B681C3406F1C2
:10145000400206F510702B68284F43F0200613F465
:10146000E00F2E603ED123681E05FCD50B6842F8C4
:10147000403C0B6842F83C3C0B6842F8383C0B6837
:1014800042F8343C0B6842F8303C0B6842F82C3C84
:101490000B6842F8283C0B6842F8243C0B6842F881
:1014A000203C0B6842F81C3C0B6842F8183C0B6867
:1014B00042F8143C0B6842F8103C0B6842F80C3CB4
:1014C0000B6842F8083C0B6842F8043C4032824208
:1014D000C1D1002009490B68084A9B07FBD50D4B79
:1014E0001360F8BD43F4E00343F020033B60FFF7D3
:1014F0002BFF0120EEE700BFF4EFFF1F30100B4081
:1015000008100B4004100B4010003A1110100B4053
:1015100020100B4022000001F8B53B4B1A780AB1AD
:101520000320F8BD5B78074603B94902374C384DB4
:10153000384B39484FF6FF764FF4813226602960E8
:101540001A60FFF7B5FE0028EBD1344B34491B6815
:1015500007F14002264607F5107723682B4DD80681
:10156000FBD5336813F4E00F43D152F8403C0B60D5
:1015700052F83C3C0B6052F8383C0B6052F8343C5B
:101580000B6052F8303C0B6052F82C3C0B6052F868
:10159000283C0B6052F8243C0B6052F8203C0B6056
:1015A00052F81C3C0B6052F8183C0B6052F8143C8B
:1015B0000B6052F8103C0B6052F80C3C0B6052F878
:1015C000083C0B6052F8043C0B60336843F0100396
:1015D0003360336813F4E00002F1400209D1BA42EB
:1015E000BBD10A490B68094A9B07FBD50D4B136019
:1015F000F8BD2B6843F4E00343F010032B60FFF7C2
:10160000A3FE0120EDE700BFF4EFFF1F30100B40F9
:1016100008100B4004100B4000003A1810100B404B
:1016200020100B4012000001F0B53B4F3B4C3B68D3
:1016300083B006460193019DA446ADB24FF0004E23
:10164000FF20236843F480632360C4F82CE06063C8
:10165000E36A002BFCDADCF83830DBB2FF2B07D072
:101660003B680093009B9BB25B1BB3F5967FE8DB66
:101670002A4B18684FF0004540F4806041F0400468
:101680001860DD6218465C63C36A002BFCDA234CE9
:1016900018204FF00047256822FA00F345F48065D2
:1016A000DBB22560E7626363E36A002BFCDA08388B
:1016B00010F1080FEFD100292CD008290CBF872189
:1016C000FF21164B1A684FF0004042F480621A6006
:1016D000D8621A465963D36A002BFCDA0F4A0027F6
:1016E00015464FF00044FF21136843F480631360F4
:1016F000D4625163D36A002BFCDAAB6BD8B21B0601
:10170000707001D403B0F0BD0137B7F5807FEBD125
:1017100003B0F0BD9521D4E72CF3FF1F00C00240B9
:101720002DE9F0418D4C8378032B23780F4682B04E
:101730000646154618BF4F02002B3AD000213078DC
:1017400003F05AFA3A4611213046FFF76DFF20BBED
:10175000834F844A3B6801930198904680B24FF0D2
:10176000004C4FF0FF0E136843F480631360C2F81F
:101770002CC0C2F834E0D36A7A49002BFBDAD8F8DF
:101780003830DBB2FF2B737076D13B680093009B3F
:101790009BB21B1AB3F5967FE5DD3078012103F08B
:1017A0002BFA23786D4A002B47D1002002B0BDE808
:1017B000F0816D4B6D4A1978126801202070002964
:1017C0002ED072B61B78D9070BD569486949D0F875
:1017D00000C00968DFF8B0E10CEA0101CEF80010A2
:1017E000016098070BD564486249D0F800C0496889
:1017F000DFF894E10CEA01010160CEF8041059070A
:101800000BD55E485B49D0F800C08968DFF878E105
:101810000CEA01010160CEF808101B0774D462B60F
:10182000504BD968914289D0554818605549DA60C3
:1018300042F080401861196080E74B4B1B78002113
:101840001170002BB1D0D80703D54F494F4A096812
:101850001160990703D54C494D4A496811605A07F0
:1018600003D549494B4A896811601B079DD5464AF3
:10187000494BD2681A6098E7FE2B8ED1474B484AF5
:101880000A6008464B630A464B639E464B6305F568
:10189000FE77A91CD36A13F0F00FFBD0C0F834E038
:1018A000836B01F8013C1B1201F8023C02318F42AC
:1018B000F0D105F5FD7105F50075A9420DD2294A53
:1018C0001746D36A13F0F00FFBD0BB6B181201F868
:1018D000020BA94201F8013CF3D3224B30492F4AB5
:1018E000196019465A63CB6A1E4A13F0F00FFAD0FA
:1018F0003078936B012103F07FF92378174A73B98D
:10190000012002B0BDE8F08126491A4BD1F800E071
:10191000DB681D480EEA03030B60C3607FE7124BD0
:101920001B7800211170002BEAD0DF0703D5164980
:10193000164A096811609E0703D51349144A49687D
:1019400011605D0703D51049124A896811601C07B0
:10195000D6D50D4A104BD2681A60D1E708F0FF1FA8
:101960002CF3FF1F00C00240F0EFFF1F04F0FF1F29
:1019700080E100E0D0EFFF1F84E100E088E100E0BB
:1019800001401F0000001F80E0EFFF1F00E100E0AA
:1019900004E100E008E100E00CE100E0FFFF00905E
:1019A00000041F808CE100E0F0B4314E33684FF04A
:1019B000004743F4806333603D46F7623446716309
:1019C0003346511C02F20127E26A002AFCDA1A6847
:1019D00011F8016C42F480621A60DD625E63E26AB3
:1019E000002AFCDA1A6811F8026B42F48062B942EC
:1019F0001A60DD625E63E7D11D49CA6A1C4B002A8A
:101A0000FBDA1A684FF0004542F48062FF241A6046
:101A10001946DD625C63CB6A154A002BFBDA13685A
:101A20004FF0004543F48063FF2413601146D562F4
:101A30005463CB6A0E4A002BFBDA13684FF0004563
:101A400043F48063FF2413601146D5625463CB6A6C
:101A5000074A002BFBDA936BDBB203F01F024370E3
:101A6000A2F10500B0FA80F04009F0BC704700BF59
:101A700000C002402DE9F041054682B0002900F087
:101A80008D8083787D4E032B33780C46174618BF24
:101A90004C02B3B10021287803F0AEF82246182199
:101AA0002846FFF7C1FD00287AD02878012103F0ED
:101AB000A3F83378714A002B51D1002002B0BDE861
:101AC000F0816F4B6F4A197812680120307000293D
:101AD00038D072B61B78D9070BD56B486B49D0F854
:101AE00000C00968DFF8B4E10CEA0101CEF800108B
:101AF000016098070BD566486449D0F800C0496872
:101B0000DFF898E10CEA01010160CEF804105907F2
:101B10000BD560485D49D0F800C08968DFF87CE1EA
:101B20000CEA01010160CEF808101B0709D55A49DB
:101B3000564BD1F800E0DB6858480EEA03030B600F
:101B4000C36062B6564BD9689142A3D0554818601D
:101B50005549DA6042F08040186119609AE7484BB5
:101B60001B7800211170002BA7D0D80703D54B4953
:101B70004E4A09681160990703D548494C4A49689B
:101B800011605A0703D545494A4A896811601B0705
:101B900093D5424A484BD2681A608EE7374E84E7A5
:101BA0003A46FE212846FFF7FFFE00283FF47DAFAE
:101BB00042483B4A036801930199904689B24FF02D
:101BC000004C4FF0FF0E136843F480631360C2F8BB
:101BD0002CC0C2F834E0D36A314C002BFBDAD8F8C1
:101BE0003870FFB2FF2F08D003680093009B9BB2B0
:101BF0005B1AB3F5167FE6DB57E700220D21284676
:101C0000FFF712FD00287FF450AF23684FF0004229
:101C100043F4806323602146E2626763CB6A204A13
:101C2000002BFBDA936B13F0FF047FF43EAF2878B0
:101C3000012102F0E1FF3278104B0AB901203DE7A3
:101C40000F4A1C701378002BF8D0DF0703D5134917
:101C5000164A096811609E0703D51049144A49685D
:101C600011605D0703D50D49124A896811601C0790
:101C7000E4D50A4A104BD2681A60DFE708F0FF1F6C
:101C8000F0EFFF1F04F0FF1F80E100E0D0EFFF1F27
:101C900084E100E088E100E08CE100E0E0EFFF1F7C
:101CA00000C0024001401F0000001F8000E100E072
:101CB00004E100E008E100E00CE100E02CF3FF1F8C
:101CC000014B024A1A60704704F0FF1F03200038DE
:101CD0002DE9F04F837985B0012B0646019205D09E
:101CE00001233371002005B0BDE8F08F42799007E1
:101CF000F6D553070F4626D5F368B569AB4200F019
:101D00002B81002D00F04981326A147C591E093460
:101D10006A1EE14022FA04F4A14200F24281002B43
:101D200000F03F81641A06F1080806E0B168306AE5
:101D300000F0DCFB013C0028D2D04246002CF5D15B
:101D4000F5602B4600E0F368019A002A43D0DFF8E3
:101D5000B8B2019D306A0279013A02EA532212F0C8
:101D6000FF09C3F3080840D1B8F1000F3DD1B168B5
:101D7000002940F0C580F369002B00F0D480B360E7
:101D8000C8F50074017C4269A4B2023B8B404A440E
:101D9000AC4203EB02092AD8B4F5007F28D1954B59
:101DA0001B68994500F0A780934B18680378FE2BB9
:101DB000494600F0CA803A46FFF75CFE00288FD003
:101DC00007F500774FF40078F3682D1B4344ADB25C
:101DD000F360002DBED1B2699A4280F0C280727960
:101DE000B36142F080027271C4E0B368C8E72C4668
:101DF000B8F1000F03D1F268B3699A425CD2484649
:101E0000012100F0DBF900283FF46AAF08EB0B0377
:101E10001819834262D008F104083A1DD84493424D
:101E200038BF474543EA070E2CBF01220022591C48
:101E30001EF0030F02F00102C1EB000E18BF0022DA
:101E40000EF1010A9C46002A4AD0BAF1090F47D97F
:101E5000AEF10302920801324FEA8209A7F10408A9
:101E60004FF0000E00930EF1010E58F8043F4CF8AD
:101E7000043B9645F7D3009BD14507EB090C03EBD8
:101E8000090E13D017F8228003F822800EF1010307
:101E900098420BD09CF801308EF801300EF102030D
:101EA000984203D09CF802308EF80230C1F1010153
:101EB00008440744A04687E700F040F900283FF4B3
:101EC0000FAF4E4A4B4BC3F80090137843F0010319
:101ED000137008EB0B03181983429CD1A04673E7DB
:101EE000013B7A1E00F1FF3C12F801EF03F801EF0D
:101EF0009C45F9D1DAE73F4A4FF0FF33136053E7CF
:101F000003AA00F0F3FA00283FF4EDAE306A3C4C2F
:101F100090F82010039B4FF6F872102918BF224644
:101F20009342FFF42CAF06F10802012100F0AAF958
:101F300000283FF4D5AEF3696BBB7279B368F361E7
:101F400062F07F027271306A1AE73846FFF7E4FAEE
:101F5000B0FA80F0400931E7019900297FF4F7AE2B
:101F600008E0284B72791B6823B1019B13B142F042
:101F70008002727111070AD5B379002B3FF4B0AE1D
:101F8000120611D400F0DAF800283FF4A9AE019847
:101F900005B0BDE8F08FB368D5E7B560F5602B46B6
:101FA000D2E6F369B360BEE60121306900F006F9BC
:101FB00000283FF495AE347D134B13EB44143FF4EB
:101FC0008FAEB3790F4A012B9CBFB369E361F3690C
:101FD000126863831B0CA38232B104F1160104F171
:101FE00018009047238B6382737903F07F0373712A
:101FF000C8E700BF38D7FF1F14F0FF1F18F2FF1FFC
:10200000F8FFFF0F0CF0FF1F18F0FF1F00B583B0A3
:1020100002AB012203F8011D1946FFF759FE03B078
:102020005DF804FB2DE9F84F90F82030DFF80481CB
:10203000C569102B0E4604469146D8F8001018D0FA
:1020400005EBD6158D421FD1374F384B06F07F0672
:1020500043F82690227E3B78012A43F0010388BF93
:10206000A2683B7082BF324B891819600120BDE81D
:10207000F88F05EB1625A94206D12B4F2B4BF6B254
:10208000294623F81690E5E7274FDFF8ACA03B7808
:102090008BB9DAF800000378FE2B20D0234A2946BA
:1020A000FFF73EFBC0B194F82030C8F80050102B69
:1020B000E4D02946C9E7DAF800000378FE2B24D0E3
:1020C0001A4AFFF7D7FC38B1DFF864B0DBF800102C
:1020D00069B900233B70DCE70020BDE8F88F294692
:1020E0001248FFF797F9B0FA80F04009DAE7DAF81A
:1020F00000000378FE2B0FD00C4AFFF7BBFC002832
:10210000EAD00023CBF80030E3E70848FFF704FAF1
:10211000B0FA80F04009D6E70448FFF7FDF9B0FABD
:1021200080F04009EBE700BF18F2FF1F18F0FF1F17
:1021300010F0FF1F38D7FF1F14F0FF1F70B51A4CA7
:1021400023780BB9012070BD184D194B2868196808
:102150000378FE2B17D0174AFFF78CFC88B1164E78
:10216000316819B900232370012070BD28680378F5
:10217000FE2B0FD00F4AFFF77DFC10B10023336018
:10218000F0E7002070BD0B48FFF7C6F9B0FA80F009
:102190004009E3E70748FFF7BFF9B0FA80F04009CC
:1021A0000028EBD1EDE700BF18F2FF1F14F0FF1F6E
:1021B00038D7FF1F18F0FF1F10F0FF1F2DE9F8435D
:1021C0002B4E336883420F4611D02A4CDFF8AC8087
:1021D0002278054692B9D8F800000378FE2B29D062
:1021E000254A2946FFF79CFAD0B1356000E0214C22
:1021F0002178394321700120BDE8F883D8F8000028
:102200000278FE2A19460ED01B4AFFF733FC38B17C
:10221000DFF86C90D9F80010A1B900232370DAE739
:102220000020BDE8F8831448FFF776F9B0FA80F093
:102230004009ECE729461048FFF7ECF8B0FA80F0C7
:102240004009D1E7D8F800000378FE2B08D00A4AED
:10225000FFF710FC0028E3D00023C9F80030DCE7CA
:102260000548FFF759F9B0FA80F04009F2E700BFDE
:1022700038D7FF1F18F2FF1F18F0FF1F14F0FF1FC1
:1022800010F0FF1F2DE9F04F136885B0002B00F010
:10229000828003F1010800230393C468631C9A46FB
:1022A0008CB34446A2453CBF0224A0469C42009108
:1022B00005460292DFF820B24FF0000623D895F8C9
:1022C0002030DFF82492EF69D9F80010102B26D0C7
:1022D00007EBD417B94226D104F07F037E4F5BF899
:1022E000233023F0704393B10134A046EB680136EC
:1022F000B34208D9A24538BF022403F1010338BF15
:10230000A0469C42DBD9002005B0BDE8F08F631CDD
:102310000099C8EB0302914257D01C46E6E707EB51
:102320001427B94213D06D4B1B78ABB96C4B1868AE
:102330000378FE2B27D0684A3946FFF7F1F90028C9
:10234000E1D095F82030C9F80070102BC4D1E3B269
:10235000614F3BF81330C6E7614B01931868027870
:10236000FE2A00F08D805C4AFFF784FB019B002869
:10237000C9D05C4A1168B9B95849186800220A7076
:102380000378FE2BD7D139465348FFF743F8B0FA0C
:1023900080F04009D3E7A1F10103B3FA83F35B09AD
:1023A000D0F80080039378E74D4A019310680278D3
:1023B000FE2A00F08980484AFFF75CFB019B002859
:1023C000A1D0484900220A60D6E7012C9BD9EB68CE
:1023D00001339C4297D86FF0704221462846FFF7A0
:1023E00021FE00288FD0A04552D204F1FF3ABAF165
:1023F000010F88D9EB680133534584D3DFF8DCB093
:102400002EE006EBDA16B3420AD000213046FFF781
:10241000D5FE00283FF477AF95F82030102B2AD056
:102420000AF07F0347F823409BF800302A7E43F0F0
:102430000103012A8BF8003003D9AB681E44294BF5
:102440001E60D04524D00AF1FF3ABAF1010F3FF4E3
:102450005AAFEB6801339A4504F1FF343FF653AFAE
:1024600095F82030EE69102BD9F80030C9D106EB71
:102470001A26B342C9D15FFA8AF327F81340D3E78B
:102480001548FFF749F8B0FA80F04009019B6EE764
:10249000029B196871B101297FF635AFEB680133F2
:1024A00099423FF630AF42462846FFF7BBFD002871
:1024B0003FF429AF029BC3F80080039B13B108F1DE
:1024C00001032B6001201FE70348FFF725F8B0FA4E
:1024D00080F04009019B72E718F0FF1F18F2FF1F00
:1024E00014F0FF1F10F0FF1F38D7FF1F2DE9F84F22
:1024F000C36801338B422FD390F82030DFF8F4808B
:10250000C469102B0E4617460546D8F800100ED0A9
:1025100004EBD6148C420ED106F07F01344B53F8F5
:10252000213023F070433B600120BDE8F88F04EBBD
:102530001624A14219D0DFF8C0A0DFF8C0909AF8A5
:102540000030D3B9D9F800000378FE2B31D0284AE7
:102550002146FFF7E5F810B90020BDE8F88F95F89F
:102560002030C8F80040102BD6D1F1B2204B33F800
:1025700011303B600120BDE8F88FD9F800000378E6
:10258000FE2B0DD01A4AFFF775FA0028E4D0DFF8C9
:1025900070B0DBF80010B1B900238AF80030D1E741
:1025A0001348FEF7B9FFB0FA80F040090028EED1D9
:1025B000D2E721460E48FEF72DFFB0FA80F0400921
:1025C0000028CCD1C8E7D9F800000378FE2B08D04A
:1025D000074AFFF74FFA0028BED00023CBF800309F
:1025E000DAE70348FEF798FFB0FA80F04009F2E717
:1025F00018F0FF1F38D7FF1F18F2FF1F14F0FF1F3E
:1026000010F0FF1F064B074ADA62022100225960D0
:102610009A7083F8242083F8302083F832207047A2
:102620001CF2FF1FF0B800002DE9F04FADF61C0DB5
:1026300004464FF40072002106A808F0DDFD4FF4B7
:102640000072002186A808F0D7FD4FF40072002127
:102650000DF5836008F0D0FD00210DF5C3604FF447
:10266000007208F0C9FD2046002101F04DFB002852
:1026700063D005460121204601F046FB07460028AD
:102680005BD0236A002B52D0012B5AD0802206A99E
:10269000281D06F019FD802286A9381D06F014FDBC
:1026A00001F0A8FA814601F0A5FA8046B9F1000FC1
:1026B0003DD000283BD080260DF5C3638DE848004F
:1026C00086AA0DF5836306A904F1240007F0D0F86B
:1026D000DFF804B1324609F104010DF5836006F01C
:1026E000FDFD324608F104010DF5C36006F0F6FD6C
:1026F000DBF800608EB306AA236AC6F8002C86AA0F
:10270000C6F8042C0DF58362C6F8082C0DF5C362DB
:10271000C6F80C2CC6F8103C20460022494601F0B1
:10272000D9FA484601F0B2FA404601F0AFFA28461D
:1027300001F0ACFA384601F0A9FA0DF61C0DBDE81F
:10274000F08F20460022294601F0C4FA284601F005
:102750009DFA384601F09AFAEFE740F6144002F08D
:10276000CFF84FF40072824683183146029308F086
:1027700043FD0AF580623146039202984FF40072DD
:1027800008F03AFD0AF5C06104914FF40072314639
:10279000039808F031FD0AF5006331464FF40072EA
:1027A0000498059308F028FD31464FF4806205989F
:1027B00008F022FD0298039A0499059BCBF800A02B
:1027C0005646CAF8040CCAF8082CCAF80C1CCAF8F9
:1027D000103CCAF800AC8EE79CE2FF1F0020704757
:1027E00000207047F8B5144C037A242908BFC28032
:1027F0005B0001250E462046C1F30721174684F8E9
:102800003B3084F85E5084F85D50FEF72DFAF1B24B
:102810002046FEF729FAC7F307212046FEF724FADF
:10282000F9B22046FEF720FA29462046FEF798FA2C
:10283000B0FA80F04009F8BD64EFFF1F70B50F29B2
:10284000154C037A28BF0F210F2A4FEA430328BFF4
:102850000F2201250E462046002142EA061684F882
:102860003B3084F85E5084F85D50FEF7FDF9204659
:102870002021FEF7F9F920460021FEF7F5F9F1B223
:102880002046FEF7F1F929462046FEF769FAB0FA2C
:1028900080F0400970BD00BF64EFFF1FF8B5EB4C3E
:1028A0000125064605712046FEF710FA052002F0C4
:1028B00003FA337A84F85E50AB402046002184F856
:1028C0003B3084F85D50FEF7CFF920463021FEF70B
:1028D000CBF920464021FEF7C7F920466021FEF7DC
:1028E000C3F929462046FEF73BFA337A84F85E5056
:1028F000AB402046002184F83B3084F85D50FEF761
:10290000B3F920462621FEF7AFF920460021FEF755
:10291000ABF920466C21FEF7A7F929462046FEF7C1
:102920001FFA337A84F85E50AB402046002184F8C9
:102930003B3084F85D50FEF797F920462821FEF7DA
:1029400093F929462046FEF78FF92046F221FEF73B
:102950008BF929462046FEF703FA337A84F85E5055
:10296000AB402046002184F83B3084F85D50FEF7F0
:102970007BF920462C21FEF777F920460F21FEF740
:1029800073F920462221FEF76FF929462046FEF70B
:10299000E7F9337A84F85E50AB402046002184F892
:1029A0003B3084F85D50FEF75FF920463C21FEF78E
:1029B0005BF920464421FEF757F920464621FEF7F1
:1029C00053F929462046FEF7CBF9337A40F2371205
:1029D000F280AB402046002184F83B3084F85E5002
:1029E00084F85D50FEF740F920462421FEF73CF9BB
:1029F00029462046FEF738F920463721FEF734F9FC
:102A000029462046FEF7ACF9337A84F85E50AB4095
:102A10002046002184F83B3084F85D50FEF724F90D
:102A200020463021FEF720F920464021FEF71CF910
:102A30002046FF21FEF718F929462046FEF790F9B7
:102A4000337A84F85E50AB402046002184F83B3056
:102A500084F85D50FEF708F920460221FEF704F9DC
:102A600020460021FEF700F920467321FEF7FCF80E
:102A700029462046FEF774F94FF4C87002F01CF99D
:102A8000337A84F85E50AB402046002184F83B3016
:102A900084F85D50FEF7E8F820462E21FEF7E4F8B2
:102AA00020461D21FEF7E0F820461D21FEF7DCF848
:102AB00029462046FEF754F9337A84F85E50AB403D
:102AC0002046002184F83B3084F85D50FEF7CCF8B6
:102AD00020460421FEF7C8F820460021FEF7C4F87E
:102AE00020460421FEF7C0F829462046FEF738F9B3
:102AF000337A84F85E50AB402046002184F83B30A6
:102B000084F85D50FEF7B0F820460621FEF7ACF8D9
:102B100029462046FEF7A8F820463021FEF7A4F803
:102B200029462046FEF71CF9337A84F85E50AB4004
:102B30002046002184F83B3084F85D50FEF794F87D
:102B400020460A21FEF790F820460021FEF78CF877
:102B500020461021FEF788F829462046FEF700F9A6
:102B6000337A84F85E50AB402046002184F83B3035
:102B700084F85D50FEF778F820460E21FEF774F8D1
:102B800020460021FEF770F820460021FEF76CF881
:102B900029462046FEF7E4F8337A84F85E50AB40CD
:102BA0002046002184F83B3084F85D50FEF75CF845
:102BB00020461021FEF758F820463C21FEF754F835
:102BC00020463C21FEF750F829462046FEF7C8F87B
:102BD000337A84F85E50AB402046002184F83B30C5
:102BE00084F85D50FEF740F820462221FEF73CF8BD
:102BF00020467F21FEF738F820467F21FEF734F883
:102C000029462046FEF7ACF8337A3627AB40F780EA
:102C10002046002184F83B3084F85E5084F85D50F3
:102C2000FEF722F820462421FEF71EF82046002158
:102C3000FEF71AF839462046FEF716F829462046D0
:102C4000FEF78EF875722846F8BD00BF64EFFF1FCF
:102C50009FED5A7ADFED5A7AE0EE077A2DE9F843D4
:102C6000FCEEE77A064617EE904A002C5BD0802CEB
:102C700026D933790024274663BB524D337A514815
:102C80005B000126002185F83B3085F85E6085F801
:102C90005D60FDF7E9FF22214A48FDF7E5FF39466F
:102CA0004848FDF7E1FF21464648FDF7DDFF314684
:102CB0004448FEF755F8B0FA80F04009BDE8F883C3
:102CC000C4F18004337944EA0424C4F30727E4B24E
:102CD000002BD2D0B6F806803A4D337A28F010088F
:102CE00000215B003171A6F806804FF001092846EB
:102CF00085F83B3085F85E9085F85D90FDF7B4FF70
:102D000028462421FDF7B0FF4FEA18212846FDF799
:102D1000ABFF08F0EF012846FDF7A6FF494628461D
:102D2000FEF71EF8AAE7274D037A012717EE901A3F
:102D3000BB400771284685F83B3085F85E7085F802
:102D40005D70FDF791FF28462221FDF78DFF284693
:102D50007F21FDF789FF28467F21FDF785FF394652
:102D60002846FDF7FDFFB6F80680337A48F01008D4
:102D70001FFA88F8BB40A6F806802146284685F849
:102D80003B3085F85E7085F85D70FDF76DFF284675
:102D90002421FDF769FF4FEA18212846FDF764FF5B
:102DA0005FFA88F12846FDF75FFF39462846FDF7B0
:102DB000D7FFB0FA80F04009BDE8F8830000014376
:102DC000EE7CFF3E64EFFF1F2DE9F84306460C46FC
:102DD00000295BD0802926D9337900252F4663BB93
:102DE0004F4C337A4E485B000126002184F83B307B
:102DF00084F85E6084F85D60FDF736FF2221484864
:102E0000FDF732FF39464648FDF72EFF2946444874
:102E1000FDF72AFF31464248FDF7A2FFB0FA80F0E5
:102E20004009BDE8F883C1F18005337945EA0525FD
:102E3000C5F30727EDB2002BD2D0B6F80680384C88
:102E4000337A28F0100800215B003171A6F8068063
:102E50004FF00109204684F83B3084F85E9084F8F6
:102E60005D90FDF701FF20462421FDF7FDFE4FEAAE
:102E700018212046FDF7F8FE08F0EF012046FDF787
:102E8000F3FE49462046FDF76BFFAAE7244D037A7F
:102E90000127BB400771284685F83B3085F85E70F6
:102EA00085F85D70FDF7E0FE28462221FDF7DCFE87
:102EB00028467F21FDF7D8FE28467F21FDF7D4FE66
:102EC00039462846FDF74CFFB6F80680337A48F0BD
:102ED00010081FFA88F8BB40A6F80680214628464D
:102EE00085F83B3085F85E7085F85D70FDF7BCFEB7
:102EF00028462421FDF7B8FE4FEA18212846FDF7A1
:102F0000B3FE5FFA88F12846FDF7AEFE3946284643
:102F1000FDF726FFB0FA80F04009BDE8F88300BF56
:102F200064EFFF1FF8B506460D4619B1012945D0DB
:102F30000020F8BD534C037A01275B00204684F83B
:102F40003B3084F85E7084F85D70FDF78DFE2021C3
:102F50002046FDF789FE29462046FDF785FE5521CE
:102F60002046FDF781FE39462046FDF7F9FE002890
:102F7000DED1F588337A45F00405ADB25B00F5800B
:102F80000146204684F83B3084F85E7084F85D701A
:102F9000FDF76AFE24212046FDF766FE290A204639
:102FA000FDF762FEE9B22046FDF75EFE3946204697
:102FB000FDF7D6FEB0FA80F04009F8BD314C037A37
:102FC00084F85E505B000021204684F83B3084F892
:102FD0005D50FDF749FE2A212046FDF745FE2946B2
:102FE0002046FDF741FE73212046FDF73DFE2946B0
:102FF0002046FDF7B5FE0746002899D1337A84F8BC
:103000005E505B000146204684F83B3084F85D50FA
:10301000FDF72AFE20212046FDF726FE39462046F0
:10302000FDF722FE88212046FDF71EFE2946204698
:10303000FDF796FE00287FF47BAFF788337A27F000
:1030400004075B00F7800146204684F83B3084F893
:103050005E5084F85D50FDF707FE24212046FDF701
:1030600003FE390A2046FDF7FFFD07F0FB0120466D
:10307000FDF7FAFD29462046FDF772FEB0FA80F012
:103080004009F8BD64EFFF1F70B50021054600F050
:103090003BFEE0B1EB69B3B1012B064618D000F05E
:1030A000A9FD044670B1021D8023311D05F12000E9
:1030B00006F076FE28460022214600F00BFE204650
:1030C00000F0E4FD3046BDE8704000F0DFBD70BDAB
:1030D00028463146002200F0FDFD3046BDE8704034
:1030E00000F0D4BD10B5044600F096FF204610BD98
:1030F000024A0349034807F085BD00BF30D7FF1FD0
:10310000E530000070F2FF1F38B5074D074C084846
:103110002A46214607F076FD2A4621460548BDE8A5
:10312000384007F06FBD00BF30D7FF1FE53000000B
:1031300078F2FF1F80F2FF1F70B41A4A1A4B116811
:103140001A48096912790270994208D2184A12780D
:103150002AB3184A0121116003F5807402E01C466D
:10316000A3F58073144A154912680D68AAB1A5B178
:10317000134E3088402810D841000A44403029447A
:1031800002320231308033F9040B22F8020F9C42E4
:1031900033F9020C21F8020FF5D870BC704703F523
:1031A0008074DFE790F2FF1F20CEFF1F1F800040DA
:1031B0008AF2FF1F08E200E098F2FF1F8CF2FF1F67
:1031C00088F2FF1FF8B5064600F014FD0446E8B18A
:1031D00000F010FD054600283AD072B61F4B1A8841
:1031E0007F2A19D8002C31D01D490A6842B162B635
:1031F000204600F04BFD2846BDE8F84000F046BDF3
:1032000018480C601A80056062B6F8BD054672B6B3
:10321000124B1A887F2AE5D9114A1249176814609F
:1032200000220C681A800D6062B63946304600F004
:1032300051FD384600F02AFD30462146012200F0BB
:1032400049FD2046BDE8F84000F020BD62B6F8BD5B
:10325000204600F01BFD2C46BFE700BF88F2FF1F91
:1032600098F2FF1F8CF2FF1FF8B5364D012128465A
:1032700000F034FE00F064FB334B34484FF48062BE
:103280001A602B686FF05F0219781A706FF00F02E6
:1032900059785A7002219A7899704022DC78DA7055
:1032A00000221861987D9A7501244FF0FF306FF06D
:1032B0000106197219755E76D97D1A715A715A72A2
:1032C0009A72DA721A735A739A73DA735A751A7693
:1032D0009C71DC71DC759876D8762979987F9A771D
:1032E00001F18041D87FDC7701F5043106201E7F93
:1032F00018778C205E7F5A770A70087000F094FD72
:10330000134E144B2A79144930701A700B682A79BD
:103310001248134D134E43F0124323430B605311D5
:103320009B00016803F1604302F01F0703F561434E
:103330001032BC4041F01041016045F822601C6031
:10334000F8BD00BF90F2FF1F14B0044020CDFF1F56
:103350008AF2FF1F1B80004080F0024000F0024014
:1033600000D2FF1F39310000024A0349034807F029
:1033700049BC00BF30D7FF1FE530000090F2FF1FAF
:10338000024A0349034807F03DBC00BF30D7FF1F86
:10339000E53000009CF2FF1F2DE9F04F00F5807E24
:1033A000B1E8A00AB2E84015C5EA0643C6EA2544DA
:1033B000C7EA0845C8EA2746C9EA0A47CAEA2948C7
:1033C000CBEA0C49CCEA2B4AA0E8F8078645E7D1BE
:1033D000BDE8F04F70474FF000022DE9F00F00F507
:1033E000807C00BFB1E8A00AC5EA0203C2EA254416
:1033F000C7EA0205C2EA2746C9EA0207C2EA294823
:10340000CBEA0209C2EA2B4AA0E8F8078445E9D1D1
:10341000BDE8F00F70474FF000022DE9F00F00F506
:10342000807C00BFB1E8A00AC2EA0543C2EA0504F5
:10343000C2EA0745C2EA0706C2EA0947C2EA090822
:10344000C2EA0B49C2EA0B0AA0E8F8078445E9D1B1
:10345000BDE8F00F70472DE9F00F089C00F5007BE8
:1034600051F8045B53F8046BC5EA0647C6EA2549E0
:1034700052F8045B54F8046BC5EA0648C6EA254ACC
:10348000A0E880078345EBD1BDE8F00F704700BF8F
:103490002DE9F8434FF00008064600F118054746AD
:1034A00041463046002F4FD000F02EFCF0B12C6882
:1034B000B4F5803F07F1040100F1040E07F5827CAA
:1034C00027D05EF8042B34FB02F334FB12F903F32C
:1034D0000F0209F30F03C2EA03430A6893FA12F3D7
:1034E00041F8043B8C45ECD800F0D0FB08F1010812
:1034F000B8F1040F05F10405D2D1002F40D03046B9
:103500003946002200F0E6FB3846BDE8F84300F0FB
:10351000BDBB07F10C0100F10C0451F8083C54F854
:10352000082C93FA12F341F8083C54F8042C51F893
:10353000043C93FA12F38C4541F8043C04F108046E
:1035400001F10801E9D8CFE700F0EAFB07460028BF
:10355000CCD02868B0F5803FC8D0391D07F58274FB
:103560000B6830FB03F230FB13F302F30F0203F39B
:103570000F03C2EA034341F8043B8C42F0D8B5E79D
:10358000BDE8F883024A0349034807F03BBB00BF8C
:1035900030D7FF1FE5300000A4F2FF1F024A0349A5
:1035A000034807F02FBB00BF30D7FF1FE5300000F6
:1035B000ACF2FF1F2DE9F84F344B35481A683549F6
:1035C00012681B790B70824229D2334B1B784BBB9C
:1035D000DFF8D4A0DFF8D490DFF8D480DFF8D4B0DF
:1035E000DAF80060D9F80070B8F80040BBF8005075
:1035F000002E3BD09FB33A1D311D02EB450201EB7B
:103600004401FFF7C9FE403540347F2C1BD8A8F891
:1036100000407F2D0AD8ABF80050BDE8F88FA0F528
:103620008070D5E71D4B01221A60D1E7002438468F
:10363000ABF8004000F02AFB194B1A68C9F80020CB
:103640001C60BDE8F88F00243046A8F8004000F068
:103650001DFB144B1A68CAF800201C60D9E7311D05
:1036600001EB4401FFF7B7FE4034CEE737B1391D17
:1036700001EB4501FFF7CFFE4035C6E739464FF471
:103680008072BDE8F84F07F0B7BD00BFB8F2FF1F6A
:1036900020D0FF1F1F800040D0F2FF1F08E200E093
:1036A000CCF2FF1FD4F2FF1FC8F2FF1FC0F2FF1FB2
:1036B000B4F2FF1FC4F2FF1F70B50021044600F0F2
:1036C00023FB80B172B61C4A1368002B29D01B491A
:1036D0000D6805B31A4E156000220860328062B68C
:1036E000184600F0D3FA2046012100F00DFB88B106
:1036F00072B6144A1368CBB113490C6874B1134DF8
:103700001460002208602A8062B61846BDE8704046
:1037100000F0BCBA70BD086062B6E4E7086062B64B
:1037200070BD074910600B8062B6DCE70749106086
:103730000B8062B670BD00BFC8F2FF1FD4F2FF1F3E
:10374000B4F2FF1FC0F2FF1FCCF2FF1FC4F2FF1F35
:10375000F8B501215A485B4D5B4C00F0BFFB5B4B59
:103760005B495C4800222A6022601A6842F40042E9
:103770001A600A6842F002020A601A6842F0020205
:103780001A600368002B3BDB534B1B68002B37DBB5
:10379000524A4FF0804313601368002BFCDB504CFF
:1037A0005048DFF890E15049504B514A514F524E2A
:1037B000524D4FF2FE0CC4F800C0002404600120FA
:1037C000CEF80000DFF870E1C1F800E04FF480317E
:1037D00019604B4B1360DFF864E14A4A3A60346089
:1037E00028604948CEF80000484CB9674848494924
:1037F00046F8503C4FF4C0632A61236003600B60BD
:103800002F4D454B45494FF4C0621A602B6820226A
:103810001960197C1A746FF00F02597C5A740221D6
:103820009A7C99744022D87CDA740022987D9A752B
:1038300001244FF0FF306FF00106197119725E73A9
:10384000D97D5A715A729A72DA721A731A755A7548
:103850001A765A769A769C71DC71DC759873D873F7
:10386000DA762979987F9A7701F18041D87FDC77E1
:1038700001F5043106201E7F18778D205E7F5A7770
:103880000A70087000F0D0FA2A79254B254E18707E
:1038900053119B0003F1604302F01F070D49224DB5
:1038A000327002F1100003F56143BC401F4E204A04
:1038B0004FF080770F600E6045F820201C60F8BD47
:1038C000B8F2FF1FC8F2FF1FC0F2FF1F3C80044088
:1038D0004080044000F0024080F0024000F10240CD
:1038E00004F1024060F0024008F002400CF0024097
:1038F00010F0024014F00240E0F0024084F0024078
:103900001B0F0100000F0F0F0300004708B0044019
:103910000CB0044018B0044004B0044020CFFF1F96
:10392000D0F2FF1F1B80004000D2FF1F010000905B
:10393000B535000004F002400300000788F00240A3
:10394000284B29491A68294842F400421A600A683B
:1039500042F002020A601A6842F002021A6003682A
:10396000002B3DDB224B1B68002B39DB214A4FF03B
:10397000804313601368002BFCDBF0B51E4C1F481E
:10398000DFF8ACE01E491F4B1F4A204F204E214D4F
:103990004FF2FE0CC4F800C0002404600120CEF8F1
:1039A0000000DFF890E0C1F800E04FF480311960CA
:1039B000194B1360DFF880E0184A3A6034602860E1
:1039C0001748CEF80000174CB9671748174946F852
:1039D000503C4FF4C0632A61236003600B60F0BD6C
:1039E000704700BF3C8004404080044000F002402B
:1039F00080F0024000F1024004F1024060F0024019
:103A000008F002400CF0024010F0024014F00240B6
:103A1000E0F0024084F002401B0F0100000F0F0F86
:103A20000300004708B004400CB0044018B0044044
:103A300004F002400300000788F00240024A0349F4
:103A4000034807F0DFB800BF30D7FF1FE5300000A4
:103A5000B8F2FF1F024A0349034807F0D3B800BF7A
:103A600030D7FF1FE5300000D8F2FF1F024A03499C
:103A7000034807F0C7B800BF30D7FF1FE53000008C
:103A8000E0F2FF1F024A0349034807F0BBB800BF3A
:103A900030D7FF1FE5300000E8F2FF1F024A03495C
:103AA000034807F0AFB800BF30D7FF1FE530000074
:103AB000F0F2FF1F2DE9F84385690DB9BDE8F883E1
:103AC000064600F097F804460028F7D0F369043062
:103AD00004F5827744F2A71111FB13FEDFF8B8C09A
:103AE0009AB24FEADE334FEA0E4E01FB02330EEA82
:103AF0000C0C634423F0004202EBD37335FB03FE4E
:103B000011FB13FC244A4FEA0C4808EA020202EBBC
:103B1000DC329BB201FB032323F0004202EBD373A0
:103B200035FB03F2CEEA024E11FB13FC1A4A4FEAB0
:103B30000C4808EA02029BB202EBDC3201FB0322D2
:103B400022F0004303EBD27235FB02FC11FB12F8AA
:103B5000114B4FEA084909EA030303EBD83392B249
:103B600001FB023222F0004303EBD27335FB03F278
:103B7000CCEA024240F808EB874240F8042CABD86C
:103B80003046F3612146002200F0A4F82046BDE84B
:103B9000F84300F07BB800BF0000FF7FC029F0B4FD
:103BA00028BFC02172B6114B114E1860002333603C
:103BB0007360B360F36033617361012799B15D098C
:103BC00003F01F0456F8252007FA04F401332243BA
:103BD0008B4246F82520F2D10023437001338B42FB
:103BE00000F58270F9D162B6F0BC704704F3FF1F94
:103BF0000CF3FF1F70B472B6204B196821B95968D5
:103C000021B30433202200E000221D4E3478B1FAA3
:103C100081F54FF00040E8400134E4B221EA0000B1
:103C20003470186062B6531B03EB83139A00154B74
:103C30001549186802F5FB531C330122C2540A7857
:103C4000A242184438BF0C7070BC7047996821B903
:103C5000D96829B10C336022D7E708334022D4E772
:103C6000196921B9596929B11433A022CDE710335C
:103C70008022CAE762B60846E6E700BF0CF3FF1FE2
:103C800009F3FF1F04F3FF1F00F3FF1F427872B612
:103C90000378012B03D9013B037062B6704770B4FF
:103CA00056110A4D0A4C55F826102378D2434FF08E
:103CB000004002F01F0220FA02F21143013B45F8D6
:103CC0002610237062B670BC704700BF0CF3FF1F54
:103CD00009F3FF1FC368B3B130B401E0DB688BB1F7
:103CE000187A9042FAD158685C7A006950F82450EA
:103CF000002DF3D140F82410087801300870DB68FB
:103D0000002BEDD130BC7047437A8B4206D9036952
:103D1000002253F8210043F821207047002070470B
:103D2000F8B5437A8B4247D9026952F821500023F3
:103D300042F82130002D3FD02A78012A37D972B6B7
:103D400029490A685AB30C46284F3978B2FA82F6E4
:103D50004FF00040F0400131C9B222EA0000397052
:103D6000206062B69B1B03EB83139B002048214A13
:103D7000006803F5FB531C330124C45416788E42AB
:103D800000EB030400D211704FF48072291D201D36
:103D900000F07AFC20462B78013B2B70F8BD4A6876
:103DA0003AB98A6852B101F108044023CCE72846A9
:103DB000F8BD0C1D2023C7E70020F8BDCA682AB94A
:103DC0000A693AB101F110048023BDE701F10C0446
:103DD0006023B9E74A691AB101F11404A023B3E7DB
:103DE00062B61046D7E700BF0CF3FF1F09F3FF1FB1
:103DF00004F3FF1F00F3FF1F4368427A5B7A9A4285
:103E00000ED872B60168CA680AB90AE01A46D368C1
:103E1000002BFBD1D060426801230B72137262B693
:103E20007047C860F7E700BF084B1A785AB90848CE
:103E3000084910B4D0240470012210460A601A7098
:103E40005DF8044B70470020704700BF08F3FF1F68
:103E500040E400E008E100E01A491B4A1B48F8B5BD
:103E60000B681B4D046843F080730B60136843F0CC
:103E7000010313602E6814B915E064699CB1237ABC
:103E8000002BFAD023682F681B68204698472B68C0
:103E9000E188DB1B1B099AB28B42A28088BFE280BB
:103EA0006469002CEBD10A4B0A4A1B6810880A4C43
:103EB0009B1B1B0999B28342218001D91180F8BD57
:103EC000F8BD00BFFCED00E0001000E0FCF2FF1FB9
:103ED000041000E00AF3FF1F24F3FF1FF0B572B6D1
:103EE00099B904688CB102790F2A0ED843490B881E
:103EF00043FA02F5EF070AD502F1007202F590626B
:103F0000B4EB421F03D162B6F0BD3C490B8813F0FD
:103F1000010226D09E0757D55D0757D51C0757D5F8
:103F2000DA0657D59F0657D55E0657D51D0657D5D5
:103F3000DC0557D59A0557D55F0557D51E0557D5CA
:103F4000DD0457D59C0457D55A0409D5DA0B08BFB0
:103F50000F2206D062B60022102302600371F0BD6A
:103F60000E220124944023430B8062B6244E254D3B
:103F7000DFF89CE0244FDFF89CC0D1B201713468B7
:103F800044F00204346002F100732A681F4CA6F565
:103F9000802642F0020203F59063283E2A605B010E
:103FA00040F28242CEF80020397000228CF80010D6
:103FB0003170217003601A605A609A60DA601A6189
:103FC0005A619A61DA61F0BD0122CAE70222C8E7AC
:103FD0000322C6E70422C4E70522C2E70622C0E79F
:103FE0000722BEE70822BCE70922BAE70A22B8E79F
:103FF0000B22B6E70C22B4E70D22B2E726F3FF1F2F
:10400000408004403C8004401A8000401F800040F3
:10401000008000401E80004003790F2B12D80A4A0E
:1040200010B4137072B6094904790A880123A340B9
:1040300022EA03030B8062B6102200235DF8044BD2
:1040400002710360704700BF1A80004026F3FF1F13
:10405000F8B572B106460F4614460025336817F8C6
:10406000011B1B6830469847013C0544F6D12846A1
:10407000F8BD1546FBE700BFF0B500298BB004463C
:104080001BDB5AD130238DF825302368354A5F6811
:1040900097424AD100250DF125010E460D44002717
:1040A00001E0236801361B68317820469847B54205
:1040B0000744F6D138460BB0F0BD2B4B4942A3FB69
:1040C0000123DB0803EB8302A1EB420130318DF8C1
:1040D0002510002B44D02D26234D2122A5FB0301C2
:1040E000C90801EB8100013AA3EB4003D2B20AA850
:1040F0001044303300F8243C0B460029EED15EB367
:10410000551EEDB20AAB2B442D2203F8242CC5F129
:1041100022002368134A5F6801A99742294407D106
:10412000C5F121050028B8D1C5E701200DF1250111
:1041300002462046B8470BB0F0BD0B4BA3FB012352
:10414000DB0803EB8302A1EB420230328DF825201D
:10415000002B9AD00026BFE71546C2F12200D8E70F
:104160002122CDE751400000CDCCCCCC30B5036846
:104170000D490E4A5C68098883B09442ADF804107A
:104180000DD105461B680D2198472B689DF8051039
:104190001B68044628469847204403B030BD01A957
:1041A0000222A04703B030BD5CB9000051400000BE
:1041B000F0B506468BB0002A46D0012A08BF0A2275
:1041C00000293CD0212500E0FDB2B1FBF2F402FB56
:1041D0001411C8B2092900F1300198BFC8B20AA968
:1041E00088BF3730294488BFC0B201F8240C6F1E45
:1041F0002146002CE8D133B1013DEDB20AAB2B448E
:104200002D2203F8242C336816495F6801AA8F42D7
:1042100002EB0504C5F122021CD1C5F12105F2B162
:104220002544002701E0336801341B6821783046BB
:104230009847A5420744F6D138460BB0F0BD30226E
:104240008DF825202125D6E70368C9B21B68984759
:104250000BB0F0BD21463046B8470BB0F0BD10465C
:10426000EBE700BF514000002DE9F04F57EC106B19
:104270008DB005468A4610EE102A3B4610EE100A15
:10428000394606F039FC002840F04A8127F0004901
:10429000304649464FF0FF32B54B06F02DFCF0B9E1
:1042A000304649464FF0FF32B14B06F007FCB0B93B
:1042B0002B68B04A5C68944240F02481AE4E0446BC
:1042C000F71C00E02B6816F8011B1B68284698476E
:1042D000BE420444F6D120460DB0BDE8F08F4FF049
:1042E0006042A64B3046394606F0FCFB04460028E7
:1042F00040F0E4804FF06042A14B3046394606F072
:10430000D3FB002840F0C880002200233046394605
:1043100006F0CAFB002840F0E780044600209949D7
:10432000BAF1000F0CD04FF000088FA3D3E900239F
:1043300008F1010806F046F95FFA88F39A45F4D8C7
:1043400002460B463046394605F08AFFCDE90001AA
:1043500006F0E8FB8146002800F099808A49A1FB1D
:104360000023DB0803EB8302A0EB420230328DF81E
:104370002D20002B00F0ED808E462120AEFB031295
:10438000D20802EB82010138A3EB4103C0B20CA9B1
:104390000144303301F8243C1346002AEED134B1F5
:1043A0000138C0B20CAB03442D2203F8242C2F6833
:1043B000DFF8C0817B6803AA434502EB0001C0F12E
:1043C000220240F09680C0F12100002A00F0A08077
:1043D0008B460C18002602E02F680BF1010B3B689E
:1043E0009BF8001028469847A3450644F4D134466C
:1043F000BAF1000F3FF46FAF2E2348468DF80C3012
:1044000006F06AF802460B46DDE9000105F026FFDA
:10441000BAF10F0F28BF4FF00F0A0AF1010A5FFA35
:104420008AFA4FF001090022584B06F0CBF80F46EC
:10443000064606F077FB0CAB4B44C0B200F13002ED
:1044400003F8242C06F058F809F1010902460B463E
:104450005FFA89F93046394605F000FFD145E2D1CF
:104460002B685E68464548D1A9F1020903AE02E017
:104470002B6809F1FF391B6816F8011B284698477D
:10448000B9F1FF3FF4D120460DB0BDE8F08F3023E5
:104490008DF82D30212082E72B68364A5E689642DF
:1044A00051D13B4EF71C00E02B6816F8011B1B682E
:1044B00028469847BE420444F6D10CE72B682D4AA3
:1044C0005C68944226D1324E0024F71C00E02B6831
:1044D00016F8011B1B6828469847BE420444F6D1D3
:1044E00020460DB0BDE8F08F07F100431F460124C0
:1044F00014E72846984704467AE74A4603A928461F
:10450000B047E8E6284603221B49A0470446E2E6F6
:1045100014466DE7284603221D49A0470446DAE603
:104520002B68144A5C68944215D11A4E0024F71C7B
:1045300000E02B6816F8011B1B6828469847BE420E
:104540000444F6D1C7E6284603221149B047044681
:10455000C1E6212023E7284603220E49A04704464E
:10456000B9E600BFAFF30080000000A09999B93F01
:10457000FFFFEF7F5140000064B90000FFFFEF41F3
:10458000FFFFEFC10000E03FCDCCCCCC00002440C9
:1045900068B9000060B9000030B42948294A2A4BA4
:1045A0002A4D6024E121047011701B78284C082BDF
:1045B00030D00A2B2748284937D00C2B0CBF352286
:1045C0005D2212232A60236002600B60234B244982
:1045D0001B78244ABBB101230B601360224B234993
:1045E0001B78234A012B26D9042B0FD9082B1ED95F
:1045F000102B94BF862387230B6013601D4B012271
:104600001A7030BC70470B601360E7E784230B60BF
:104610001360F3E700F58E200F49083021221323A1
:104620002A60236002600B60D0E73922F7E7852318
:104630000B601360E2E780230B601360DEE700BFCE
:1046400000400740014007403CD7FF1F08B003402F
:104650000CB0034008B00B400CB00B4029F3FF1F17
:1046600020B0034020B00B403DD7FF1F24B00340D3
:1046700024B00B4028F3FF1F08B5FBF739FFFBF709
:10468000B3FF01F01DFCFAE7844641EA000313F092
:1046900003036DD1403A41D351F8043B40F8043B49
:1046A00051F8043B40F8043B51F8043B40F8043B0C
:1046B00051F8043B40F8043B51F8043B40F8043BFC
:1046C00051F8043B40F8043B51F8043B40F8043BEC
:1046D00051F8043B40F8043B51F8043B40F8043BDC
:1046E00051F8043B40F8043B51F8043B40F8043BCC
:1046F00051F8043B40F8043B51F8043B40F8043BBC
:1047000051F8043B40F8043B51F8043B40F8043BAB
:1047100051F8043B40F8043B403ABDD2303211D34B
:1047200051F8043B40F8043B51F8043B40F8043B8B
:1047300051F8043B40F8043B51F8043B40F8043B7B
:10474000103AEDD20C3205D351F8043B40F8043B4B
:10475000043AF9D2043208D0D2071CBF11F8013B49
:1047600000F8013B01D30B8803806046704700BF0F
:10477000082A13D38B078DD010F003038AD0C3F11E
:104780000403D21ADB071CBF11F8013B00F8013B00
:1047900080D331F8023B20F8023B7BE7043AD9D3BF
:1047A000013A11F8013B00F8013BF9D20B78037094
:1047B0004B7843708B78837060467047024A136869
:1047C00001331360704700BF2CF3FF1F08B5104C76
:1047D00008E0236859050DD423681A050FD423680F
:1047E000DB0411D423685803F3D500F091FB236850
:1047F0005905F1D502F010FB23681A05EFD502F038
:10480000B7FE2368DB04EDD503F0C0F9EAE700BF8B
:104810003480044008B5FFF7D9FF00BF014B1022D8
:104820001A80704700200540704700BF094908B54D
:104830000B6830B16A461844A2F50052904202D289
:104840000860184608BD06F0E9F90C2303604FF034
:10485000FF3008BD40D7FF1FFEE700BFEFF3138016
:1048600070B9EFF310836BB9EFF305825AB94FF4C7
:104870008070EFF311832BB1984228BF1846704720
:104880004FF0FF3070470F2A01D81846F1E7014B6F
:10489000D05CEEE7F0E300E0084A1378802B01D00B
:1048A000002070470649074B07480860002119702F
:1048B0001378802BFCD00120704700BF03E0074035
:1048C0004480044001E0074000002822094A137890
:1048D000012B01D00020704703F1804303F5FC2336
:1048E000602119701378802BFCD1034B034A1A60A6
:1048F0000120704703E007404480044000000602A6
:1049000006F0BAB9F0B44D1E2E46002400E0013482
:10491000B0FBF2F302FB1300092800F130078ABF55
:104920003730F8B2C0B206F8010F1846002BEED1AE
:104930000A1953704CB1107815F8016F28700133C3
:10494000E01A834202F80169F5DB0846F0BC7047C3
:1049500030B4054B054D064C002210211A602A6028
:104960002060196030BC704714D0034004D003406D
:1049700000D003402DE9F8438F4B9048DFF870C218
:104980008F4C9049DFF86CE28F4E904D904F4FF076
:1049900000621A604FF080521A604FF000521A60A5
:1049A0004FF080421A604FF000421A60002202600D
:1049B00028234EF6FF70CCF80000CEF800302360BC
:1049C0000EF5012E0B6033602B6006F500263B6070
:1049D00005F50025A36207F500278B6204F5012485
:1049E00001F5012106F6E87605F6E87507F57F671B
:1049F00010310EF1100E203433602B60CEF80030F1
:104A00003B600B602360734CBB618B6109212160AB
:104A1000A7F5002704F58054203F08343A60206051
:104A2000BB60E36047F8041C04F5FD2407F5FE278E
:104A3000043704F2FC7422603860A360FB6044F821
:104A4000041C083404F6FC74C7F8FC2F2060A4F59D
:104A5000E124A4F2DC7433602B60C7F8F81F2168EE
:104A60005D4841F40071216001685C4C0EF57F4E99
:104A70000EF1E80E07F5883706F5803605F5803526
:104A800041F000710160CEF8002047F6FF71082266
:104A9000396033602B602260FFF77EFD72B6504CA8
:104AA000504B514A1B682568126862B6510102D505
:104AB000322B88BF0135C3F52F3303F21F334B4F21
:104AC000DFF82091DFF820819B084FF47A72A7FB72
:104AD000031302FB05F505EB9305322672B6D9F8F0
:104AE00000102268D8F800E062B6C1F52F3303F257
:104AF0001F339B08A7FB03031EF0806FC5EB9303D6
:104B00004FF47A7002D0322988BF013200FB0233A1
:104B1000B3F57A7F04D3013E05D005F57A75DDE75C
:104B200001F0CEF9DAE700F04BFF72B62D4B2E4ABA
:104B30001B682568126862B6520102D5322B88BF05
:104B40000135C3F52F3303F21F33284FDFF894905C
:104B5000DFF894809B084FF47A72A7FB031302FBE3
:104B600005F505EB93054FF4AF7672B6D9F8001052
:104B70002268D8F800E062B6C1F52F3303F21F3384
:104B80009B08A7FB03031EF0806FC5EB93034FF454
:104B90007A7002D0322988BF013200FB0233B3F5AC
:104BA0007A7F04D3013E05D005F57A75DDE701F083
:104BB00087F9DAE7BDE8F88304E100E00480034008
:104BC000148003401C800340248003402C80034059
:104BD00034800340008003400480044000900C4077
:104BE0002CF3FF1F18E000E004ED00E0176CC11685
:104BF000088003400C8003403F280CD810B40F4BB2
:104C000053F8302092F8804234B1012379B182F810
:104C100080305DF8044B704703EBC00043681A68AE
:104C200041B922F002021A605DF8044B704782F825
:104C30000031F9E742F003021A60F5E76CB90000B1
:104C40003F2820D81B4A02EBC00301295B680FD024
:104C500004291DD052F83000002280F8802299B13A
:104C6000022922D003290DD14FF481721A607047B6
:104C700052F830004FF4A27280F880121A601A685D
:104C800022F020021A6070474FF480721A60704759
:104C900052F830104FF4A272012081F880021A609D
:104CA0001A6842F020021A60704740F203121A603C
:104CB000704700BF6CB900002DE9F843054672B695
:104CC000224F234B234A1B683C68126862B652018C
:104CD00002D5322B88BF0134B5B3C3F52F3303F2AD
:104CE0001F331D4EDFF86890DFF868809B084FF493
:104CF0007A72A6FB031302FB04F404EB930472B66E
:104D0000D9F800103A68D8F800E062B6C1F52F3340
:104D100003F21F339B08A6FB03031EF0806FC4EB56
:104D200093034FF47A7002D0322988BF013200FB1E
:104D30000233B3F57A7F04D3013D05D004F57A74CC
:104D4000DDE701F0BDF8DAE7BDE8F8832CF3FF1FDB
:104D500018E000E004ED00E0176CC116431E032BC1
:104D600014D872B60A4951F8230068B170B4094CDE
:104D7000058834F81320466841F82360521B24F854
:104D8000132062B670BC704762B67047002070474F
:104D900088F3FF1FD4F7FF1F013803280BD872B622
:104DA000074B53F8203043B100205B680130002BE3
:104DB000FBD162B67047002070471846F9E700BF84
:104DC000DCF3FF1F30B472B62B4A13781D0706D5EB
:104DD0002A4B196A002936D0996A002941D05378A4
:104DE0001C0706D5254B196C00293ED0996C00296B
:104DF00039D09378190705D5204B196E002936D084
:104E0000996E89B1D3781B0707D51C4BD3F8802046
:104E10007AB3D3F8882011213AB162B6184B002238
:104E20001A7030BC00F08EBE0D21154C154D227845
:104E300043F8315003EBC1030830013A5860227047
:104E400062B630BC704704220D4C0F4D217843F8F8
:104E5000325003EBC20308304A1E5860227062B61B
:104E6000EFE70521E1E70921DFE70822ECE70C2263
:104E7000EAE71022E8E700BFD0BD00000000FF1FF6
:104E800005F4FF1FC800400088004000431E032BAC
:104E90001DD81B4A400140F0100030B4104472B6D7
:104EA000184CE25C032A1BD8DFE802F00212151747
:104EB00003220D88E25410F0080F14BFC823882382
:104EC00043EA054308310360416062B630BC704775
:104ED00008300222EDE70522EBE708300422E8E77C
:104EE000094A52F8230038B1084A52F823004160B9
:104EF00042F8231062B6E9E742F82310034AF7E7C5
:104F00000000FF1F14F4FF1FDCF3FF1FECF3FF1F73
:104F10002DE9F04FDFF808B3DFF808A387B044E0CD
:104F2000AA4F4FEA930807EBC809013ED9F80420BD
:104F300003F00803F6B2A2F1080003F0FF04002B0F
:104F400040F0008157F838301B0C99B222F8081C49
:104F5000002B00F0EE809E4B22F8064C42F8044CE9
:104F600053F82620002A00F0C3829A4D55F82630C7
:104F70005860994C45F8260034F81630194424F846
:104F8000161000F0BFFD002800F0AB82934A944B4E
:104F900019F0080F00F1080018BF1346C9F8040003
:104FA00047F8383008238BF800309BF80040E4B213
:104FB00061071AD58B4B1B78A3B18B490A7802F095
:104FC000FF0322B1013BDBB20B7003B900BE87497E
:104FD0000A7802F0FF032AB1013BDBB20B70002B11
:104FE00000F0558204238BF8003004F0080303F02E
:104FF000FF02002B00F0CA809AF80030DBB21E09D5
:105000008ED19C08DFF8C49159F8342009EBC40113
:10501000C2F38302013A49680C2A00F28680DFE875
:1050200002F07A7A848484848484458484840700AA
:1050300008686F4D4A686F4F6F4E286081B240F22A
:105040008160664B6A604FF0010E0022814249F890
:1050500034303A60C9F81020C9F8182086F800E00A
:105060005A4C00F2E180B1F5D06F80F04483B1F585
:10507000817F00F0FA8200F28B82802900F0758334
:10508000822940F0F882A988042900F2F4825B4862
:105090005B4C89000844227062700278930740F1EB
:1050A000558484F800E04FF0020E42E3514F3A6815
:1050B00032B3544B504E5449188834780D784028F8
:1050C000864645F0020828BF4FF0400E002C84F0C1
:1050D00001043470CEEB00000CBF8824C82409EB17
:1050E000C80680B285F0010544EA0E44726018805B
:1050F00049F8384072440D70002800F045813A604C
:105100003B4B1A88B2F5A06F0FD100219A785970E5
:105110003E4B1A7009E0364A108842F22102904252
:1051200000F037812D4A49F83420394A01231370A1
:1051300038E72A4A2A4B19F0080F18BF134647F8D8
:1051400038302FE700F0FEFC324A334952F826305F
:10515000002B00F0D18158688C5D42F8260003F1E5
:105160000802C9F80420032C05D8DFE804F02C025B
:10517000292602228A551A8819F0080F0CBF8823A5
:10518000C82343EA024347F838300BE7E00700F151
:105190008181210600F1F281A20706D51F4A20492C
:1051A00013780220DBB213700870E30602D51C4BA3
:1051B00010221A7007B0BDE8F08F04228A55DAE792
:1051C00005228A55D7E703228A55D4E70000FF1F3E
:1051D00088F3FF1F34F3FF1FD4F7FF1FC800400000
:1051E0008800400010F4FF1F99F3FF1F28F4FF1FF1
:1051F000FCF3FF1F30F3FF1F98F3FF1FC020074091
:1052000008F4FF1F44F3FF1F04F4FF1F982007401A
:1052100094200740DCF3FF1F14F4FF1F8820074091
:10522000802007409020074042F22100814200F098
:105230002A8100F2D880B1F5086F00F07682B1F5CE
:10524000106F40F01882226AB349A87808701206DD
:1052500000F13783D9F82820B049130600F12C83D8
:10526000D9F83020AD49150600F1FF82D9F8382071
:10527000AA49140600F1F482D9F84020A749100683
:1052800000F14783D9F84820A449120600F13C8375
:10529000D9F85020A149130600F13183D9F85820DC
:1052A0009E49150600F12683D9F860209B49140613
:1052B00000F11B83D9F868209849100600F110838B
:1052C000D9F870209549120600F10583D9F87820A5
:1052D0009249130600F1FA82D9F880208F49150609
:1052E00000F12E83D9F888208C49140600F122831E
:1052F000D9F890208949100600F11683D9F8982032
:105300008649120600F10A838548864A864901903B
:105310008648874C874D0294002304970596804663
:105320001C460F4616460395306828B1456800F0C4
:1053300009FC2846002DF9D100233360039B38680F
:105340001A46002342F8243028B1456800F0FAFBE1
:105350002846002DF9D100223A60019A98F80030D1
:105360001146002241F8042B029A0191023B4FF0B2
:10537000000122F81410032B00F22B81DFE813F058
:105380007001250170012501BEF1400F18BF0022F8
:10539000B5E6694A0D784878157050708D78C878F0
:1053A0009570D07010680D79157186284D798979BE
:1053B0005571917100F09B816049614E0A78307897
:1053C00082F00105002842F002020D700CBF882116
:1053D000C82149F8321009EBC20280F00100002117
:1053E000307051609EE642F22120814240F0CB8134
:1053F000544B554C5549A8781D682560CDF804E0FC
:105400000870002002908046844604464B490D787F
:1054100045F0020E09EBCE030393019B002B039B87
:105420005C600CBF8824C82444EA080385F00104AA
:1054300049F83E3032700C70DFF8E0E0404BDFF8A6
:10544000FC80002840F01E81BCF1400F1BD144F0CD
:10545000020C09EBCC03029CDFF8C0E05C60002A80
:1054600040F02681020442F088029DF804304EF894
:105470003C20044433700D702346402803D10020A3
:10548000334A3B601080334A012313704DE600F02D
:10549000F3FCA7E5214B2F4828491A614FF0020E73
:1054A00080F800E02C4F0A702C49196099602C4E4E
:1054B0002C4D2D4C9A610D213970FF213170DFF890
:1054C000B8E029702270294D294A8EF800109F27D4
:1054D000012406F8047C5D600470DA6007B0BDE862
:1054E000F08F244A47F8380013780133137059E5D8
:1054F00043F826000F4D3CE58B5D032B00F2F08056
:1055000001A252F823F000BFA54F0000A54F0000F4
:10551000C5550000BF55000010F4FF1F0000FF1F1D
:10552000ECF3FF1F88F3FF1FDCF3FF1F14F4FF1FD2
:10553000D4F7FF1F34F3FF1FDCF7FF1F04F4FF1F36
:1055400098F3FF1F2CF3FF1FE4F7FF1F38F4FF1F32
:1055500044F3FF1F94200740C0200740880040000C
:1055600088200740802007409820074048F3FF1F0D
:105570009CF3FF1F05F4FF1F8C200740BD49BE4B65
:1055800080220D2008701A70A2077FF50EAE05E686
:1055900040F20232914240F0EE80A98801F07F0192
:1055A000042968D86A88002A65D1B248CDF804E099
:1055B00089000844017841F00201017021E70123CC
:1055C0008B55EFE400238B55ECE44FF0010388F892
:1055D00000300134042C06F1040607F1040708F139
:1055E00001087FF4A1AEA54CA54B2278A54D049FE0
:1055F000059E002129701A70130700F10581627859
:10560000A149DFF890820A7010074FF00001C9F835
:105610003010C9F8381000F1E1809C49A2780A7076
:105620000021C9F85010C9F858101107DFF864823A
:1056300000F10081E2789649964C0A700021120729
:10564000C9F87010C9F8781000F1B0803378019370
:10565000002183F00102C9F89010C9F89810D0E633
:105660004FF0000388F80030B3E7A98801F07F010C
:10567000042940F28D807F4A0F231370864A01234C
:10568000137052E540287FF6E2AE44F002040EEBC0
:10569000C401029E4E60BAB19DF804107F4A197091
:1056A0003346403888F8005040334EF83420E7E65F
:1056B0009DF8043033700204029B0D7042F0C80262
:1056C00003444EF83C20D8E69DF804101970029B64
:1056D000734A88F80050403840334EF83420CFE603
:1056E00019F0080F0CBF022303238B555AE46D4AAF
:1056F0000F21117060E66C4A5468002CBBD068889A
:10570000B5F804E003E00C325468002CB3D01388E1
:105710008342F8D153887345F5D1000A03280CBFA2
:1057200094F800E0B2F808E003E0604A604C1278B8
:105730002270E888704580F031815E490D784028FC
:10574000844645F0020E28BF4FF0400C04EB0C03DA
:1057500009EBCE02029301235460CCEB00004FEA28
:105760000C4800220193C8245EE6514C4FF0020E13
:1057700022706270DDE7B1F5A06F7FF47CAF01238A
:10578000002201933DE642F221329142F7D072E7C6
:105790006A88002A7FF46FAF3648CDF804E08900AC
:1057A0000844017821F0020101702AE600F0AAF90C
:1057B000002800F0E6800830C4F884003848C9F8B2
:1057C000800000F09FF9334A002800F0D4800830B0
:1057D0003249C2F88C00C2F8881037E700F092F91D
:1057E000002800F0BB800830C8F844002C48C9F8F5
:1057F000400000F087F9274A002800F0AA8008300E
:105800002649D064916408E700F07CF9002800F094
:10581000C1800830C9F824002148C9F8200000F0F0
:1058200071F91C4A002800F0B08008301B49D06292
:105830009162E4E600F066F9002800F098800830F4
:10584000C8F864001648C9F8600000F05BF9114A16
:10585000002800F0878008301049D0669166E9E69C
:10586000C86B083800F06EF906E5486B083800F0A0
:1058700069F9FBE4C020074080200740D0BD00004C
:10588000C420074005F4FF1FC8200740CC20074074
:10589000D02007400000FF1F94200740C8004000B0
:1058A0008800400099F3FF1FD4BD000010F4FF1FD3
:1058B00008F4FF1F04F4FF1FC86A083800F042F91B
:1058C000CEE4606A083800F03DF9C3E4C86F0838D8
:1058D00000F038F900E5486F083800F033F9F5E4D6
:1058E000C86E083800F02EF9EAE4486E083800F077
:1058F00029F9DFE4C86D083800F024F9D4E4486DD4
:10590000083800F01FF9C9E4C86C083800F01AF92B
:10591000BEE4486C083800F015F9B3E4D1F89C00F7
:10592000083800F00FF9EFE4D1F89400083800F0DF
:1059300009F9E3E4D1F88C00083800F003F9D7E462
:10594000D1F88400083800F0FDF8CBE44FF0020EE7
:10595000EFE6297890644A1C2A705EE62A780132C4
:105960002A7044E7297890664A1C2A7062E62A78F1
:1059700001322A7067E72978C2F888004A1C2A7029
:1059800064E62A7801322A7019E7297890624A1C65
:105990002A7034E62A7801322A703EE7BEF1400FC1
:1059A000F44628BF4FF0400C04EB0C030293012394
:1059B000CCEB0E004FEA0C480022019326E500BF15
:1059C0002DE9F04103F010FB314C324B3248DFF847
:1059D000E480324EDFF8E0C0314F324DDFF8DCE0DA
:1059E00000221A605A609A60DA601A615A619A61FC
:1059F000DA611A625A629A62DA621A635A639A63C5
:105A0000DA631A645A649A64DA641A655A659A65A4
:105A1000DA651A665A669A66DA661A675A679A6784
:105A2000DA67C3F880202168C3F8842041F480211C
:105A30002160016841F040710160032188F8001085
:105A4000A020C3F307218CF8000004F5283431703E
:105A5000C3F30740144938701B0E2B70CC34FF235E
:105A60008EF80030114D0CF8B83C11480B70012332
:105A700006F8083C227070264FF40014102207F834
:105A80002C3C2E70046081F8F820BDE8F08100BF46
:105A9000348004400000FF1F00D800409C200740D5
:105AA000B0200740B42007401020074035E400E054
:105AB00004E100E0442107404021074080200740E6
:105AC00000F0B0B800F0ACB900F086B800F060B8F3
:105AD00000F09AB80846114600F0C0B8084600F039
