:1000000000000320D10100003D4C0000F54B000032
:10001000F54B0000F54B0000F54B0000F54B0000E0
:10002000F54B0000F54B0000F54B00003D4C000087
:100030003D4C0000F54B00003D4C0000E54B00003E
:100040003D4C00003D4C00003D4C00003D4C00008C
:100050003D4C00003D4C00003D4C00003D4C00007C
:100060003D4C00003D4C00003D4C00003D4C00006C
:100070003D4C00003D4C00003D4C00003D4C00005C
:100080003D4C00003D4C00003D4C00003D4C00004C
:100090003D4C00003D4C00003D4C00003D4C00003C
:1000A000191200004D1300003D4C00003D4C0000B3
:1000B0003D4C00003D4C00003D4C000041720000F2
:1000C0003D4C0000997900003D4C0000B57F0000D8
:1000D0003D4C0000658600003D4C00003D4C00009A
:1000E0003D4C00003D4C00003D4C00003D4C0000EC
:1000F0003D4C00003D4C00003D4C00003D4C0000DC
:100100003D4C00003D4C00003D4C00003D4C0000CB
:100110003D4C0000395300003D4C00003D4C0000B8
:100120003D4C00003D4C00003D4C00003D4C0000AB
:100130003D4C00003D4C00003D4C00003D4C00009B
:100140007D4200003D4C00004D8C00003D4C000005
:100150003D4C00003D4C00003D4C00003D4C00007B
:100160003D4C00003D4C0000811400003D4C00005F
:100170003D4C00003D4C00003D4C00003D4C00005B
:100180003D4C00003D4C00003D4C00003D4C00004B
:100190003D4C00003D4C00002D9300003D4C000004
:1001A0003D4C00003D4C00003D4C00003D4C00002B
:1001B0003D4C00003D4C00003D4C00003D4C00001B
:1001C0003D4C00003D4C00003D4C00003D4C00000B
:1001D0005C4B4CF2205210B51A804DF628121A8052
:1001E00000BF00BF04F02EFD574B4FF030621A6085
:1001F000564A9A60564ADA60564B4FF470021A60BB
:10020000554B564A1A60564A136813F4807304D14A
:1002100054490B604FF4A8531360534B1A781107DD
:1002200003D51A7842F008021A70504B5049AA229E
:100230001A70504A504B8B4204D252F8040F43F8C4
:10024000040BF8E74D4B4E4900228B4202D243F893
:10025000042BFAE74B494C4A002352F8230041F89B
:1002600023000133742BF8D1484B494A802103F80D
:10027000011B9342FBD1474B424A1A60464B8A22EC
:100280001A70A3F5805324225A70A0221A709A790A
:100290009207FCD59A79D406FCD4404A937903F0AE
:1002A0000C03082BFAD13E4B60221A7002331A78E5
:1002B000802AFCD1394B01221A715D225A719A7938
:1002C0009006FCD59979354A4906FBD5354B364918
:1002D00019600021596020231370937903F00C03F7
:1002E0000C2BFAD1314B324A1A60324B324A1A6027
:1002F00000225A60072243F8042C304AC3F80C2D20
:1003000062B604F04BFD174B1B68DA0705D52C4885
:1003100004F032FD2B4B2C4A1A602C4B1B785B06E9
:1003200009D5284C284B22689A4204D1244804F06D
:1003300023FD002323600AF0B5FC04F089FC04F0DF
:10034000AFFBFEE70E20054030800440823F0400F2
:100350000100002B88ED00E0002008E0030000858C
:1003600010D0034014D0034002D0074000E0074003
:1003700034E0FF1FACC1000030D7FF1F34E0FF1F87
:1003800088FAFF1F00D2FF1F0000000000E400E019
:1003900064E400E008ED00E0005006400040064044
:1003A00001E007404480044000000602048004404D
:1003B000C010070014E000E01FBF02000000202072
:1003C000B6902A5B1CE00340A5C3945A00F0074096
:1003D000FFFFFFFFFFFFFFFFFFFFFFFFFFFFFFFF2D
:1003E000FFFFFFFFFFFFFFFFFFFFFFFFFFFFFFFF1D
:1003F000FFFFFFFFFFFFFFFFFFFFFFFFFFFFFFFF0D
:10040000FFFFFFFFFFFFFFFFFFFFFFFFDEF9FFFF23
:1004100010B5054C237833B9044B13B10448AFF33E
:1004200000800123237010BD34E0FF1F0000000096
:10043000B0C10000084B10B51BB108490848AFF324
:1004400000800848036803B910BD074B002BFBD0A0
:10045000BDE81040184700BF0000000038E0FF1F53
:10046000B0C1000034E0FF1F0000000010B50446DA
:100470000AF066FF01462046BDE8104005F002BEC6
:1004800010B504460AF05CFF0146204605F0FAFD6F
:100490000446024804F07CF8204410BDB4F6FF1F67
:1004A000002310B4104C4172026104600372C360F7
:1004B00041B1194600E0026942F82310427A013343
:1004C0009A42F8DC094B1A680AB90BE01A465369DC
:1004D000002BFBD15061002343618380C3805DF812
:1004E000044B70471860F6E77CB7000098F5FF1FD3
:1004F00070B5424A42491068424C434E82B00B7874
:100500003BB123789B0704D0136835685B1B182B1D
:1005100004D813681B1AB3F57A7FF0D93B4C3C48DA
:10052000C82103F04DFD204602F0CAFB5A212046A7
:1005300002F05CFE20465522202102F065FB38B116
:10054000E28842F0040292B22046242102F05CFBD1
:100550000F2211462D482F4C02F082FB2E4A2F4BC2
:10056000E2614FF40041012A996139D82C4A2D4C9F
:10057000012AE26127D82C4A2C4C012AE26115D8C5
:100580002B4A2C4B2C4893ED000A4262012A06D9D3
:10059000802100F140030091283009F05FFB274BD8
:1005A0004FF480329A61DA6102B070BD802100910F
:1005B00004F12C0304F1200009F06EFB0028DFD0C9
:1005C0000023E361DCE78021009104F12C0304F1B6
:1005D000200009F061FB0028CDD00023E361CAE7C9
:1005E0008021009104F12C0304F1200009F054FB58
:1005F0000028BBD00023E361B8E700BFC8F5FF1FA8
:10060000ACF6FF1FD4F6FF1F80FAFF1FC8EBFF1FD9
:100610000002FF1F50EEFF1F80B70000D8EBFF1F46
:1006200080B800006CE8FF1F80B90000B0E5FF1F34
:1006300008ECFF1F34D7FF1F50E0FF1F18EEFF1F0D
:100640002DE9F04FADF5205D89B04FF480520021C7
:100650000DF5C1500AF00EFEC148FFF711FF0DF570
:10066000C153069398460023009388AC0DF5C466E9
:100670000DF522670DF5626B0DF5915A0DF5B15927
:100680002421B84805F0FEFCB74803F081FF08219B
:10069000B64805F0F7FC0099B34803F0FFFEB248F6
:1006A00003F076FF0521B24805F0ECFCB14B186869
:1006B00009F072FF41EC100B0821AB4803F0E8FF92
:1006C0000121AD4805F0DEFCA74803F061FFAB4B0C
:1006D0001D68002D00F07A81D5F8000E802208A94F
:1006E00009F046F9D5F8040E80220DF5846109F071
:1006F0003FF9D5F8080E80220DF5026109F038F9AE
:10070000D5F80C0E80220DF5426109F031F9D5F8CB
:10071000100E80220DF5815109F02AF9D5F8140E3A
:1007200080220DF5A15109F023F90521944805F027
:10073000A9FC08AD55F8040B09F02EFF41EC100B95
:100740000821894803F0A4FF02218E4805F09AFC95
:10075000A542EFD102218C4805F094FC824803F0B9
:1007600017FF0621894805F08DFC0DF5846555F8C5
:10077000040B09F011FF41EC100B08217A4803F03B
:1007800087FF02217F4805F07DFCAE42EFD10221B8
:100790007D4805F077FC744803F0FAFE08217C4898
:1007A00005F070FC0DF5026555F8040B09F0F4FE38
:1007B00041EC100B08216C4803F06AFF02217148DC
:1007C00005F060FCAF42EFD102216F4805F05AFC02
:1007D000654803F0DDFE05216E4805F053FC0DF57C
:1007E000426555F8040B09F0D7FE41EC100B0821C7
:1007F0005D4803F04DFF0221624805F043FCAB4524
:10080000EFD10221604805F03DFC574803F0C0FEDF
:100810000521614805F036FC0DF5815555F8040BAE
:1008200009F0BAFE41EC100B08214F4803F030FFED
:100830000221544805F026FCAA45EFD10221524876
:1008400005F020FC484803F0A3FE0621534805F0BC
:1008500019FC0DF5A15555F8040B09F09DFE41EC6E
:10086000100B0821404803F013FF0221454805F012
:1008700009FCA945EFD10221434805F003FC3A48A1
:1008800003F086FE424680210DF5815009F0E8F81C
:1008900042464046012109F05DF92321404805F018
:1008A000F1FB009B304801331D46009303F070FEBE
:1008B000642004F015FCB5F57A7F08F104087FF494
:1008C000DFAE3848FFF7DCFD3748FFF7D9FD374882
:1008D000FFF7D6FD3648FFF7C9FD069D0DF51F54FD
:1008E00055F8040B09F058FE41EC100B08211E4886
:1008F00003F0CEFE0221234805F0C4FBAC42EFD149
:100900002148FFF7BDFD2B48FFF7B0FD2A4B1648E5
:1009100019780A22002303F05DFE134803F038FE25
:100920002648FFF7A3FD264BDFED266A1B889FEDC7
:10093000267A07EE903AF8EEE77A77EEA67AC7EED7
:10094000876A16EE900A09F027FE41EC100B02218F
:10095000054803F09DFE044803F01AFEFEE700BFC1
:1009600080BA000088BA0000B4F6FF1FB0BA0000D9
:10097000BCBA000034D7FF1FC4BA0000D4EBFF1F7D
:10098000C8BA0000D0BA0000D4BA0000D8BA00003B
:10099000E0BA0000ECBA0000F4BA0000FCBA0000B3
:1009A00004BB000028BB000030BB000038BB0000C7
:1009B00040BB000048BB00009CF5FF1F60BB00006F
:1009C000A6F5FF1F333323433333A34340F61860A8
:1009D00004F0AAF94FF4007200EB020E2946CDF89C
:1009E00004E002900AF046FC029B0198039303F591
:1009F0008062294602924FF400720AF03BFC039B8E
:100A00000298049303F5C06103914FF400722946E4
:100A10000AF030FC049B059303F50060294604901E
:100A20004FF4007203980AF025FC059B0498079385
:100A300003F5206E29464FF40072CDF814E00AF059
:100A400019FC079B059829464FF480621D460AF061
:100A500011FC0B4A079B1360019AC3F8042E029AFB
:100A60000498C3F8082E0399059AC3F8100EC3F82A
:100A70000C1EC3F8142EC3F8003E28462EE600BF15
:100A8000D4EBFF1F2DE9F04F8C4B8D4D1A688D4B29
:100A90002B60002383B06B722B612B72EB600AB961
:100AA00005E11A465369002BFBD155618649DFF8F1
:100AB00070920B88854A2A60013300260B8009F169
:100AC000180201214846EB616E61AE80EE80AE6196
:100AD000FFF7E6FC794B7E4C19687A4A7D4B226021
:100AE000C9F81C60C9F80030667226612672E6609B
:100AF000724A09B9DEE011464A69002AFBD14C610D
:100B00000027DFF82082744A6761A780E780704879
:100B10000193DFF814B2226002F0B8FD08F1180268
:100B200003214046FFF7BCFCDFF800A26B496C4E86
:100B3000C8F800100BF1180201215846C8F82470BB
:100B4000FFF7AEFC019B674CCBF800300AF11802AE
:100B500001215046CBF81C70FFF7A2FC019BCAF89C
:100B6000003006F1280204213046CAF81C70FFF755
:100B700097FC544A5C4B22604FF480304FF0020ED9
:100B800004F11802336039463B462772E76084F867
:100B900009E02261B061F06130627062274600E0D6
:100BA0003A6942F82310627A4E4801339A42F7DCE0
:100BB000424B1A680AB97FE01A465369002BFBD1F1
:100BC00054610027494B47486761A780E78023604D
:100BD00002F0D0FF464B18461F7283E820085F7270
:100BE000DF6003F01BFB434B012218465A7201924F
:100BF0001F721D605C60DF6003F010FB3E4B184607
:100C00001F7283E820025F72DF6003F007FB3B4B3B
:100C1000019A5A7218461F72C3F80090C3F80480F4
:100C2000DF6003F0FBFA364B18461F72C3F80090E2
:100C3000C3F804805F72DF6003F0F0FA314B1846AE
:100C40001F7283E800055F72DF6003F0E7FA2E4B46
:100C500018461F72C3F800B05E605F72DF6003F079
:100C6000DDFA2A4B019A5A721846C3F800A05E605A
:100C70001F72DF6003F0D2FA254B18461F721E6008
:100C80005C605F72DF6003F0C9FA224B02221846F3
:100C90001F7283E84001DF605A7203F0BFFA1E4BF7
:100CA0001E4A1A600A221A7203B0BDE8F08F034B85
:100CB0001D60FBE6146023E7186082E798F5FF1FCC
:100CC000D8EBFF1F7CB7000094F5FF1F6CBC000041
:100CD0000CF1FF1F3CBC000048BC000014BC00002D
:100CE00018EEFF1F88EBFF1F54BC000060BC000023
:100CF000F8EBFF1F28EBFF1F38EBFF1F48EBFF1F30
:100D000058EBFF1F68EBFF1F78EBFF1F08EEFF1F7C
:100D1000A8EBFF1FB8EBFF1FC8EBFF1F20BC0000B4
:100D2000B0E5FF1F50E0FF1F50EEFF1F6CE8FF1FF4
:100D30002DE9F04F2DED068B02889FED9A9AD0F8A1
:100D40000480D0F808A090ED03AAD0ED048AD0ED7D
:100D5000057A89B0154604929B4602F180421A9B9F
:100D60000390013A8DED079A08EB8209002B00F001
:100D70001681AC08230108EB0306534402931A9B27
:100D8000DFED899ACDF80490CDF81480C1460F4666
:100D900005F003059846019B3A6843F8042BE7EEFB
:100DA000E78A0193F7EC017A8DED069AE7EEA78AC0
:100DB000DFED7C7A002C00F0EF8009F110010AF1E0
:100DC0001002204651ED043A12ED044A51ED034A57
:100DD00012ED035A51ED025A12ED026A51ED016A09
:100DE00012ED017AE3EE847A013801F1100102F18B
:100DF0001002E4EE857AE5EE867AE6EE877ACDEDAE
:100E0000067ADFD1029831462A464DB1F1EC016AEB
:100E1000B0EC017AE6EE877A013ACDED067AF5D1AB
:100E2000012207A906A809F0A7F9DDED077AB7EEB8
:100E3000007AF4EEC77AF1EE10FA40F3A780DDED08
:100E4000066A86EEA77A8DED067A189BA3EC017AE6
:100E5000BBEC017A189378EEA97A6AEE076A199BBF
:100E600086EEA78A012207A906A8A3EC017A1993A6
:100E700009F082F9DDED077AB7EE007AF4EEC77A71
:100E8000F1EE10FAC8BF88EE278A002C00F08180AE
:100E900009F110010AF110022046013801F1100198
:100EA00002F1100251ED085A12ED086A52ED076A7C
:100EB00012ED067A52ED057AA8EE256A02ED086A6F
:100EC00011ED076AE8EE066A42ED076A51ED066A1F
:100ED000A8EE267A02ED067A11ED057AE8EE077A99
:100EE00042ED057AD9D1029A304629464DB1B0EC8F
:100EF000017AD2ED007AE8EE077A0139E2EC017A64
:100F0000F5D1B8F1010806F10406F9EC017A7FF495
:100F100042AF1A9BDDF8148008EB8308039B5C68E2
:100F2000049B039A591E8E08C2ED048AC2ED057A0D
:100F30001DD004F1100208F11003304653F8105C84
:100F400042F8105C53F80C5C42F80C5C53F8085CF7
:100F500042F8085C53F8045C42F8045C013803F181
:100F6000100302F11002E9D133011C44984411F03E
:100F7000030306D0224658F8041B42F8041B013B29
:100F8000F9D109B0BDEC068BBDE8F08F9DED067A76
:100F90005BE752464846A8E75046494634E7444690
:100FA0002B46BEE7000000000000003490F8392016
:100FB00090F83800101A704790F8383090F83920BF
:100FC0009A4205D95A1C034480F83820187E70478D
:100FD0004FF0FF30704700BF90F8383090F839205C
:100FE0009A4286BF1B18187E4FF0FF30704700BF33
:100FF000704700BFB0F85E306BB190F85D30202BC9
:1010000007D8C218013380F85D30012082F83B1008
:101010007047012303710020704700BF38B50546B3
:10102000B0F85E0090B195F85D301446C3F121022E
:1010300094420CD805F13B001844224603F038FDD9
:1010400095F85D30234485F85D30204638BD012099
:1010500014462871EEE700BF0023426980F838305B
:1010600080F8393080F85C3080F85D3080F85E3090
:1010700080F85F3006CA30B40D68046943662A43BD
:1010800083660A60A370426990F86130164914685B
:1010900013441D7A5B7B01EBC5051B026D6803F4ED
:1010A000E06343F064032B6090F8623013449D7C4E
:1010B000DB7D01EBC5011B02496803F4E06343F0EB
:1010C00064030B6021685368194205D003692C2220
:1010D0005A70036904229A71036920225A710369C4
:1010E00080229A7030BC704780BC0000F0B5036964
:1010F0001222DA70026993780546980687B04ED5B9
:10110000B423444C937023680293029E2A6905E03D
:1011100023680393039B9B1B042B57D8D37803F0BE
:10112000200303F0FF00002BF2D095F85D30002B78
:101130002ED000274FF0020EEB1993F83B301371BD
:1011400023680493DDF810C0286908E09B060ED5DB
:1011500023680593059BCCEB0303052B3DD8C3788F
:10116000DBB203F0020202F0FF06002AEED080F8A4
:1011700003E02A69D378DBB2DE063DD49E063BD578
:10118000DB0741D4013795F85D30FFB2BB42D3D8BD
:101190000020002934D1002385F85E301BE01D4C6F
:1011A00023680093009E05E023680193019B9B1B2D
:1011B0000F2B19D8D37803F0200303F0FF00002B86
:1011C000F2D1B02385F85F0093709CE790702B6993
:1011D00080229A70042007B0F0BD86702B698022AF
:1011E00004209A7007B0F0BD002393702B69802211
:1011F00004209A7007B0F0BD802393700420C8E7E4
:101200002A6980239370C6E7002F0CBF02200320B9
:10121000F7E700BFC8F5FF1F38B54A4D2A69D478F3
:10122000E4B2E10624D51023D37063061FD504F081
:10123000040404F0FF03002C5BD043496A6E414C68
:1012400000230B7085F85D30002A65D0904794F834
:101250005D30002B60D02B69D0229A7095F83B202E
:101260001A71012385F85C302B690222DA7038BDCF
:1012700004F0400303F0FF00002BD8D19379DBB2D8
:1012800003F0600160294ED0937803F0100303F05F
:10129000FF01BBB114F0010437D195F85C3095F82B
:1012A0005D00284998424BD9C818013390F83B009B
:1012B00081F85C3010712B69D0229A702B69022260
:1012C000DA70D4E785F8601093791E4943F0200363
:1012D0009371137995F839201F2ADBB2C4D81A48C4
:1012E00000780028C0D088180132037681F83920B0
:1012F000BAE7C02185F839309170134B1279012279
:101300001A702B690222DA70B1E7C0239370137947
:101310002B690222DA70AAE70122002385F85D20FA
:1013200085F83B3097E703F0DF039371AB6E002B3A
:10133000AAD085F8380095F8390098472A69A3E7BC
:101340001471B8E700F2FF1FFCF1FF1F38B54A4DDA
:101350002A69D478E4B2E10624D51023D370630659
:101360001FD504F0040404F0FF03002C5BD04349B4
:101370006A6E414C00230B7085F85D30002A65D001
:10138000904794F85D30002B60D02B69D0229A7082
:1013900095F83B201A71012385F85C302B690222F5
:1013A000DA7038BD04F0400303F0FF00002BD8D101
:1013B0009379DBB203F0600160294ED0937803F09B
:1013C000100303F0FF01BBB114F0010437D195F80D
:1013D0005C3095F85D00284998424BD9C818013314
:1013E00090F83B0081F85C3010712B69D0229A7024
:1013F0002B690222DA70D4E785F8601093791E49D0
:1014000043F020039371137995F839201F2ADBB23A
:10141000C4D81A4800780028C0D088180132037652
:1014200081F83920BAE7C02185F839309170134B23
:10143000127901221A702B690222DA70B1E7C023F7
:10144000937013792B690222DA70AAE70122002334
:1014500085F85D2085F83B3097E703F0DF03937153
:10146000AB6E002BAAD085F8380095F83900984764
:101470002A69A3E71471B8E724F1FF1FFCF1FF1FED
:1014800038B54A4D2A69D478E4B2E10624D5102350
:10149000D37063061FD504F0040404F0FF03002C8E
:1014A0005BD043496A6E414C00230B7085F85D3078
:1014B000002A65D0904794F85D30002B60D02B69EE
:1014C000D0229A7095F83B201A71012385F85C3080
:1014D0002B690222DA7038BD04F0400303F0FF00EC
:1014E000002BD8D19379DBB203F0600160294ED094
:1014F000937803F0100303F0FF01BBB114F0010473
:1015000037D195F85C3095F85D00284998424BD961
:10151000C818013390F83B0081F85C3010712B69DA
:10152000D0229A702B690222DA70D4E785F8601015
:1015300093791E4943F020039371137995F839206C
:101540001F2ADBB2C4D81A4800780028C0D08818F7
:101550000132037681F83920BAE7C02185F83930A5
:101560009170134B127901221A702B690222DA70E2
:10157000B1E7C023937013792B690222DA70AAE7CE
:101580000122002385F85D2085F83B3097E703F0C2
:10159000DF039371AB6E002BAAD085F8380095F865
:1015A000390098472A69A3E71471B8E790F1FF1F43
:1015B000FCF1FF1FF0B517481749184A184B194D91
:1015C000194C0361456100234FF47A75DFF868E038
:1015D000164F0371037380F8613080F862308560C4
:1015E0000460134E13480B710B7381F8613081F85E
:1015F00062301371137382F8613082F862308D604B
:101600000C60C1F810E04F61956014601661506184
:10161000F0BD00BF00F2FF1F24F1FF1F90F1FF1F7C
:10162000006006407CBB0000E4BB00009CBB0000E7
:1016300000600E40BCBB0000007006402149224AF9
:101640000B6843F080030B6011461368DB07FCD482
:101650000B689B07F9D41D4B30B44FF08072194DC5
:10166000186000E0A2B12968194B164C0B40013AF2
:10167000002BF7D062B1012B0AD1236813F0800F41
:1016800023680FD043F001132360032030BC704760
:101690000C4A136843F4702343F0010313600120E4
:1016A00030BC704713F4803305D0236843F0011336
:1016B00023600520F4E7226842F001021846226008
:1016C000EEE700BF30100B4024100B400C100B4015
:1016D00001000E002DE9F0432B4A2C4CDFF8B490AA
:1016E000DFF8B480DFF8B4C02746154664264FF013
:1016F000000EC9F800E0236843F0800323601368FC
:10170000D807FCD42B689907F9D4C8F800C04FF06B
:10171000807100E0D1B120681D4B03400139002BDE
:10172000F8D099B1012B11D13B6813F0800F3B68C1
:101730001BD043F001133B600320013E10D013681F
:101740005B0710D50028D4D0BDE8F083236843F4AC
:10175000702343F00103013E23604FF00100EED1FE
:10176000002808BF0520BDE8F08313F4803305D0BE
:101770003B6843F001133B600520DEE7396841F028
:10178000010118463960D8E724100B4030100B4097
:1017900001000E0008100B400C100B400000DB0C89
:1017A000F8B5384B1A780AB10320F8BD5B780646C5
:1017B00003B94902344D354C354B36484FF6FF7767
:1017C0004FF481322F6021601A60FFF737FF002845
:1017D000EBD1314B31491B681C3406F1400206F550
:1017E00010702B68284F43F0200613F4E00F2E6092
:1017F0003ED123681E05FCD50B6842F8403C0B68BF
:1018000042F83C3C0B6842F8383C0B6842F8343CE8
:101810000B6842F8303C0B6842F82C3C0B6842F8ED
:10182000283C0B6842F8243C0B6842F8203C0B68CB
:1018300042F81C3C0B6842F8183C0B6842F8143C18
:101840000B6842F8103C0B6842F80C3C0B6842F8FD
:10185000083C0B6842F8043C40328242C1D100206F
:1018600009490B68084A9B07FBD50D4B1360F8BD6F
:1018700043F4E00343F020033B60FFF72BFF01201C
:10188000EEE700BF90F2FF1F30100B4008100B4036
:1018900004100B4010003A1110100B4020100B40A8
:1018A00022000001F8B53B4B1A780AB10320F8BDBD
:1018B0005B78074603B94902374C384D384B3948F5
:1018C0004FF6FF764FF48132266029601A60FFF7E9
:1018D000B5FE0028EBD1344B34491B6807F14002B8
:1018E000264607F5107723682B4DD806FBD53368BD
:1018F00013F4E00F43D152F8403C0B6052F83C3CEB
:101900000B6052F8383C0B6052F8343C0B6052F8D4
:10191000303C0B6052F82C3C0B6052F8283C0B60BA
:1019200052F8243C0B6052F8203C0B6052F81C3CEF
:101930000B6052F8183C0B6052F8143C0B6052F8E4
:10194000103C0B6052F80C3C0B6052F8083C0B60EA
:1019500052F8043C0B60336843F010033360336883
:1019600013F4E00002F1400209D1BA42BBD10A49A6
:101970000B68094A9B07FBD50D4B1360F8BD2B681C
:1019800043F4E00343F010032B60FFF7A3FE0120B4
:10199000EDE700BF90F2FF1F30100B4008100B4026
:1019A00004100B4000003A1810100B4020100B40A0
:1019B00012000001F0B53B4F3B4C3B6883B006463C
:1019C0000193019DA446ADB24FF0004EFF20236865
:1019D00043F480632360C4F82CE06063E36A002B67
:1019E000FCDADCF83830DBB2FF2B07D03B68009321
:1019F000009B9BB25B1BB3F5967FE8DB2A4B186814
:101A00004FF0004540F4806041F040041860DD6212
:101A100018465C63C36A002BFCDA234C18204FF095
:101A20000047256822FA00F345F48065DBB22560A3
:101A3000E7626363E36A002BFCDA083810F1080FF1
:101A4000EFD100292CD008290CBF8721FF21164B8C
:101A50001A684FF0004042F480621A60D8621A4659
:101A60005963D36A002BFCDA0F4A002715464FF062
:101A70000044FF21136843F480631360D462516310
:101A8000D36A002BFCDAAB6BD8B21B06707001D4A2
:101A900003B0F0BD0137B7F5807FEBD103B0F0BDE7
:101AA0009521D4E7C8F5FF1F00C002402DE9F041A1
:101AB0008D4C8378032B23780F4682B0064615465B
:101AC00018BF4F02002B3AD00021307803F0A8FA5B
:101AD0003A4611213046FFF76DFF20BB834F844A01
:101AE0003B6801930198904680B24FF0004C4FF054
:101AF000FF0E136843F480631360C2F82CC0C2F871
:101B000034E0D36A7A49002BFBDAD8F83830DBB2FC
:101B1000FF2B737076D13B680093009B9BB21B1A1E
:101B2000B3F5967FE5DD3078012103F079FA23786B
:101B30006D4A002B47D1002002B0BDE8F0816D4B0B
:101B40006D4A197812680120207000292ED072B6D3
:101B50001B78D9070BD569486949D0F800C00968D6
:101B6000DFF8B0E10CEA0101CEF80010016098073F
:101B70000BD564486249D0F800C04968DFF894E1A9
:101B80000CEA01010160CEF8041059070BD55E483C
:101B90005B49D0F800C08968DFF878E10CEA010100
:101BA0000160CEF808101B0774D462B6504BD96898
:101BB000914289D0554818605549DA6042F080401A
:101BC0001861196080E74B4B1B7800211170002BC6
:101BD000B1D0D80703D54F494F4A0968116099071A
:101BE00003D54C494D4A496811605A0703D5494904
:101BF0004B4A896811601B079DD5464A494BD268FC
:101C00001A6098E7FE2B8ED1474B484A0A60084677
:101C10004B630A464B639E464B6305F5FE77A91C52
:101C2000D36A13F0F00FFBD0C0F834E0836B01F8F7
:101C3000013C1B1201F8023C02318F42F0D105F544
:101C4000FD7105F50075A9420DD2294A1746D36AE0
:101C500013F0F00FFBD0BB6B181201F8020BA94276
:101C600001F8013CF3D3224B30492F4A1960194641
:101C70005A63CB6A1E4A13F0F00FFAD03078936B98
:101C8000012103F0CDF92378174A73B9012002B07E
:101C9000BDE8F08126491A4BD1F800E0DB681D4809
:101CA0000EEA03030B60C3607FE7124B1B78002131
:101CB0001170002BEAD0DF0703D51649164A0968D0
:101CC00011609E0703D51349144A496811605D07E6
:101CD00003D51049124A896811601C07D6D50D4AF0
:101CE000104BD2681A60D1E7A4F2FF1FC8F5FF1F9E
:101CF00000C002408CF2FF1FA0F2FF1F80E100E055
:101D00006CF2FF1F84E100E088E100E001401F0069
:101D100000001F807CF2FF1F00E100E004E100E012
:101D200008E100E00CE100E0FFFF009000041F80EC
:101D30008CE100E0F0B4314E33684FF0004743F4DB
:101D4000806333603D46F762344671633346511C0D
:101D500002F20127E26A002AFCDA1A6811F8016C23
:101D600042F480621A60DD625E63E26A002AFCDA95
:101D70001A6811F8026B42F48062B9421A60DD629F
:101D80005E63E7D11D49CA6A1C4B002AFBDA1A6858
:101D90004FF0004542F48062FF241A601946DD626C
:101DA0005C63CB6A154A002BFBDA13684FF00045E1
:101DB00043F48063FF2413601146D5625463CB6AF9
:101DC0000E4A002BFBDA13684FF0004543F48063A2
:101DD000FF2413601146D5625463CB6A074A002B77
:101DE000FBDA936BDBB203F01F024370A2F1050034
:101DF000B0FA80F04009F0BC704700BF00C002405C
:101E00002DE9F041054682B0002900F08D808378ED
:101E10007D4E032B33780C46174618BF4C02B3B1E6
:101E20000021287803F0FCF8224618212846FFF705
:101E3000C1FD00287AD02878012103F0F1F8337829
:101E4000714A002B51D1002002B0BDE8F0816F4BE8
:101E50006F4A1978126801203070002938D072B6A4
:101E60001B78D9070BD56B486B49D0F800C00968BF
:101E7000DFF8B4E10CEA0101CEF800100160980728
:101E80000BD566486449D0F800C04968DFF898E18E
:101E90000CEA01010160CEF8041059070BD5604827
:101EA0005D49D0F800C08968DFF87CE10CEA0101E7
:101EB0000160CEF808101B0709D55A49564BD1F8D6
:101EC00000E0DB6858480EEA03030B60C36062B6AB
:101ED000564BD9689142A3D0554818605549DA60ED
:101EE00042F08040186119609AE7484B1B78002146
:101EF0001170002BA7D0D80703D54B494E4A09686B
:101F00001160990703D548494C4A496811605A073E
:101F100003D545494A4A896811601B0793D5424A4F
:101F2000484BD2681A608EE7374E84E73A46FE2166
:101F30002846FFF7FFFE00283FF47DAF42483B4AAA
:101F4000036801930199904689B24FF0004C4FF01D
:101F5000FF0E136843F480631360C2F82CC0C2F80C
:101F600034E0D36A314C002BFBDAD8F83870FFB27A
:101F7000FF2F08D003680093009B9BB25B1AB3F558
:101F8000167FE6DB57E700220D212846FFF712FDFA
:101F900000287FF450AF23684FF0004243F4806381
:101FA00023602146E2626763CB6A204A002BFBDA9A
:101FB000936B13F0FF047FF43EAF2878012103F008
:101FC0002FF83278104B0AB901203DE70F4A1C70F8
:101FD0001378002BF8D0DF0703D51349164A096898
:101FE00011609E0703D51049144A496811605D07C6
:101FF00003D50D49124A896811601C07E4D50A4AC5
:10200000104BD2681A60DFE7A4F2FF1F8CF2FF1FAB
:10201000A0F2FF1F80E100E06CF2FF1F84E100E00E
:1020200088E100E08CE100E07CF2FF1F00C002408C
:1020300001401F0000001F8000E100E004E100E01B
:1020400008E100E00CE100E0C8F5FF1F014B024A87
:102050001A607047A0F2FF1F032000382DE9F04FEF
:10206000837985B0012B0646019205D00123337197
:10207000002005B0BDE8F08F42799007F6D55307F0
:102080000F4626D5F368B569AB4200F02B81002DD1
:1020900000F04981326A147C591E09346A1EE140FD
:1020A00022FA04F4A14200F24281002B00F03F81A9
:1020B000641A06F1080806E0B168306A00F0DCFB3B
:1020C000013C0028D2D04246002CF5D1F5602B46C9
:1020D00000E0F368019A002A43D0DFF8B8B2019D0E
:1020E000306A0279013A02EA532212F0FF09C3F37F
:1020F000080840D1B8F1000F3DD1B168002940F087
:10210000C580F369002B00F0D480B360C8F500747B
:10211000017C4269A4B2023B8B404A44AC4203EBCF
:1021200002092AD8B4F5007F28D1954B1B68994540
:1021300000F0A780934B18680378FE2B494600F007
:10214000CA803A46FFF75CFE00288FD007F500777B
:102150004FF40078F3682D1B4344ADB2F360002DBB
:10216000BED1B2699A4280F0C2807279B36142F006
:1021700080027271C4E0B368C8E72C46B8F1000F62
:1021800003D1F268B3699A425CD24846012100F05B
:10219000DBF900283FF46AAF08EB0B031819834200
:1021A00062D008F104083A1DD844934238BF47452D
:1021B00043EA070E2CBF01220022591C1EF0030F18
:1021C00002F00102C1EB000E18BF00220EF1010A5D
:1021D0009C46002A4AD0BAF1090F47D9AEF1030252
:1021E000920801324FEA8209A7F104084FF0000E6D
:1021F00000930EF1010E58F8043F4CF8043B96454D
:10220000F7D3009BD14507EB090C03EB090E13D064
:1022100017F8228003F822800EF1010398420BD0B8
:102220009CF801308EF801300EF10203984203D081
:102230009CF802308EF80230C1F1010108440744D5
:10224000A04687E700F040F900283FF40FAF4E4A60
:102250004B4BC3F80090137843F00103137008EB65
:102260000B03181983429CD1A04673E7013B7A1EE9
:1022700000F1FF3C12F801EF03F801EF9C45F9D1A2
:10228000DAE73F4A4FF0FF33136053E703AA00F049
:10229000F3FA00283FF4EDAE306A3C4C90F8201081
:1022A000039B4FF6F872102918BF22469342FFF4A1
:1022B0002CAF06F10802012100F0AAF900283FF432
:1022C000D5AEF3696BBB7279B368F36162F07F02DC
:1022D0007271306A1AE73846FFF7E4FAB0FA80F014
:1022E000400931E7019900297FF4F7AE08E0284B57
:1022F00072791B6823B1019B13B142F080027271A5
:1023000011070AD5B379002B3FF4B0AE120611D4F1
:1023100000F0DAF800283FF4A9AE019805B0BDE856
:10232000F08FB368D5E7B560F5602B46D2E6F36968
:10233000B360BEE60121306900F006F900283FF4E1
:1023400095AE347D134B13EB44143FF48FAEB37949
:102350000F4A012B9CBFB369E361F3691268638381
:102360001B0CA38232B104F1160104F1180090474E
:10237000238B6382737903F07F037371C8E700BF17
:1023800038D7FF1FB0F2FF1FB4F4FF1FF8FFFF0F95
:10239000A8F2FF1FB4F2FF1F00B583B002AB012209
:1023A00003F8011D1946FFF759FE03B05DF804FB61
:1023B0002DE9F84F90F82030DFF80481C569102B23
:1023C0000E4604469146D8F8001018D005EBD615F5
:1023D0008D421FD1374F384B06F07F0643F82690C9
:1023E000227E3B78012A43F0010388BFA2683B703C
:1023F00082BF324B891819600120BDE8F88F05EBC8
:102400001625A94206D12B4F2B4BF6B2294623F8AD
:102410001690E5E7274FDFF8ACA03B788BB9DAF8E8
:1024200000000378FE2B20D0234A2946FFF73EFB0D
:10243000C0B194F82030C8F80050102BE4D02946E1
:10244000C9E7DAF800000378FE2B24D01A4AFFF718
:10245000D7FC38B1DFF864B0DBF8001069B90023AD
:102460003B70DCE70020BDE8F88F29461248FFF7F3
:1024700097F9B0FA80F04009DAE7DAF8000003785B
:10248000FE2B0FD00C4AFFF7BBFC0028EAD000233C
:10249000CBF80030E3E70848FFF704FAB0FA80F021
:1024A0004009D6E70448FFF7FDF9B0FA80F040098B
:1024B000EBE700BFB4F4FF1FB4F2FF1FACF2FF1F45
:1024C00038D7FF1FB0F2FF1F70B51A4C23780BB935
:1024D000012070BD184D194B286819680378FE2B30
:1024E00017D0174AFFF78CFC88B1164E316819B91E
:1024F00000232370012070BD28680378FE2B0FD0C5
:102500000F4AFFF77DFC10B100233360F0E7002095
:1025100070BD0B48FFF7C6F9B0FA80F04009E3E759
:102520000748FFF7BFF9B0FA80F040090028EBD167
:10253000EDE700BFB4F4FF1FB0F2FF1F38D7FF1F55
:10254000B4F2FF1FACF2FF1F2DE9F8432B4E3368A6
:1025500083420F4611D02A4CDFF8AC802278054622
:1025600092B9D8F800000378FE2B29D0254A2946D5
:10257000FFF79CFAD0B1356000E0214C2178394357
:1025800021700120BDE8F883D8F800000278FE2A07
:1025900019460ED01B4AFFF733FC38B1DFF86C90B8
:1025A000D9F80010A1B900232370DAE70020BDE8B4
:1025B000F8831448FFF776F9B0FA80F04009ECE7A9
:1025C00029461048FFF7ECF8B0FA80F04009D1E74F
:1025D000D8F800000378FE2B08D00A4AFFF710FC59
:1025E0000028E3D00023C9F80030DCE70548FFF7F6
:1025F00059F9B0FA80F04009F2E700BF38D7FF1F61
:10260000B4F4FF1FB4F2FF1FB0F2FF1FACF2FF1FC4
:102610002DE9F04F136885B0002B00F0828003F1A4
:10262000010800230393C468631C9A468CB3444694
:10263000A2453CBF0224A0469C420091054602925E
:10264000DFF820B24FF0000623D895F82030DFF8ED
:102650002492EF69D9F80010102B26D007EBD4177D
:10266000B94226D104F07F037E4F5BF8233023F07C
:10267000704393B10134A046EB680136B34208D9E8
:10268000A24538BF022403F1010338BFA0469C4293
:10269000DBD9002005B0BDE8F08F631C0099C8EBC2
:1026A0000302914257D01C46E6E707EB1427B942D4
:1026B00013D06D4B1B78ABB96C4B18680378FE2BAD
:1026C00027D0684A3946FFF7F1F90028E1D095F89C
:1026D0002030C9F80070102BC4D1E3B2614F3BF831
:1026E0001330C6E7614B019318680278FE2A00F0A8
:1026F0008D805C4AFFF784FB019B0028C9D05C4AAF
:102700001168B9B95849186800220A700378FE2B7D
:10271000D7D139465348FFF743F8B0FA80F0400963
:10272000D3E7A1F10103B3FA83F35B09D0F800808A
:10273000039378E74D4A019310680278FE2A00F06F
:102740008980484AFFF75CFB019B0028A1D04849DB
:1027500000220A60D6E7012C9BD9EB6801339C422A
:1027600097D86FF0704221462846FFF721FE0028D7
:102770008FD0A04552D204F1FF3ABAF1010F88D9A7
:10278000EB680133534584D3DFF8DCB02EE006EB71
:10279000DA16B3420AD000213046FFF7D5FE0028F2
:1027A0003FF477AF95F82030102B2AD00AF07F0342
:1027B00047F823409BF800302A7E43F00103012AAA
:1027C0008BF8003003D9AB681E44294B1E60D045FE
:1027D00024D00AF1FF3ABAF1010F3FF45AAFEB6887
:1027E00001339A4504F1FF343FF653AF95F820309A
:1027F000EE69102BD9F80030C9D106EB1A26B34286
:10280000C9D15FFA8AF327F81340D3E71548FFF7D9
:1028100049F8B0FA80F04009019B6EE7029B196805
:1028200071B101297FF635AFEB68013399423FF66C
:1028300030AF42462846FFF7BBFD00283FF429AFE2
:10284000029BC3F80080039B13B108F101032B60C6
:1028500001201FE70348FFF725F8B0FA80F0400990
:10286000019B72E7B4F2FF1FB4F4FF1FB0F2FF1F29
:10287000ACF2FF1F38D7FF1F2DE9F84FC3680133B3
:102880008B422FD390F82030DFF8F480C469102BEE
:102890000E4617460546D8F800100ED004EBD614A5
:1028A0008C420ED106F07F01344B53F8213023F0D7
:1028B00070433B600120BDE8F88F04EB1624A14271
:1028C00019D0DFF8C0A0DFF8C0909AF80030D3B973
:1028D000D9F800000378FE2B31D0284A2146FFF7B3
:1028E000E5F810B90020BDE8F88F95F82030C8F859
:1028F0000040102BD6D1F1B2204B33F811303B60A1
:102900000120BDE8F88FD9F800000378FE2B0DD028
:102910001A4AFFF775FA0028E4D0DFF870B0DBF848
:102920000010B1B900238AF80030D1E71348FEF750
:10293000B9FFB0FA80F040090028EED1D2E7214675
:102940000E48FEF72DFFB0FA80F040090028CCD1E8
:10295000C8E7D9F800000378FE2B08D0074AFFF734
:102960004FFA0028BED00023CBF80030DAE7034846
:10297000FEF798FFB0FA80F04009F2E7B4F2FF1FCB
:1029800038D7FF1FB4F4FF1FB0F2FF1FACF2FF1FD8
:10299000064B074ADA620221002259609A7083F8D6
:1029A000242083F8302083F832207047B8F4FF1FCA
:1029B00004BC00002DE9F04FADF62C2D04464FF479
:1029C000007200210AA808F055FC4FF400720021A3
:1029D0008AA808F04FFC4FF4007200210DF58560C5
:1029E00008F048FC4FF4007200210DF5C56008F0B6
:1029F00041FC00210DF628004FF4007208F03AFC6B
:102A00002046002101F092FB00287DD005460121DF
:102A1000204601F08BFB8146002875D0022120461C
:102A200001F084FB804600286ED0666A002E00F01C
:102A30008880012E6CD080220AA9281D06F058FD3E
:102A400080228AA909F1040006F052FD80220DF5CA
:102A5000856108F1040006F04BFD01F0DDFA8246C5
:102A600001F0DAFA0746BAF1000F44D0002842D04C
:102A70000DF62803802601930DF5C5630093029699
:102A80000DF585638AAA0AA904F12800FEF750F91A
:102A9000DFF868B132460AF104010DF5C56006F0B1
:102AA00031FE3246391D0DF6280006F02BFEDBF80C
:102AB0000060002E4BD00AAA636AC6F8002E8AAACC
:102AC000C6F8042E0DF58562C6F8082E0DF5C56210
:102AD000C6F80C2E0DF62802C6F8102EC6F8143EC5
:102AE00020460022514601F007FB504601F0E0FA73
:102AF000384601F0DDFA284601F0DAFA484601F0DE
:102B0000D7FA404601F0D4FA0DF62C2DBDE8F08F2F
:102B100029460022204601F0EFFA284601F0C8FAC3
:102B200032464946204601F0E7FA484601F0C0FA2D
:102B300020460222414601F0DFFA404601F0B8FA91
:102B4000E2E732462046294601F0D6FAD3E740F6BE
:102B5000186002F0E9F84FF4007200EB020E314603
:102B6000CDF810E0059008F085FB059B04980693CE
:102B700003F58062314605924FF4007208F07AFB4B
:102B8000069B0598079303F5C06106914FF4007208
:102B9000314608F06FFB079B089303F50060314650
:102BA00007904FF40072069808F064FB089B0798A2
:102BB000099303F5206E31464FF40072CDF820E002
:102BC00008F058FB31464FF48062089808F052FB39
:102BD000099B049AC3F8042E059AC3F8082E069997
:102BE0000798089ACBF800301E46C3F80C1EC3F8AD
:102BF000100EC3F8142EC3F8003E5CE7D4EBFF1FA1
:102C00000020704700207047F8B5144C037A24293F
:102C100008BFC2805B0001250E462046C1F3072194
:102C2000174684F83B3084F85E5084F85D50FEF718
:102C3000E1F9F1B22046FEF7DDF9C7F3072120469E
:102C4000FEF7D8F9F9B22046FEF7D4F92946204616
:102C5000FEF74CFAB0FA80F04009F8BD00F2FF1F11
:102C600070B50F29154C037A28BF0F210F2A4FEAA0
:102C7000430328BF0F2201250E462046002142EAC9
:102C8000061684F83B3084F85E5084F85D50FEF7F9
:102C9000B1F920462021FEF7ADF920460021FEF7CC
:102CA000A9F9F1B22046FEF7A5F929462046FEF71C
:102CB0001DFAB0FA80F0400970BD00BF00F2FF1F9E
:102CC000F8B5EB4C0125064605712046FEF7C4F920
:102CD000052002F005FA337A84F85E50AB402046B6
:102CE000002184F83B3084F85D50FEF783F92046DC
:102CF0003021FEF77FF920464021FEF77BF9204680
:102D00006021FEF777F929462046FEF7EFF9337A7E
:102D100084F85E50AB402046002184F83B3084F8B4
:102D20005D50FEF767F920462621FEF763F920463D
:102D30000021FEF75FF920466C21FEF75BF929467A
:102D40002046FEF7D3F9337A84F85E50AB40204634
:102D5000002184F83B3084F85D50FEF74BF92046A3
:102D60002821FEF747F929462046FEF743F9204679
:102D7000F221FEF73FF929462046FEF7B7F9337AEC
:102D800084F85E50AB402046002184F83B3084F844
:102D90005D50FEF72FF920462C21FEF72BF9204637
:102DA0000F21FEF727F920462221FEF723F92946B5
:102DB0002046FEF79BF9337A84F85E50AB402046FC
:102DC000002184F83B3084F85D50FEF713F920466B
:102DD0003C21FEF70FF920464421FEF70BF920466F
:102DE0004621FEF707F929462046FEF77FF9337A98
:102DF00040F23712F280AB402046002184F83B308D
:102E000084F85E5084F85D50FEF7F4F820462421E3
:102E1000FEF7F0F829462046FEF7ECF82046372169
:102E2000FEF7E8F829462046FEF760F9337A84F881
:102E30005E50AB402046002184F83B3084F85D5062
:102E4000FEF7D8F820463021FEF7D4F8204640217E
:102E5000FEF7D0F82046FF21FEF7CCF829462046A1
:102E6000FEF744F9337A84F85E50AB4020460021E7
:102E700084F83B3084F85D50FEF7BCF82046022110
:102E8000FEF7B8F820460021FEF7B4F8204673217B
:102E9000FEF7B0F829462046FEF728F94FF4C8702F
:102EA00002F01EF9337A84F85E50AB4020460021D0
:102EB00084F83B3084F85D50FEF79CF820462E21C4
:102EC000FEF798F820461D21FEF794F820461D21B4
:102ED000FEF790F829462046FEF708F9337A84F881
:102EE0005E50AB402046002184F83B3084F85D50B2
:102EF000FEF780F820460421FEF77CF820460021EA
:102F0000FEF778F820460421FEF774F8294620469B
:102F1000FEF7ECF8337A84F85E50AB40204600218F
:102F200084F83B3084F85D50FEF764F820460621B3
:102F3000FEF760F829462046FEF75CF8204630216F
:102F4000FEF758F829462046FEF7D0F8337A84F881
:102F50005E50AB402046002184F83B3084F85D5041
:102F6000FEF748F820460A21FEF744F820460021E3
:102F7000FEF740F820461021FEF73CF8294620468F
:102F8000FEF7B4F8337A84F85E50AB402046002157
:102F900084F83B3084F85D50FEF72CF820460E2173
:102FA000FEF728F820460021FEF724F820460021ED
:102FB000FEF720F829462046FEF798F8337A84F881
:102FC0005E50AB402046002184F83B3084F85D50D1
:102FD000FEF710F820461021FEF70CF820463C21A1
:102FE000FEF708F820463C21FEF704F82946204663
:102FF000FEF77CF8337A84F85E50AB40204600211F
:1030000084F83B3084F85D50FDF7F4FF2046222120
:10301000FDF7F0FF20467F21FDF7ECFF20467F21E2
:10302000FDF7E8FF29462046FEF760F8337A362799
:10303000AB40F7802046002184F83B3084F85E5096
:1030400084F85D50FDF7D6FF20462421FDF7D2FF1E
:1030500020460021FDF7CEFF39462046FDF7CAFF86
:1030600029462046FEF742F875722846F8BD00BF93
:1030700000F2FF1F9FED5A7ADFED5A7AE0EE077AF1
:103080002DE9F843FCEEE77A064617EE904A002C4D
:103090005BD0802C26D933790024274663BB524D60
:1030A000337A51485B000126002185F83B3085F8D2
:1030B0005E6085F85D60FDF79DFF22214A48FDF7BF
:1030C00099FF39464848FDF795FF21464648FDF7E8
:1030D00091FF31464448FEF709F8B0FA80F0400904
:1030E000BDE8F883C4F18004337944EA0424C4F3CE
:1030F0000727E4B2002BD2D0B6F806803A4D337AD7
:1031000028F0100800215B003171A6F806804FF00E
:103110000109284685F83B3085F85E9085F85D907A
:10312000FDF768FF28462421FDF764FF4FEA1821C8
:103130002846FDF75FFF08F0EF012846FDF75AFF2C
:1031400049462846FDF7D2FFAAE7274D037A012713
:1031500017EE901ABB400771284685F83B3085F87A
:103160005E7085F85D70FDF745FF28462221FDF76A
:1031700041FF28467F21FDF73DFF28467F21FDF7CF
:1031800039FF39462846FDF7B1FFB6F80680337A95
:1031900048F010081FFA88F8BB40A6F806802146C0
:1031A000284685F83B3085F85E7085F85D70FDF740
:1031B00021FF28462421FDF71DFF4FEA182128464C
:1031C000FDF718FF5FFA88F12846FDF713FF39462F
:1031D0002846FDF78BFFB0FA80F04009BDE8F88380
:1031E00000000143EE7CFF3E00F2FF1F2DE9F84393
:1031F00006460C4600295BD0802926D93379002564
:103200002F4663BB4F4C337A4E485B0001260021AA
:1032100084F83B3084F85E6084F85D60FDF7EAFE78
:1032200022214848FDF7E6FE39464648FDF7E2FE12
:1032300029464448FDF7DEFE31464248FDF756FF79
:10324000B0FA80F04009BDE8F883C1F18005337918
:1032500045EA0525C5F30727EDB2002BD2D0B6F815
:103260000680384C337A28F0100800215B00317159
:10327000A6F806804FF00109204684F83B3084F818
:103280005E9084F85D90FDF7B5FE20462421FDF7A1
:10329000B1FE4FEA18212046FDF7ACFE08F0EF0121
:1032A0002046FDF7A7FE49462046FDF71FFFAAE787
:1032B000244D037A0127BB400771284685F83B302F
:1032C00085F85E7085F85D70FDF794FE2846222132
:1032D000FDF790FE28467F21FDF78CFE28467F21D2
:1032E000FDF788FE39462846FDF700FFB6F8068050
:1032F000337A48F010081FFA88F8BB40A6F8068019
:103300002146284685F83B3085F85E7085F85D706B
:10331000FDF770FE28462421FDF76CFE4FEA1821C8
:103320002846FDF767FE5FFA88F12846FDF762FE42
:1033300039462846FDF7DAFEB0FA80F04009BDE8CC
:10334000F88300BF00F2FF1FF8B506460D4619B11D
:10335000012945D00020F8BD534C037A01275B00BA
:10336000204684F83B3084F85E7084F85D70FDF789
:1033700041FE20212046FDF73DFE29462046FDF76F
:1033800039FE55212046FDF735FE39462046FDF72A
:10339000ADFE0028DED1F588337A45F00405ADB2E4
:1033A0005B00F5800146204684F83B3084F85E706F
:1033B00084F85D70FDF71EFE24212046FDF71AFEFD
:1033C000290A2046FDF716FEE9B22046FDF712FE57
:1033D00039462046FDF78AFEB0FA80F04009F8BD74
:1033E000314C037A84F85E505B000021204684F85B
:1033F0003B3084F85D50FDF7FDFD2A212046FDF7A6
:10340000F9FD29462046FDF7F5FD73212046FDF71D
:10341000F1FD29462046FDF769FE0746002899D1AF
:10342000337A84F85E505B000146204684F83B30D6
:1034300084F85D50FDF7DEFD20212046FDF7DAFD22
:1034400039462046FDF7D6FD88212046FDF7D2FDFE
:1034500029462046FDF74AFE00287FF47BAFF78817
:10346000337A27F004075B00F7800146204684F892
:103470003B3084F85E5084F85D50FDF7BBFD24219D
:103480002046FDF7B7FD390A2046FDF7B3FD07F0EA
:10349000FB012046FDF7AEFD29462046FDF726FE3E
:1034A000B0FA80F04009F8BD00F2FF1F70B50021AE
:1034B000054600F03BFEE0B1EB69B3B1012B0646D7
:1034C00018D000F0A9FD044670B1021D8023311D03
:1034D00005F1200006F0F6FB28460022214600F008
:1034E0000BFE204600F0E4FD3046BDE8704000F0E1
:1034F000DFBD70BD28463146002200F0FDFD30469C
:10350000BDE8704000F0D4BD10B5044600F096FF51
:10351000204610BD024A0349034807F0B1BB00BF73
:1035200030D7FF1F093500000CF5FF1F38B5074DD8
:10353000074C08482A46214607F0A2FB2A462146A6
:103540000548BDE8384007F09BBB00BF30D7FF1FE0
:103550000935000014F5FF1F1CF5FF1F70B41A4A4F
:103560001A4B11681A48096912790270994208D2F7
:10357000184A12782AB3184A0121116003F58074A1
:1035800002E01C46A3F58073144A154912680D68C1
:10359000AAB1A5B1134E3088402810D841000A4482
:1035A0004030294402320231308033F9040B22F8D2
:1035B000020F9C4233F9020C21F8020FF5D870BCBF
:1035C000704703F58074DFE72CF5FF1F20CEFF1F47
:1035D0001F80004026F5FF1F08E200E034F5FF1FC2
:1035E00028F5FF1F24F5FF1FF8B5064600F014FD6F
:1035F0000446E8B100F010FD054600283AD072B646
:103600001F4B1A887F2A19D8002C31D01D490A680F
:1036100042B162B6204600F04BFD2846BDE8F840B6
:1036200000F046BD18480C601A80056062B6F8BD0F
:10363000054672B6124B1A887F2AE5D9114A1249FB
:103640001768146000220C681A800D6062B6394653
:10365000304600F051FD384600F02AFD3046214644
:10366000012200F049FD2046BDE8F84000F020BDF1
:1036700062B6F8BD204600F01BFD2C46BFE700BF38
:1036800024F5FF1F34F5FF1F28F5FF1FF8B5364D51
:103690000121284600F034FE00F064FB334B34482F
:1036A0004FF480621A602B686FF05F0219781A700D
:1036B0006FF00F0259785A7002219A78997040225F
:1036C000DC78DA7000221861987D9A7501244FF039
:1036D000FF306FF00106197219755E76D97D1A7187
:1036E0005A715A729A72DA721A735A739A73DA7337
:1036F0005A751A769C71DC71DC759876D8762979C2
:10370000987F9A7701F18041D87FDC7701F5043109
:1037100006201E7F18778C205E7F5A770A7008700B
:1037200000F094FD134E144B2A79144930701A702E
:103730000B682A791248134D134E43F0124323436A
:103740000B6053119B00016803F1604302F01F07F7
:1037500003F561431032BC4041F01041016045F86F
:1037600022601C60F8BD00BF2CF5FF1F14B00440A0
:1037700020CDFF1F26F5FF1F1B80004080F0024078
:1037800000F0024000D2FF1F5D350000024A0349ED
:10379000034807F075BA00BF30D7FF1F0935000096
:1037A0002CF5FF1F024A0349034807F069BA00BF1E
:1037B00030D7FF1F0935000038F5FF1F2DE9F04F06
:1037C00000F5807EB1E8A00AB2E84015C5EA0643DC
:1037D000C6EA2544C7EA0845C8EA2746C9EA0A47AF
:1037E000CAEA2948CBEA0C49CCEA2B4AA0E8F807F8
:1037F0008645E7D1BDE8F04F70474FF000022DE954
:10380000F00F00F5807C00BFB1E8A00AC5EA020312
:10381000C2EA2544C7EA0205C2EA2746C9EA020706
:10382000C2EA2948CBEA0209C2EA2B4AA0E8F80713
:103830008445E9D1BDE8F00F70474FF000022DE953
:10384000F00F00F5807C00BFB1E8A00AC2EA054392
:10385000C2EA0504C2EA0745C2EA0706C2EA094706
:10386000C2EA0908C2EA0B49C2EA0B0AA0E8F80753
:103870008445E9D1BDE8F00F70472DE9F00F089CB1
:1038800000F5007B51F8045B53F8046BC5EA06476A
:10389000C6EA254952F8045B54F8046BC5EA0648A9
:1038A000C6EA254AA0E880078345EBD1BDE8F00FC2
:1038B000704700BF2DE9F8434FF00008064600F1BD
:1038C0001805474641463046002F4FD000F02EFCE9
:1038D000F0B12C68B4F5803F07F1040100F1040E4B
:1038E00007F5827C27D05EF8042B34FB02F334FB0F
:1038F00012F903F30F0209F30F03C2EA03430A6844
:1039000093FA12F341F8043B8C45ECD800F0D0FB5D
:1039100008F10108B8F1040F05F10405D2D1002F18
:1039200040D030463946002200F0E6FB3846BDE87C
:10393000F84300F0BDBB07F10C0100F10C0451F895
:10394000083C54F8082C93FA12F341F8083C54F858
:10395000042C51F8043C93FA12F38C4541F8043CD2
:1039600004F1080401F10801E9D8CFE700F0EAFB0F
:1039700007460028CCD02868B0F5803FC8D0391D54
:1039800007F582740B6830FB03F230FB13F302F38C
:103990000F0203F30F03C2EA034341F8043B8C42D6
:1039A000F0D8B5E7BDE8F883024A0349034807F0B9
:1039B00067B900BF30D7FF1F0935000040F5FF1F72
:1039C000024A0349034807F05BB900BF30D7FF1F25
:1039D0000935000048F5FF1F2DE9F84F344B3548F5
:1039E0001A68354912681B790B70824229D2334B11
:1039F0001B784BBBDFF8D4A0DFF8D490DFF8D4807D
:103A0000DFF8D4B0DAF80060D9F80070B8F80040F8
:103A1000BBF80050002E3BD09FB33A1D311D02EB86
:103A2000450201EB4401FFF7C9FE403540347F2CCD
:103A30001BD8A8F800407F2D0AD8ABF80050BDE88D
:103A4000F88FA0F58070D5E71D4B01221A60D1E7F1
:103A500000243846ABF8004000F02AFB194B1A68E6
:103A6000C9F800201C60BDE8F88F00243046A8F893
:103A7000004000F01DFB144B1A68CAF800201C60BF
:103A8000D9E7311D01EB4401FFF7B7FE4034CEE723
:103A900037B1391D01EB4501FFF7CFFE4035C6E7D1
:103AA00039464FF48072BDE8F84F07F0E3BB00BF22
:103AB00054F5FF1F20D0FF1F1F8000406CF5FF1F33
:103AC00008E200E068F5FF1F70F5FF1F64F5FF1FB7
:103AD0005CF5FF1F50F5FF1F60F5FF1F70B500215B
:103AE000044600F023FB80B172B61C4A1368002B19
:103AF00029D01B490D6805B31A4E156000220860D5
:103B0000328062B6184600F0D3FA2046012100F058
:103B10000DFB88B172B6144A1368CBB113490C6817
:103B200074B1134D1460002208602A8062B61846F2
:103B3000BDE8704000F0BCBA70BD086062B6E4E752
:103B4000086062B670BD074910600B8062B6DCE7A2
:103B5000074910600B8062B670BD00BF64F5FF1F9F
:103B600070F5FF1F50F5FF1F5CF5FF1F68F5FF1F85
:103B700060F5FF1FF8B501215A485B4D5B4C00F022
:103B8000BFFB5B4B5B495C4800222A6022601A68DD
:103B900042F400421A600A6842F002020A601A689F
:103BA00042F002021A600368002B3BDB534B1B6898
:103BB000002B37DB524A4FF0804313601368002B11
:103BC000FCDB504C5048DFF890E15049504B514AD3
:103BD000514F524E524D4FF2FE0CC4F800C000241B
:103BE00004600120CEF80000DFF870E1C1F800E0C9
:103BF0004FF4803119604B4B1360DFF864E14A4A9F
:103C00003A60346028604948CEF80000484CB967F3
:103C10004848494946F8503C4FF4C0632A61236044
:103C200003600B602F4D454B45494FF4C0621A604D
:103C30002B6820221960197C1A746FF00F02597CCE
:103C40005A7402219A7C99744022D87CDA7400223A
:103C5000987D9A7501244FF0FF306FF001061971BD
:103C600019725E73D97D5A715A729A72DA721A7326
:103C70001A755A751A765A769A769C71DC71DC75CB
:103C80009873D873DA762979987F9A7701F1804111
:103C9000D87FDC7701F5043106201E7F18778D2050
:103CA0005E7F5A770A70087000F0D0FA2A79254BA7
:103CB000254E187053119B0003F1604302F01F075B
:103CC0000D49224D327002F1100003F56143BC40F2
:103CD0001F4E204A4FF080770F600E6045F820207D
:103CE0001C60F8BD54F5FF1F64F5FF1F5CF5FF1F56
:103CF0003C8004404080044000F0024080F00240DC
:103D000000F1024004F1024060F0024008F002407D
:103D10000CF0024010F0024014F00240E0F00240CB
:103D200084F002401B0F0100000F0F0F030000473B
:103D300008B004400CB0044018B0044004B0044083
:103D400020CFFF1F6CF5FF1F1B80004000D2FF1F1C
:103D500001000090D939000004F002400300000780
:103D600088F00240284B29491A68294842F4004249
:103D70001A600A6842F002020A601A6842F00202FF
:103D80001A600368002B3DDB224B1B68002B39DBDC
:103D9000214A4FF0804313601368002BFCDBF0B521
:103DA0001E4C1F48DFF8ACE01E491F4B1F4A204F36
:103DB000204E214D4FF2FE0CC4F800C000240460D8
:103DC0000120CEF80000DFF890E0C1F800E04FF4E9
:103DD00080311960194B1360DFF880E0184A3A60AF
:103DE000346028601748CEF80000174CB9671748B0
:103DF000174946F8503C4FF4C0632A6123600360C2
:103E00000B60F0BD704700BF3C8004404080044020
:103E100000F0024080F0024000F1024004F1024054
:103E200060F0024008F002400CF0024010F0024046
:103E300014F00240E0F0024084F002401B0F010049
:103E4000000F0F0F0300004708B004400CB00440FF
:103E500018B0044004F002400300000788F002405C
:103E6000024A0349034806F00BBF00BF30D7FF1FCB
:103E70000935000054F5FF1F024A0349034806F0C4
:103E8000FFBE00BF30D7FF1F0935000074F5FF1FCC
:103E9000024A0349034806F0F3BE00BF30D7FF1FB4
:103EA000093500007CF5FF1F024A0349034806F06C
:103EB000E7BE00BF30D7FF1F0935000084F5FF1FA4
:103EC000024A0349034806F0DBBE00BF30D7FF1F9C
:103ED000093500008CF5FF1F2DE9F84385690DB900
:103EE000BDE8F883064600F097F804460028F7D0AE
:103EF000F369043004F5827744F2A71111FB13FE35
:103F0000DFF8B8C09AB24FEADE334FEA0E4E01FB3B
:103F100002330EEA0C0C634423F0004202EBD3732D
:103F200035FB03FE11FB13FC244A4FEA0C4808EA58
:103F3000020202EBDC329BB201FB032323F00042BE
:103F400002EBD37335FB03F2CEEA024E11FB13FCF6
:103F50001A4A4FEA0C4808EA02029BB202EBDC3232
:103F600001FB032222F0004303EBD27235FB02FC7B
:103F700011FB12F8114B4FEA084909EA030303EB5E
:103F8000D83392B201FB023222F0004303EBD2732A
:103F900035FB03F2CCEA024240F808EB874240F8D6
:103FA000042CABD83046F3612146002200F0A4F87F
:103FB0002046BDE8F84300F07BB800BF0000FF7F5B
:103FC000C029F0B428BFC02172B6114B114E186041
:103FD000002333607360B360F36033617361012762
:103FE00099B15D0903F01F0456F8252007FA04F47F
:103FF000013322438B4246F82520F2D1002343703F
:1040000001338B4200F58270F9D162B6F0BC704783
:10401000A0F5FF1FA8F5FF1F70B472B6204B1968FA
:1040200021B9596821B30433202200E000221D4E3B
:104030003478B1FA81F54FF00040E8400134E4B241
:1040400021EA00003470186062B6531B03EB83133F
:104050009A00154B1549186802F5FB531C330122D1
:10406000C2540A78A242184438BF0C7070BC704722
:10407000996821B9D96829B10C336022D7E7083390
:104080004022D4E7196921B9596929B11433A02212
:10409000CDE710338022CAE762B60846E6E700BFE4
:1040A000A8F5FF1FA5F5FF1FA0F5FF1F9CF5FF1F3B
:1040B000427872B60378012B03D9013B037062B6D4
:1040C000704770B456110A4D0A4C55F826102378E3
:1040D000D2434FF0004002F01F0220FA02F21143D7
:1040E000013B45F82610237062B670BC704700BFD4
:1040F000A8F5FF1FA5F5FF1FC368B3B130B401E0F9
:10410000DB688BB1187A9042FAD158685C7A006902
:1041100050F82450002DF3D140F8241008780130D5
:104120000870DB68002BEDD130BC7047437A8B42BE
:1041300006D90369002253F8210043F82120704773
:1041400000207047F8B5437A8B4247D9026952F88C
:104150002150002342F82130002D3FD02A78012A37
:1041600037D972B629490A685AB30C46284F3978AC
:10417000B2FA82F64FF00040F0400131C9B222EAB3
:1041800000003970206062B69B1B03EB83139B0019
:104190002048214A006803F5FB531C330124C45412
:1041A00016788E4200EB030400D211704FF4807237
:1041B000291D201D00F07CFC20462B78013B2B7034
:1041C000F8BD4A683AB98A6852B101F1080440233F
:1041D000CCE72846F8BD0C1D2023C7E70020F8BD1A
:1041E000CA682AB90A693AB101F110048023BDE70F
:1041F00001F10C046023B9E74A691AB101F1140412
:10420000A023B3E762B61046D7E700BFA8F5FF1FAB
:10421000A5F5FF1FA0F5FF1F9CF5FF1F4368427A1D
:104220005B7A9A420ED872B60168CA680AB90AE087
:104230001A46D368002BFBD1D060426801230B7271
:10424000137262B67047C860F7E700BF084B1A7870
:104250005AB90848084910B4D02404700122104605
:104260000A601A705DF8044B70470020704700BF69
:10427000A4F5FF1F40E400E008E100E01A491B4AF2
:104280001B48F8B50B681B4D046843F080730B6046
:10429000136843F0010313602E6814B915E06469D4
:1042A0009CB1237A002BFAD023682F681B68204624
:1042B00098472B68E188DB1B1B099AB28B42A280CE
:1042C00088BFE2806469002CEBD10A4B0A4A1B6864
:1042D00010880A4C9B1B1B0999B28342218001D98B
:1042E0001180F8BDF8BD00BFFCED00E0001000E05B
:1042F00098F5FF1F041000E0A6F5FF1FC0F5FF1F93
:10430000F0B572B699B904688CB102790F2A0ED84B
:1043100043490B8843FA02F5EF070AD502F1007210
:1043200002F59062B4EB421F03D162B6F0BD3C4986
:104330000B8813F0010226D09E0757D55D0757D58D
:104340001C0757D5DA0657D59F0657D55E0657D5B1
:104350001D0657D5DC0557D59A0557D55F0557D5A6
:104360001E0557D5DD0457D59C0457D55A0409D5E9
:10437000DA0B08BF0F2206D062B6002210230260BB
:104380000371F0BD0E220124944023430B8062B6DA
:10439000244E254DDFF89CE0244FDFF89CC0D1B2BD
:1043A0000171346844F00204346002F100732A6839
:1043B0001F4CA6F5802642F0020203F59063283ECA
:1043C0002A605B0140F28242CEF800203970002260
:1043D0008CF800103170217003601A605A609A6086
:1043E000DA601A615A619A61DA61F0BD0122CAE7A6
:1043F0000222C8E70322C6E70422C4E70522C2E777
:104400000622C0E70722BEE70822BCE70922BAE776
:104410000A22B8E70B22B6E70C22B4E70D22B2E776
:10442000C2F5FF1F408004403C8004401A800040D9
:104430001F800040008000401E80004003790F2B49
:1044400012D80A4A10B4137072B6094904790A885E
:104450000123A34022EA03030B8062B6102200234B
:104460005DF8044B02710360704700BF1A80004082
:10447000C2F5FF1FF8B572B106460F461446002577
:10448000336817F8011B1B6830469847013C054408
:10449000F6D12846F8BD1546FBE700BFF0B5002968
:1044A0008BB004461BDB5AD130238DF825302368AE
:1044B000354A5F6897424AD100250DF125010E4625
:1044C0000D44002701E0236801361B68317820463F
:1044D0009847B5420744F6D138460BB0F0BD2B4B98
:1044E0004942A3FB0123DB0803EB8302A1EB42015A
:1044F00030318DF82510002B44D02D26234D21225C
:10450000A5FB0301C90801EB8100013AA3EB4003BD
:10451000D2B20AA81044303300F8243C0B460029DC
:10452000EED15EB3551EEDB20AAB2B442D2203F83B
:10453000242CC5F122002368134A5F6801A9974221
:10454000294407D1C5F121050028B8D1C5E70120CC
:104550000DF1250102462046B8470BB0F0BD0B4BCC
:10456000A3FB0123DB0803EB8302A1EB4202303201
:104570008DF82520002B9AD00026BFE71546C2F102
:104580002200D8E72122CDE775440000CDCCCCCC69
:1045900030B503680D490E4A5C68098883B09442BF
:1045A000ADF804100DD105461B680D2198472B6806
:1045B0009DF805101B68044628469847204403B020
:1045C00030BD01A90222A04703B030BD70BC00007D
:1045D00075440000F0B506468BB0002A46D0012A8B
:1045E00008BF0A2200293CD0212500E0FDB2B1FB22
:1045F000F2F402FB1411C8B2092900F1300198BF8E
:10460000C8B20AA988BF3730294488BFC0B201F8B0
:10461000240C6F1E2146002CE8D133B1013DEDB2D0
:104620000AAB2B442D2203F8242C336816495F680B
:1046300001AA8F4202EB0504C5F122021CD1C5F18B
:104640002105F2B12544002701E0336801341B68DD
:10465000217830469847A5420744F6D138460BB03A
:10466000F0BD30228DF825202125D6E70368C9B298
:104670001B6898470BB0F0BD21463046B8470BB0D9
:10468000F0BD1046EBE700BF75440000FFFFFFFFE1
:104690002DE9F04F57EC106B8DB005468A4610EEB1
:1046A000102A3B4610EE100A394606F063FA00283D
:1046B00040F04A8127F00049304649464FF0FF322A
:1046C000B54B06F057FAF0B9304649464FF0FF3285
:1046D000B14B06F031FAB0B92B68B04A5C6894422D
:1046E00040F02481AE4E0446F71C00E02B6816F81B
:1046F000011B1B6828469847BE420444F6D1204659
:104700000DB0BDE8F08F4FF06042A64B3046394601
:1047100006F026FA0446002840F0E4804FF060429C
:10472000A14B3046394606F0FDF9002840F0C8801C
:10473000002200233046394606F0F4F9002840F004
:10474000E780044600209949BAF1000F0CD04FF0E1
:1047500000088FA3D3E9002308F1010805F070FFDA
:104760005FFA88F39A45F4D802460B46304639463C
:1047700005F0B4FDCDE9000106F012FA81460028EB
:1047800000F099808A49A1FB0023DB0803EB830238
:10479000A0EB420230328DF82D20002B00F0ED808E
:1047A0008E462120AEFB0312D20802EB82010138B3
:1047B000A3EB4103C0B20CA90144303301F8243CFF
:1047C0001346002AEED134B10138C0B20CAB034419
:1047D0002D2203F8242C2F68DFF8C0817B6803AA00
:1047E000434502EB0001C0F1220240F09680C0F187
:1047F0002100002A00F0A0808B460C18002602E061
:104800002F680BF1010B3B689BF800102846984776
:10481000A3450644F4D13446BAF1000F3FF46FAF1C
:104820002E2348468DF80C3005F094FE02460B46C8
:10483000DDE9000105F050FDBAF10F0F28BF4FF080
:104840000F0A0AF1010A5FFA8AFA4FF00109002201
:10485000584B05F0F5FE0F46064606F0A1F90CABE5
:104860004B44C0B200F1300203F8242C05F082FE64
:1048700009F1010902460B465FFA89F930463946CB
:1048800005F02AFDD145E2D12B685E68464548D146
:10489000A9F1020903AE02E02B6809F1FF391B6898
:1048A00016F8011B28469847B9F1FF3FF4D120467E
:1048B0000DB0BDE8F08F30238DF82D30212082E738
:1048C0002B68364A5E68964251D13B4EF71C00E099
:1048D0002B6816F8011B1B6828469847BE42044403
:1048E000F6D10CE72B682D4A5C68944226D1324EF3
:1048F0000024F71C00E02B6816F8011B1B682846F3
:104900009847BE420444F6D120460DB0BDE8F08F72
:1049100007F100431F46012414E728469847044640
:104920007AE74A4603A92846B047E8E62846032224
:104930001B49A0470446E2E614466DE728460322D9
:104940001D49A0470446DAE62B68144A5C68944285
:1049500015D11A4E0024F71C00E02B6816F8011B35
:104960001B6828469847BE420444F6D1C7E628464D
:1049700003221149B0470446C1E6212023E7284617
:1049800003220E49A0470446B9E600BFAFF30080FA
:10499000000000A09999B93FFFFFEF7F7544000028
:1049A00078BC0000FFFFEF41FFFFEFC10000E03FD8
:1049B000CDCCCCCC000024407CBC000074BC0000FA
:1049C00030B42948294A2A4B2A4D6024E121047039
:1049D00011701B78284C082B30D00A2B2748284907
:1049E00037D00C2B0CBF35225D2212232A602360A6
:1049F00002600B60234B24491B78244ABBB101237E
:104A00000B601360224B23491B78234A012B26D9C4
:104A1000042B0FD9082B1ED9102B94BF8623872374
:104A20000B6013601D4B01221A7030BC70470B6085
:104A30001360E7E784230B601360F3E700F58E2033
:104A40000F490830212213232A60236002600B6083
:104A5000D0E73922F7E785230B601360E2E7802374
:104A60000B601360DEE700BF0040074001400740D5
:104A70003CD7FF1F08B003400CB0034008B00B4008
:104A80000CB00B40C5F5FF1F20B0034020B00B4019
:104A90003DD7FF1F24B0034024B00B40C4F5FF1FD7
:104AA00008B5FBF725FDFBF7CBFD01F01DFCFAE790
:104AB000844641EA000313F003036DD1403A41D329
:104AC00051F8043B40F8043B51F8043B40F8043BE8
:104AD00051F8043B40F8043B51F8043B40F8043BD8
:104AE00051F8043B40F8043B51F8043B40F8043BC8
:104AF00051F8043B40F8043B51F8043B40F8043BB8
:104B000051F8043B40F8043B51F8043B40F8043BA7
:104B100051F8043B40F8043B51F8043B40F8043B97
:104B200051F8043B40F8043B51F8043B40F8043B87
:104B300051F8043B40F8043B51F8043B40F8043B77
:104B4000403ABDD2303211D351F8043B40F8043B17
:104B500051F8043B40F8043B51F8043B40F8043B57
:104B600051F8043B40F8043B103AEDD20C3205D327
:104B700051F8043B40F8043B043AF9D2043208D01F
:104B8000D2071CBF11F8013B00F8013B01D30B8891
:104B900003806046704700BF082A13D38B078DD06F
:104BA00010F003038AD0C3F10403D21ADB071CBF41
:104BB00011F8013B00F8013B80D331F8023B20F8AB
:104BC000023B7BE7043AD9D3013A11F8013B00F8E4
:104BD000013BF9D20B7803704B7843708B7883706C
:104BE00060467047024A136801331360704700BF84
:104BF000C8F5FF1F08B5104C08E0236859050DD40F
:104C000023681A050FD42368DB0411D423685803E2
:104C1000F3D500F091FB23685905F1D502F010FBA4
:104C200023681A05EFD502F0B7FE2368DB04EDD543
:104C300003F0C0F9EAE700BF3480044008B5FFF78D
:104C4000D9FF00BF014B10221A8070470020054099
:104C5000704700BF094908B50B6830B16A4618446F
:104C6000A2F50052904202D20860184608BD06F034
:104C700013F80C2303604FF0FF3008BD40D7FF1F2F
:104C8000FEE700BFEFF3138070B9EFF310836BB949
:104C9000EFF305825AB94FF48070EFF311832BB113
:104CA000984228BF184670474FF0FF3070470F2AD0
:104CB00001D81846F1E7014BD05CEEE7F0E300E0E5
:104CC000084A1378802B01D0002070470649074B13
:104CD00007480860002119701378802BFCD0012050
:104CE000704700BF03E007404480044001E00740F4
:104CF00000002822094A1378012B01D000207047B8
:104D000003F1804303F5FC23602119701378802B95
:104D1000FCD1034B034A1A600120704703E00740AF
:104D2000448004400000060205F0E4BFF0B44D1ECC
:104D30002E46002400E00134B0FBF2F302FB130026
:104D4000092800F130078ABF3730F8B2C0B206F840
:104D5000010F1846002BEED10A1953704CB1107890
:104D600015F8016F28700133E01A834202F80169D7
:104D7000F5DB0846F0BC704730B4054B054D064CDA
:104D8000002210211A602A602060196030BC704730
:104D900014D0034004D0034000D003402DE9F84371
:104DA0008F4B9048DFF870C28F4C9049DFF86CE26F
:104DB0008F4E904D904F4FF000621A604FF080522E
:104DC0001A604FF000521A604FF080421A604FF0A4
:104DD00000421A600022026028234EF6FF70CCF8D1
:104DE0000000CEF8003023600EF5012E0B6033601A
:104DF0002B6006F500263B6005F50025A36207F54C
:104E000000278B6204F5012401F5012106F6E876FE
:104E100005F6E87507F57F6710310EF1100E2034A6
:104E200033602B60CEF800303B600B602360734C26
:104E3000BB618B6109212160A7F5002704F580542F
:104E4000203F08343A602060BB60E36047F8041CF0
:104E500004F5FD2407F5FE27043704F2FC742260F4
:104E60003860A360FB6044F8041C083404F6FC744A
:104E7000C7F8FC2F2060A4F5E124A4F2DC743360B1
:104E80002B60C7F8F81F21685D4841F4007121606C
:104E900001685C4C0EF57F4E0EF1E80E07F5883781
:104EA00006F5803605F5803541F000710160CEF8D9
:104EB000002047F6FF710822396033602B602260C2
:104EC000FFF77EFD72B6504C504B514A1B68256867
:104ED000126862B6510102D5322B88BF0135C3F585
:104EE0002F3303F21F334B4FDFF82091DFF820817F
:104EF0009B084FF47A72A7FB031302FB05F505EB41
:104F00009305322672B6D9F800102268D8F800E06E
:104F100062B6C1F52F3303F21F339B08A7FB0303CF
:104F20001EF0806FC5EB93034FF47A7002D03229E4
:104F300088BF013200FB0233B3F57A7F04D3013E10
:104F400005D005F57A75DDE701F0CEF9DAE700F076
:104F50004BFF72B62D4B2E4A1B682568126862B64D
:104F6000520102D5322B88BF0135C3F52F3303F22E
:104F70001F33284FDFF89490DFF894809B084FF49C
:104F80007A72A7FB031302FB05F505EB93054FF4BB
:104F9000AF7672B6D9F800102268D8F800E062B691
:104FA000C1F52F3303F21F339B08A7FB03031EF049
:104FB000806FC5EB93034FF47A7002D0322988BF1B
:104FC000013200FB0233B3F57A7F04D3013E05D0F2
:104FD00005F57A75DDE701F087F9DAE7BDE8F883D2
:104FE00004E100E004800340148003401C8003407F
:104FF000248003402C800340348003400080034021
:105000000480044000900C40C8F5FF1F18E000E049
:1050100004ED00E0176CC116088003400C800340CB
:105020003F280CD810B40F4B53F8302092F8804230
:1050300034B1012379B182F880305DF8044B7047B8
:1050400003EBC00043681A6841B922F002021A60FB
:105050005DF8044B704782F80031F9E742F0030233
:105060001A60F5E780BC00003F2820D81B4A02EBFD
:10507000C00301295B680FD004291DD052F830000D
:10508000002280F8802299B1022922D003290DD173
:105090004FF481721A60704752F830004FF4A272D8
:1050A00080F880121A601A6822F020021A60704795
:1050B0004FF480721A60704752F830104FF4A272A9
:1050C000012081F880021A601A6842F020021A60FA
:1050D000704740F203121A60704700BF80BC0000A6
:1050E0002DE9F843054672B6224F234B234A1B682D
:1050F0003C68126862B6520102D5322B88BF013477
:10510000B5B3C3F52F3303F21F331D4EDFF868909C
:10511000DFF868809B084FF47A72A6FB031302FB4A
:1051200004F404EB930472B6D9F800103A68D8F886
:1051300000E062B6C1F52F3303F21F339B08A6FBD4
:1051400003031EF0806FC4EB93034FF47A7002D018
:10515000322988BF013200FB0233B3F57A7F04D3D2
:10516000013D05D004F57A74DDE701F0BDF8DAE71A
:10517000BDE8F883C8F5FF1F18E000E004ED00E08B
:10518000176CC116431E032B14D872B60A4951F886
:10519000230068B170B4094C058834F813204668C0
:1051A00041F82360521B24F8132062B670BC70478C
:1051B00062B670470020704724F6FF1F70FAFF1F89
:1051C000013803280BD872B6074B53F8203043B18F
:1051D00000205B680130002BFBD162B670470020D5
:1051E00070471846F9E700BF78F6FF1F30B472B673
:1051F0002B4A13781D0706D52A4B196A002936D089
:10520000996A002941D053781C0706D5254B196CA3
:1052100000293ED0996C002939D09378190705D51B
:10522000204B196E002936D0996E89B1D3781B07AF
:1052300007D51C4BD3F880207AB3D3F888201121EE
:105240003AB162B6184B00221A7030BC00F08EBE24
:105250000D21154C154D227843F8315003EBC10355
:105260000830013A5860227062B630BC70470422A0
:105270000D4C0F4D217843F8325003EBC203083038
:105280004A1E5860227062B6EFE70521E1E7092166
:10529000DFE70822ECE70C22EAE71022E8E700BF8C
:1052A000E4C000000000FF1FA1F6FF1FC80040007F
:1052B00088004000431E032B1DD81B4A400140F0CC
:1052C000100030B4104472B6184CE25C032A1BD8AC
:1052D000DFE802F00212151703220D88E25410F0E5
:1052E000080F14BFC823882343EA0543083103602D
:1052F000416062B630BC704708300222EDE70522FB
:10530000EBE708300422E8E7094A52F8230038B1F5
:10531000084A52F82300416042F8231062B6E9E7D8
:1053200042F82310034AF7E70000FF1FB0F6FF1F03
:1053300078F6FF1F88F6FF1F2DE9F04FDFF808B35E
:10534000DFF808A387B044E0AA4F4FEA930807EBC1
:10535000C809013ED9F8042003F00803F6B2A2F10F
:10536000080003F0FF04002B40F0008157F83830AC
:105370001B0C99B222F8081C002B00F0EE809E4B0B
:1053800022F8064C42F8044C53F82620002A00F07C
:10539000C3829A4D55F826305860994C45F826003E
:1053A00034F81630194424F8161000F0BFFD002818
:1053B00000F0AB82934A944B19F0080F00F10800FB
:1053C00018BF1346C9F8040047F8383008238BF893
:1053D00000309BF80040E4B261071AD58B4B1B7874
:1053E000A3B18B490A7802F0FF0322B1013BDBB283
:1053F0000B7003B900BE87490A7802F0FF032AB197
:10540000013BDBB20B70002B00F0558204238BF8BC
:10541000003004F0080303F0FF02002B00F0CA8004
:105420009AF80030DBB21E098ED19C08DFF8C491D7
:1054300059F8342009EBC401C2F38302013A4968E8
:105440000C2A00F28680DFE802F07A7A8484848471
:10545000848445848484070008686F4D4A686F4FD0
:105460006F4E286081B240F28160664B6A604FF0F7
:10547000010E0022814249F834303A60C9F8102008
:10548000C9F8182086F800E05A4C00F2E180B1F526
:10549000D06F80F04483B1F5817F00F0FA8200F292
:1054A0008B82802900F07583822940F0F882A988D8
:1054B000042900F2F4825B485B4C890008442270A6
:1054C00062700278930740F1558484F800E04FF051
:1054D000020E42E3514F3A6832B3544B504E544996
:1054E000188834780D784028864645F0020828BF91
:1054F0004FF0400E002C84F001043470CEEB00001D
:105500000CBF8824C82409EBC80680B285F00105C9
:1055100044EA0E447260188049F8384072440D70B5
:10552000002800F045813A603B4B1A88B2F5A06F25
:105530000FD100219A7859703E4B1A7009E0364A13
:10554000108842F22102904200F037812D4A49F83A
:105550003420394A0123137038E72A4A2A4B19F0BC
:10556000080F18BF134647F838302FE700F0FEFC4D
:10557000324A334952F82630002B00F0D181586866
:105580008C5D42F8260003F10802C9F80420032CC0
:1055900005D8DFE804F02C02292602228A551A8851
:1055A00019F0080F0CBF8823C82343EA024347F8C9
:1055B00038300BE7E00700F18181210600F1F2812C
:1055C000A20706D51F4A204913780220DBB21370C8
:1055D0000870E30602D51C4B10221A7007B0BDE814
:1055E000F08F04228A55DAE705228A55D7E703228D
:1055F0008A55D4E70000FF1F24F6FF1FD0F5FF1FD8
:1056000070FAFF1FC800400088004000ACF6FF1F82
:1056100035F6FF1FC4F6FF1F98F6FF1FCCF5FF1FDE
:1056200034F6FF1FC0200740A4F6FF1FE0F5FF1F60
:10563000A0F6FF1F982007409420074078F6FF1F30
:10564000B0F6FF1F882007408020074090200740C9
:1056500042F22100814200F02A8100F2D880B1F5A7
:10566000086F00F07682B1F5106F40F01882226A60
:10567000B349A8780870120600F13783D9F82820BA
:10568000B049130600F12C83D9F83020AD49150636
:1056900000F1FF82D9F83820AA49140600F1F482FB
:1056A000D9F84020A749100600F14783D9F84820CF
:1056B000A449120600F13C83D9F85020A1491306F1
:1056C00000F13183D9F858209E49150600F1268350
:1056D000D9F860209B49140600F11B83D9F8682093
:1056E0009849100600F11083D9F8702095491206E8
:1056F00000F10583D9F878209249130600F1FA8267
:10570000D9F880208F49150600F12E83D9F888201A
:105710008C49140600F12283D9F89020894910069B
:1057200000F11683D9F898208649120600F10A8301
:105730008548864A864901908648874C874D029461
:1057400000230497059680461C460F46164603958F
:10575000306828B1456800F009FC2846002DF9D1D1
:1057600000233360039B38681A46002342F8243034
:1057700028B1456800F0FAFB2846002DF9D1002237
:105780003A60019A98F800301146002241F8042B43
:10579000029A0191023B4FF0000122F81410032BF2
:1057A00000F22B81DFE813F0700125017001250163
:1057B000BEF1400F18BF0022B5E6694A0D7848785F
:1057C000157050708D78C8789570D07010680D790C
:1057D000157186284D7989795571917100F09B81F9
:1057E0006049614E0A78307882F00105002842F065
:1057F00002020D700CBF8821C82149F8321009EB54
:10580000C20280F001000021307051609EE642F239
:105810002120814240F0CB81544B554C5549A8780A
:105820001D682560CDF804E00870002002908046D5
:10583000844604464B490D7845F0020E09EBCE0331
:105840000393019B002B039B5C600CBF8824C8243E
:1058500044EA080385F0010449F83E3032700C70C8
:10586000DFF8E0E0404BDFF8FC80002840F01E81CC
:10587000BCF1400F1BD144F0020C09EBCC03029C9D
:10588000DFF8C0E05C60002A40F02681020442F0AC
:1058900088029DF804304EF83C20044433700D70AB
:1058A0002346402803D10020334A3B601080334A0E
:1058B000012313704DE600F0F3FCA7E5214B2F48C0
:1058C00028491A614FF0020E80F800E02C4F0A7050
:1058D0002C49196099602C4E2C4D2D4C9A610D214C
:1058E0003970FF213170DFF8B8E029702270294D3E
:1058F000294A8EF800109F27012406F8047C5D6079
:105900000470DA6007B0BDE8F08F244A47F8380029
:1059100013780133137059E543F826000F4D3CE529
:105920008B5D032B00F2F08001A252F823F000BF40
:10593000CD530000CD530000ED590000E7590000A1
:10594000ACF6FF1F0000FF1F88F6FF1F24F6FF1FA5
:1059500078F6FF1FB0F6FF1F70FAFF1FD0F5FF1F8C
:1059600078FAFF1FA0F6FF1F34F6FF1FC8F5FF1FD0
:1059700080FAFF1FD4F6FF1FE0F5FF1F94200740B9
:10598000C020074088004000882007408020074052
:1059900098200740E4F5FF1F38F6FF1FA1F6FF1F10
:1059A0008C200740BD49BE4B80220D2008701A7024
:1059B000A2077FF50EAE05E640F20232914240F0BA
:1059C000EE80A98801F07F01042968D86A88002A3E
:1059D00065D1B248CDF804E089000844017841F06F
:1059E0000201017021E701238B55EFE400238B5561
:1059F000ECE44FF0010388F800300134042C06F188
:105A0000040607F1040708F101087FF4A1AEA54CD4
:105A1000A54B2278A54D049F059E002129701A7080
:105A2000130700F105816278A149DFF890820A70BE
:105A300010074FF00001C9F83010C9F8381000F114
:105A4000E1809C49A2780A700021C9F85010C9F879
:105A500058101107DFF8648200F10081E27896495E
:105A6000964C0A7000211207C9F87010C9F8781016
:105A700000F1B08033780193002183F00102C9F86E
:105A80009010C9F89810D0E64FF0000388F8003065
:105A9000B3E7A98801F07F01042940F28D807F4A95
:105AA0000F231370864A0123137052E540287FF6B6
:105AB000E2AE44F002040EEBC401029E4E60BAB1A5
:105AC0009DF804107F4A19703346403888F800501A
:105AD00040334EF83420E7E69DF80430337002047A
